{
  "_format": "hh-sol-artifact-1",
  "contractName": "NFTMarketplace",
  "sourceName": "contracts/NFTMarketplace.sol",
  "abi": [
    {
      "inputs": [],
      "stateMutability": "nonpayable",
      "type": "constructor"
    },
    {
      "anonymous": false,
      "inputs": [
        {
          "indexed": true,
          "internalType": "address",
          "name": "owner",
          "type": "address"
        },
        {
          "indexed": true,
          "internalType": "address",
          "name": "approved",
          "type": "address"
        },
        {
          "indexed": true,
          "internalType": "uint256",
          "name": "tokenId",
          "type": "uint256"
        }
      ],
      "name": "Approval",
      "type": "event"
    },
    {
      "anonymous": false,
      "inputs": [
        {
          "indexed": true,
          "internalType": "address",
          "name": "owner",
          "type": "address"
        },
        {
          "indexed": true,
          "internalType": "address",
          "name": "operator",
          "type": "address"
        },
        {
          "indexed": false,
          "internalType": "bool",
          "name": "approved",
          "type": "bool"
        }
      ],
      "name": "ApprovalForAll",
      "type": "event"
    },
    {
      "anonymous": false,
      "inputs": [
        {
          "indexed": true,
          "internalType": "uint256",
          "name": "tokenId",
          "type": "uint256"
        },
        {
          "indexed": false,
          "internalType": "address",
          "name": "seller",
          "type": "address"
        },
        {
          "indexed": false,
          "internalType": "address",
          "name": "owner",
          "type": "address"
        },
        {
          "indexed": false,
          "internalType": "uint256",
          "name": "price",
          "type": "uint256"
        },
        {
          "indexed": false,
          "internalType": "bool",
          "name": "sold",
          "type": "bool"
        }
      ],
      "name": "MarketItemCreated",
      "type": "event"
    },
    {
      "anonymous": false,
      "inputs": [
        {
          "indexed": true,
          "internalType": "address",
          "name": "from",
          "type": "address"
        },
        {
          "indexed": true,
          "internalType": "address",
          "name": "to",
          "type": "address"
        },
        {
          "indexed": true,
          "internalType": "uint256",
          "name": "tokenId",
          "type": "uint256"
        }
      ],
      "name": "Transfer",
      "type": "event"
    },
    {
      "inputs": [
        {
          "internalType": "address",
          "name": "to",
          "type": "address"
        },
        {
          "internalType": "uint256",
          "name": "tokenId",
          "type": "uint256"
        }
      ],
      "name": "approve",
      "outputs": [],
      "stateMutability": "nonpayable",
      "type": "function"
    },
    {
      "inputs": [
        {
          "internalType": "address",
          "name": "owner",
          "type": "address"
        }
      ],
      "name": "balanceOf",
      "outputs": [
        {
          "internalType": "uint256",
          "name": "",
          "type": "uint256"
        }
      ],
      "stateMutability": "view",
      "type": "function"
    },
    {
      "inputs": [
        {
          "internalType": "uint256",
          "name": "tokenId",
          "type": "uint256"
        }
      ],
      "name": "buyMarketItem",
      "outputs": [],
      "stateMutability": "payable",
      "type": "function"
    },
    {
      "inputs": [
        {
          "internalType": "string",
          "name": "tokenURL",
          "type": "string"
        },
        {
          "internalType": "uint256",
          "name": "inputPrice",
          "type": "uint256"
        }
      ],
      "name": "createToken",
      "outputs": [
        {
          "internalType": "uint256",
          "name": "",
          "type": "uint256"
        }
      ],
      "stateMutability": "payable",
      "type": "function"
    },
    {
      "inputs": [],
      "name": "fetchMarketItem",
      "outputs": [
        {
          "components": [
            {
              "internalType": "uint256",
              "name": "tokenId",
              "type": "uint256"
            },
            {
              "internalType": "address payable",
              "name": "seller",
              "type": "address"
            },
            {
              "internalType": "address payable",
              "name": "owner",
              "type": "address"
            },
            {
              "internalType": "uint256",
              "name": "price",
              "type": "uint256"
            },
            {
              "internalType": "bool",
              "name": "sold",
              "type": "bool"
            }
          ],
          "internalType": "struct NFTMarketplace.MarketItem[]",
          "name": "",
          "type": "tuple[]"
        }
      ],
      "stateMutability": "view",
      "type": "function"
    },
    {
      "inputs": [
        {
          "internalType": "uint256",
          "name": "tokenId",
          "type": "uint256"
        }
      ],
      "name": "getApproved",
      "outputs": [
        {
          "internalType": "address",
          "name": "",
          "type": "address"
        }
      ],
      "stateMutability": "view",
      "type": "function"
    },
    {
      "inputs": [],
      "name": "getListingPrice",
      "outputs": [
        {
          "internalType": "uint256",
          "name": "",
          "type": "uint256"
        }
      ],
      "stateMutability": "view",
      "type": "function"
    },
    {
      "inputs": [
        {
          "internalType": "address",
          "name": "owner",
          "type": "address"
        },
        {
          "internalType": "address",
          "name": "operator",
          "type": "address"
        }
      ],
      "name": "isApprovedForAll",
      "outputs": [
        {
          "internalType": "bool",
          "name": "",
          "type": "bool"
        }
      ],
      "stateMutability": "view",
      "type": "function"
    },
    {
      "inputs": [],
      "name": "name",
      "outputs": [
        {
          "internalType": "string",
          "name": "",
          "type": "string"
        }
      ],
      "stateMutability": "view",
      "type": "function"
    },
    {
      "inputs": [
        {
          "internalType": "uint256",
          "name": "tokenId",
          "type": "uint256"
        }
      ],
      "name": "ownerOf",
      "outputs": [
        {
          "internalType": "address",
          "name": "",
          "type": "address"
        }
      ],
      "stateMutability": "view",
      "type": "function"
    },
    {
      "inputs": [
        {
          "internalType": "address",
          "name": "from",
          "type": "address"
        },
        {
          "internalType": "address",
          "name": "to",
          "type": "address"
        },
        {
          "internalType": "uint256",
          "name": "tokenId",
          "type": "uint256"
        }
      ],
      "name": "safeTransferFrom",
      "outputs": [],
      "stateMutability": "nonpayable",
      "type": "function"
    },
    {
      "inputs": [
        {
          "internalType": "address",
          "name": "from",
          "type": "address"
        },
        {
          "internalType": "address",
          "name": "to",
          "type": "address"
        },
        {
          "internalType": "uint256",
          "name": "tokenId",
          "type": "uint256"
        },
        {
          "internalType": "bytes",
          "name": "_data",
          "type": "bytes"
        }
      ],
      "name": "safeTransferFrom",
      "outputs": [],
      "stateMutability": "nonpayable",
      "type": "function"
    },
    {
      "inputs": [
        {
          "internalType": "address",
          "name": "operator",
          "type": "address"
        },
        {
          "internalType": "bool",
          "name": "approved",
          "type": "bool"
        }
      ],
      "name": "setApprovalForAll",
      "outputs": [],
      "stateMutability": "nonpayable",
      "type": "function"
    },
    {
      "inputs": [
        {
          "internalType": "bytes4",
          "name": "interfaceId",
          "type": "bytes4"
        }
      ],
      "name": "supportsInterface",
      "outputs": [
        {
          "internalType": "bool",
          "name": "",
          "type": "bool"
        }
      ],
      "stateMutability": "view",
      "type": "function"
    },
    {
      "inputs": [],
      "name": "symbol",
      "outputs": [
        {
          "internalType": "string",
          "name": "",
          "type": "string"
        }
      ],
      "stateMutability": "view",
      "type": "function"
    },
    {
      "inputs": [
        {
          "internalType": "uint256",
          "name": "tokenId",
          "type": "uint256"
        }
      ],
      "name": "tokenURI",
      "outputs": [
        {
          "internalType": "string",
          "name": "",
          "type": "string"
        }
      ],
      "stateMutability": "view",
      "type": "function"
    },
    {
      "inputs": [
        {
          "internalType": "address",
          "name": "from",
          "type": "address"
        },
        {
          "internalType": "address",
          "name": "to",
          "type": "address"
        },
        {
          "internalType": "uint256",
          "name": "tokenId",
          "type": "uint256"
        }
      ],
      "name": "transferFrom",
      "outputs": [],
      "stateMutability": "nonpayable",
      "type": "function"
    },
    {
      "inputs": [
        {
          "internalType": "uint256",
          "name": "_listingPrice",
          "type": "uint256"
        }
      ],
      "name": "updateListingPrice",
      "outputs": [],
      "stateMutability": "payable",
      "type": "function"
    }
  ],
  "bytecode": "0x60806040526701717b72f0a400006009553480156200001d57600080fd5b506040518060400160405280600c81526020017f667255495420546f6b656e7300000000000000000000000000000000000000008152506040518060400160405280600381526020017f55495400000000000000000000000000000000000000000000000000000000008152508160009080519060200190620000a292919062000105565b508060019080519060200190620000bb92919062000105565b50505033600a60006101000a81548173ffffffffffffffffffffffffffffffffffffffff021916908373ffffffffffffffffffffffffffffffffffffffff1602179055506200021a565b8280546200011390620001b5565b90600052602060002090601f01602090048101928262000137576000855562000183565b82601f106200015257805160ff191683800117855562000183565b8280016001018555821562000183579182015b828111156200018257825182559160200191906001019062000165565b5b50905062000192919062000196565b5090565b5b80821115620001b157600081600090555060010162000197565b5090565b60006002820490506001821680620001ce57607f821691505b60208210811415620001e557620001e4620001eb565b5b50919050565b7f4e487b7100000000000000000000000000000000000000000000000000000000600052602260045260246000fd5b6137db806200022a6000396000f3fe6080604052600436106101095760003560e01c806370a0823111610095578063a22cb46511610064578063a22cb46514610375578063ae677aa31461039e578063b88d4fde146103ba578063c87b56dd146103e3578063e985e9c51461042057610109565b806370a08231146102b257806372b3b620146102ef5780638fafd0211461031f57806395d89b411461034a57610109565b806312e85585116100dc57806312e85585146101dc57806323b872dd14610207578063351901c31461023057806342842e0e1461024c5780636352211e1461027557610109565b806301ffc9a71461010e57806306fdde031461014b578063081812fc14610176578063095ea7b3146101b3575b600080fd5b34801561011a57600080fd5b506101356004803603810190610130919061249a565b61045d565b6040516101429190612aad565b60405180910390f35b34801561015757600080fd5b5061016061053f565b60405161016d9190612ac8565b60405180910390f35b34801561018257600080fd5b5061019d60048036038101906101989190612540565b6105d1565b6040516101aa9190612a24565b60405180910390f35b3480156101bf57600080fd5b506101da60048036038101906101d5919061245e565b610656565b005b3480156101e857600080fd5b506101f161076e565b6040516101fe9190612d6a565b60405180910390f35b34801561021357600080fd5b5061022e60048036038101906102299190612358565b610778565b005b61024a60048036038101906102459190612540565b6107d8565b005b34801561025857600080fd5b50610273600480360381019061026e9190612358565b6109ba565b005b34801561028157600080fd5b5061029c60048036038101906102979190612540565b6109da565b6040516102a99190612a24565b60405180910390f35b3480156102be57600080fd5b506102d960048036038101906102d491906122f3565b610a8c565b6040516102e69190612d6a565b60405180910390f35b610309600480360381019061030491906124ec565b610b44565b6040516103169190612d6a565b60405180910390f35b34801561032b57600080fd5b50610334610b86565b6040516103419190612a8b565b60405180910390f35b34801561035657600080fd5b5061035f610e31565b60405161036c9190612ac8565b60405180910390f35b34801561038157600080fd5b5061039c60048036038101906103979190612422565b610ec3565b005b6103b860048036038101906103b39190612540565b610ed9565b005b3480156103c657600080fd5b506103e160048036038101906103dc91906123a7565b610f73565b005b3480156103ef57600080fd5b5061040a60048036038101906104059190612540565b610fd5565b6040516104179190612ac8565b60405180910390f35b34801561042c57600080fd5b506104476004803603810190610442919061231c565b611127565b6040516104549190612aad565b60405180910390f35b60007f80ac58cd000000000000000000000000000000000000000000000000000000007bffffffffffffffffffffffffffffffffffffffffffffffffffffffff1916827bffffffffffffffffffffffffffffffffffffffffffffffffffffffff1916148061052857507f5b5e139f000000000000000000000000000000000000000000000000000000007bffffffffffffffffffffffffffffffffffffffffffffffffffffffff1916827bffffffffffffffffffffffffffffffffffffffffffffffffffffffff1916145b806105385750610537826111bb565b5b9050919050565b60606000805461054e9061300b565b80601f016020809104026020016040519081016040528092919081815260200182805461057a9061300b565b80156105c75780601f1061059c576101008083540402835291602001916105c7565b820191906000526020600020905b8154815290600101906020018083116105aa57829003601f168201915b5050505050905090565b60006105dc82611225565b61061b576040517f08c379a000000000000000000000000000000000000000000000000000000000815260040161061290612cca565b60405180910390fd5b6004600083815260200190815260200160002060009054906101000a900473ffffffffffffffffffffffffffffffffffffffff169050919050565b6000610661826109da565b90508073ffffffffffffffffffffffffffffffffffffffff168373ffffffffffffffffffffffffffffffffffffffff1614156106d2576040517f08c379a00000000000000000000000000000000000000000000000000000000081526004016106c990612d0a565b60405180910390fd5b8073ffffffffffffffffffffffffffffffffffffffff166106f1611291565b73ffffffffffffffffffffffffffffffffffffffff161480610720575061071f8161071a611291565b611127565b5b61075f576040517f08c379a000000000000000000000000000000000000000000000000000000000815260040161075690612bea565b60405180910390fd5b6107698383611299565b505050565b6000600954905090565b610789610783611291565b82611352565b6107c8576040517f08c379a00000000000000000000000000000000000000000000000000000000081526004016107bf90612d2a565b60405180910390fd5b6107d3838383611430565b505050565b6000600b6000838152602001908152602001600020600301549050348114610835576040517f08c379a000000000000000000000000000000000000000000000000000000000815260040161082c90612aea565b60405180910390fd5b33600b600084815260200190815260200160002060020160006101000a81548173ffffffffffffffffffffffffffffffffffffffff021916908373ffffffffffffffffffffffffffffffffffffffff1602179055506001600b600084815260200190815260200160002060040160006101000a81548160ff0219169083151502179055506108c36008611697565b6108ce303384611430565b600a60009054906101000a900473ffffffffffffffffffffffffffffffffffffffff1673ffffffffffffffffffffffffffffffffffffffff166108fc6009549081150290604051600060405180830381858888f19350505050158015610938573d6000803e3d6000fd5b50600b600083815260200190815260200160002060010160009054906101000a900473ffffffffffffffffffffffffffffffffffffffff1673ffffffffffffffffffffffffffffffffffffffff166108fc349081150290604051600060405180830381858888f193505050501580156109b5573d6000803e3d6000fd5b505050565b6109d583838360405180602001604052806000815250610f73565b505050565b6000806002600084815260200190815260200160002060009054906101000a900473ffffffffffffffffffffffffffffffffffffffff169050600073ffffffffffffffffffffffffffffffffffffffff168173ffffffffffffffffffffffffffffffffffffffff161415610a83576040517f08c379a0000000000000000000000000000000000000000000000000000000008152600401610a7a90612c2a565b60405180910390fd5b80915050919050565b60008073ffffffffffffffffffffffffffffffffffffffff168273ffffffffffffffffffffffffffffffffffffffff161415610afd576040517f08c379a0000000000000000000000000000000000000000000000000000000008152600401610af490612c0a565b60405180910390fd5b600360008373ffffffffffffffffffffffffffffffffffffffff1673ffffffffffffffffffffffffffffffffffffffff168152602001908152602001600020549050919050565b6000610b506007611697565b6000610b5c60076116ad565b9050610b6833826116bb565b610b728185611895565b610b7c8184611909565b8091505092915050565b60606000610b9460076116ad565b90506000610ba260086116ad565b82610bad9190612f0f565b90506000808267ffffffffffffffff811115610bf2577f4e487b7100000000000000000000000000000000000000000000000000000000600052604160045260246000fd5b604051908082528060200260200182016040528015610c2b57816020015b610c186120ba565b815260200190600190039081610c105790505b50905060005b84811015610e26573073ffffffffffffffffffffffffffffffffffffffff16600b6000600184610c619190612e88565b815260200190815260200160002060020160009054906101000a900473ffffffffffffffffffffffffffffffffffffffff1673ffffffffffffffffffffffffffffffffffffffff161415610e13576000600182610cbe9190612e88565b90506000600b60008381526020019081526020016000206040518060a0016040529081600082015481526020016001820160009054906101000a900473ffffffffffffffffffffffffffffffffffffffff1673ffffffffffffffffffffffffffffffffffffffff1673ffffffffffffffffffffffffffffffffffffffff1681526020016002820160009054906101000a900473ffffffffffffffffffffffffffffffffffffffff1673ffffffffffffffffffffffffffffffffffffffff1673ffffffffffffffffffffffffffffffffffffffff168152602001600382015481526020016004820160009054906101000a900460ff161515151581525050905080848681518110610df7577f4e487b7100000000000000000000000000000000000000000000000000000000600052603260045260246000fd5b60200260200101819052508480610e0d9061306e565b95505050505b8080610e1e9061306e565b915050610c31565b508094505050505090565b606060018054610e409061300b565b80601f0160208091040260200160405190810160405280929190818152602001828054610e6c9061300b565b8015610eb95780601f10610e8e57610100808354040283529160200191610eb9565b820191906000526020600020905b815481529060010190602001808311610e9c57829003601f168201915b5050505050905090565b610ed5610ece611291565b8383611ac2565b5050565b3373ffffffffffffffffffffffffffffffffffffffff16600a60009054906101000a900473ffffffffffffffffffffffffffffffffffffffff1673ffffffffffffffffffffffffffffffffffffffff1614610f69576040517f08c379a0000000000000000000000000000000000000000000000000000000008152600401610f6090612baa565b60405180910390fd5b8060098190555050565b610f84610f7e611291565b83611352565b610fc3576040517f08c379a0000000000000000000000000000000000000000000000000000000008152600401610fba90612d2a565b60405180910390fd5b610fcf84848484611c2f565b50505050565b6060610fe082611225565b61101f576040517f08c379a000000000000000000000000000000000000000000000000000000000815260040161101690612caa565b60405180910390fd5b600060066000848152602001908152602001600020805461103f9061300b565b80601f016020809104026020016040519081016040528092919081815260200182805461106b9061300b565b80156110b85780601f1061108d576101008083540402835291602001916110b8565b820191906000526020600020905b81548152906001019060200180831161109b57829003601f168201915b5050505050905060006110c9611c8b565b90506000815114156110df578192505050611122565b6000825111156111145780826040516020016110fc929190612a00565b60405160208183030381529060405292505050611122565b61111d84611ca2565b925050505b919050565b6000600560008473ffffffffffffffffffffffffffffffffffffffff1673ffffffffffffffffffffffffffffffffffffffff16815260200190815260200160002060008373ffffffffffffffffffffffffffffffffffffffff1673ffffffffffffffffffffffffffffffffffffffff16815260200190815260200160002060009054906101000a900460ff16905092915050565b60007f01ffc9a7000000000000000000000000000000000000000000000000000000007bffffffffffffffffffffffffffffffffffffffffffffffffffffffff1916827bffffffffffffffffffffffffffffffffffffffffffffffffffffffff1916149050919050565b60008073ffffffffffffffffffffffffffffffffffffffff166002600084815260200190815260200160002060009054906101000a900473ffffffffffffffffffffffffffffffffffffffff1673ffffffffffffffffffffffffffffffffffffffff1614159050919050565b600033905090565b816004600083815260200190815260200160002060006101000a81548173ffffffffffffffffffffffffffffffffffffffff021916908373ffffffffffffffffffffffffffffffffffffffff160217905550808273ffffffffffffffffffffffffffffffffffffffff1661130c836109da565b73ffffffffffffffffffffffffffffffffffffffff167f8c5be1e5ebec7d5bd14f71427d1e84f3dd0314c0f7b2291e5b200ac8c7c3b92560405160405180910390a45050565b600061135d82611225565b61139c576040517f08c379a000000000000000000000000000000000000000000000000000000000815260040161139390612bca565b60405180910390fd5b60006113a7836109da565b90508073ffffffffffffffffffffffffffffffffffffffff168473ffffffffffffffffffffffffffffffffffffffff16148061141657508373ffffffffffffffffffffffffffffffffffffffff166113fe846105d1565b73ffffffffffffffffffffffffffffffffffffffff16145b8061142757506114268185611127565b5b91505092915050565b8273ffffffffffffffffffffffffffffffffffffffff16611450826109da565b73ffffffffffffffffffffffffffffffffffffffff16146114a6576040517f08c379a000000000000000000000000000000000000000000000000000000000815260040161149d90612b2a565b60405180910390fd5b600073ffffffffffffffffffffffffffffffffffffffff168273ffffffffffffffffffffffffffffffffffffffff161415611516576040517f08c379a000000000000000000000000000000000000000000000000000000000815260040161150d90612b6a565b60405180910390fd5b611521838383611d49565b61152c600082611299565b6001600360008573ffffffffffffffffffffffffffffffffffffffff1673ffffffffffffffffffffffffffffffffffffffff168152602001908152602001600020600082825461157c9190612f0f565b925050819055506001600360008473ffffffffffffffffffffffffffffffffffffffff1673ffffffffffffffffffffffffffffffffffffffff16815260200190815260200160002060008282546115d39190612e88565b92505081905550816002600083815260200190815260200160002060006101000a81548173ffffffffffffffffffffffffffffffffffffffff021916908373ffffffffffffffffffffffffffffffffffffffff160217905550808273ffffffffffffffffffffffffffffffffffffffff168473ffffffffffffffffffffffffffffffffffffffff167fddf252ad1be2c89b69c2b068fc378daa952ba7f163c4a11628f55a4df523b3ef60405160405180910390a4611692838383611d4e565b505050565b6001816000016000828254019250508190555050565b600081600001549050919050565b600073ffffffffffffffffffffffffffffffffffffffff168273ffffffffffffffffffffffffffffffffffffffff16141561172b576040517f08c379a000000000000000000000000000000000000000000000000000000000815260040161172290612c6a565b60405180910390fd5b61173481611225565b15611774576040517f08c379a000000000000000000000000000000000000000000000000000000000815260040161176b90612b4a565b60405180910390fd5b61178060008383611d49565b6001600360008473ffffffffffffffffffffffffffffffffffffffff1673ffffffffffffffffffffffffffffffffffffffff16815260200190815260200160002060008282546117d09190612e88565b92505081905550816002600083815260200190815260200160002060006101000a81548173ffffffffffffffffffffffffffffffffffffffff021916908373ffffffffffffffffffffffffffffffffffffffff160217905550808273ffffffffffffffffffffffffffffffffffffffff16600073ffffffffffffffffffffffffffffffffffffffff167fddf252ad1be2c89b69c2b068fc378daa952ba7f163c4a11628f55a4df523b3ef60405160405180910390a461189160008383611d4e565b5050565b61189e82611225565b6118dd576040517f08c379a00000000000000000000000000000000000000000000000000000000081526004016118d490612c4a565b60405180910390fd5b80600660008481526020019081526020016000209080519060200190611904929190612117565b505050565b6000811161194c576040517f08c379a000000000000000000000000000000000000000000000000000000000815260040161194390612c8a565b60405180910390fd5b6009543414611990576040517f08c379a000000000000000000000000000000000000000000000000000000000815260040161198790612d4a565b60405180910390fd5b6040518060a001604052808381526020013373ffffffffffffffffffffffffffffffffffffffff1681526020013073ffffffffffffffffffffffffffffffffffffffff16815260200182815260200160001515815250600b60008481526020019081526020016000206000820151816000015560208201518160010160006101000a81548173ffffffffffffffffffffffffffffffffffffffff021916908373ffffffffffffffffffffffffffffffffffffffff16021790555060408201518160020160006101000a81548173ffffffffffffffffffffffffffffffffffffffff021916908373ffffffffffffffffffffffffffffffffffffffff1602179055506060820151816003015560808201518160040160006101000a81548160ff0219169083151502179055509050505050565b8173ffffffffffffffffffffffffffffffffffffffff168373ffffffffffffffffffffffffffffffffffffffff161415611b31576040517f08c379a0000000000000000000000000000000000000000000000000000000008152600401611b2890612b8a565b60405180910390fd5b80600560008573ffffffffffffffffffffffffffffffffffffffff1673ffffffffffffffffffffffffffffffffffffffff16815260200190815260200160002060008473ffffffffffffffffffffffffffffffffffffffff1673ffffffffffffffffffffffffffffffffffffffff16815260200190815260200160002060006101000a81548160ff0219169083151502179055508173ffffffffffffffffffffffffffffffffffffffff168373ffffffffffffffffffffffffffffffffffffffff167f17307eab39ab6107e8899845ad3d59bd9653f200f220920489ca2b5937696c3183604051611c229190612aad565b60405180910390a3505050565b611c3a848484611430565b611c4684848484611d53565b611c85576040517f08c379a0000000000000000000000000000000000000000000000000000000008152600401611c7c90612b0a565b60405180910390fd5b50505050565b606060405180602001604052806000815250905090565b6060611cad82611225565b611cec576040517f08c379a0000000000000000000000000000000000000000000000000000000008152600401611ce390612cea565b60405180910390fd5b6000611cf6611c8b565b90506000815111611d165760405180602001604052806000815250611d41565b80611d2084611eea565b604051602001611d31929190612a00565b6040516020818303038152906040525b915050919050565b505050565b505050565b6000611d748473ffffffffffffffffffffffffffffffffffffffff16612097565b15611edd578373ffffffffffffffffffffffffffffffffffffffff1663150b7a02611d9d611291565b8786866040518563ffffffff1660e01b8152600401611dbf9493929190612a3f565b602060405180830381600087803b158015611dd957600080fd5b505af1925050508015611e0a57506040513d601f19601f82011682018060405250810190611e0791906124c3565b60015b611e8d573d8060008114611e3a576040519150601f19603f3d011682016040523d82523d6000602084013e611e3f565b606091505b50600081511415611e85576040517f08c379a0000000000000000000000000000000000000000000000000000000008152600401611e7c90612b0a565b60405180910390fd5b805181602001fd5b63150b7a0260e01b7bffffffffffffffffffffffffffffffffffffffffffffffffffffffff1916817bffffffffffffffffffffffffffffffffffffffffffffffffffffffff191614915050611ee2565b600190505b949350505050565b60606000821415611f32576040518060400160405280600181526020017f30000000000000000000000000000000000000000000000000000000000000008152509050612092565b600082905060005b60008214611f64578080611f4d9061306e565b915050600a82611f5d9190612ede565b9150611f3a565b60008167ffffffffffffffff811115611fa6577f4e487b7100000000000000000000000000000000000000000000000000000000600052604160045260246000fd5b6040519080825280601f01601f191660200182016040528015611fd85781602001600182028036833780820191505090505b5090505b6000851461208b57600182611ff19190612f0f565b9150600a8561200091906130b7565b603061200c9190612e88565b60f81b818381518110612048577f4e487b7100000000000000000000000000000000000000000000000000000000600052603260045260246000fd5b60200101907effffffffffffffffffffffffffffffffffffffffffffffffffffffffffffff1916908160001a905350600a856120849190612ede565b9450611fdc565b8093505050505b919050565b6000808273ffffffffffffffffffffffffffffffffffffffff163b119050919050565b6040518060a0016040528060008152602001600073ffffffffffffffffffffffffffffffffffffffff168152602001600073ffffffffffffffffffffffffffffffffffffffff168152602001600081526020016000151581525090565b8280546121239061300b565b90600052602060002090601f016020900481019282612145576000855561218c565b82601f1061215e57805160ff191683800117855561218c565b8280016001018555821561218c579182015b8281111561218b578251825591602001919060010190612170565b5b509050612199919061219d565b5090565b5b808211156121b657600081600090555060010161219e565b5090565b60006121cd6121c884612daa565b612d85565b9050828152602081018484840111156121e557600080fd5b6121f0848285612fc9565b509392505050565b600061220b61220684612ddb565b612d85565b90508281526020810184848401111561222357600080fd5b61222e848285612fc9565b509392505050565b60008135905061224581613749565b92915050565b60008135905061225a81613760565b92915050565b60008135905061226f81613777565b92915050565b60008151905061228481613777565b92915050565b600082601f83011261229b57600080fd5b81356122ab8482602086016121ba565b91505092915050565b600082601f8301126122c557600080fd5b81356122d58482602086016121f8565b91505092915050565b6000813590506122ed8161378e565b92915050565b60006020828403121561230557600080fd5b600061231384828501612236565b91505092915050565b6000806040838503121561232f57600080fd5b600061233d85828601612236565b925050602061234e85828601612236565b9150509250929050565b60008060006060848603121561236d57600080fd5b600061237b86828701612236565b935050602061238c86828701612236565b925050604061239d868287016122de565b9150509250925092565b600080600080608085870312156123bd57600080fd5b60006123cb87828801612236565b94505060206123dc87828801612236565b93505060406123ed878288016122de565b925050606085013567ffffffffffffffff81111561240a57600080fd5b6124168782880161228a565b91505092959194509250565b6000806040838503121561243557600080fd5b600061244385828601612236565b92505060206124548582860161224b565b9150509250929050565b6000806040838503121561247157600080fd5b600061247f85828601612236565b9250506020612490858286016122de565b9150509250929050565b6000602082840312156124ac57600080fd5b60006124ba84828501612260565b91505092915050565b6000602082840312156124d557600080fd5b60006124e384828501612275565b91505092915050565b600080604083850312156124ff57600080fd5b600083013567ffffffffffffffff81111561251957600080fd5b612525858286016122b4565b9250506020612536858286016122de565b9150509250929050565b60006020828403121561255257600080fd5b6000612560848285016122de565b91505092915050565b6000612575838361297a565b60a08301905092915050565b61258a81612f55565b82525050565b61259981612f43565b82525050565b60006125aa82612e1c565b6125b48185612e4a565b93506125bf83612e0c565b8060005b838110156125f05781516125d78882612569565b97506125e283612e3d565b9250506001810190506125c3565b5085935050505092915050565b61260681612f67565b82525050565b61261581612f67565b82525050565b600061262682612e27565b6126308185612e5b565b9350612640818560208601612fd8565b612649816131a4565b840191505092915050565b600061265f82612e32565b6126698185612e6c565b9350612679818560208601612fd8565b612682816131a4565b840191505092915050565b600061269882612e32565b6126a28185612e7d565b93506126b2818560208601612fd8565b80840191505092915050565b60006126cb603283612e6c565b91506126d6826131b5565b604082019050919050565b60006126ee603283612e6c565b91506126f982613204565b604082019050919050565b6000612711602583612e6c565b915061271c82613253565b604082019050919050565b6000612734601c83612e6c565b915061273f826132a2565b602082019050919050565b6000612757602483612e6c565b9150612762826132cb565b604082019050919050565b600061277a601983612e6c565b91506127858261331a565b602082019050919050565b600061279d603083612e6c565b91506127a882613343565b604082019050919050565b60006127c0602c83612e6c565b91506127cb82613392565b604082019050919050565b60006127e3603883612e6c565b91506127ee826133e1565b604082019050919050565b6000612806602a83612e6c565b915061281182613430565b604082019050919050565b6000612829602983612e6c565b91506128348261347f565b604082019050919050565b600061284c602e83612e6c565b9150612857826134ce565b604082019050919050565b600061286f602083612e6c565b915061287a8261351d565b602082019050919050565b6000612892601b83612e6c565b915061289d82613546565b602082019050919050565b60006128b5603183612e6c565b91506128c08261356f565b604082019050919050565b60006128d8602c83612e6c565b91506128e3826135be565b604082019050919050565b60006128fb602f83612e6c565b91506129068261360d565b604082019050919050565b600061291e602183612e6c565b91506129298261365c565b604082019050919050565b6000612941603183612e6c565b915061294c826136ab565b604082019050919050565b6000612964602b83612e6c565b915061296f826136fa565b604082019050919050565b60a08201600082015161299060008501826129e2565b5060208201516129a36020850182612581565b5060408201516129b66040850182612581565b5060608201516129c960608501826129e2565b5060808201516129dc60808501826125fd565b50505050565b6129eb81612fbf565b82525050565b6129fa81612fbf565b82525050565b6000612a0c828561268d565b9150612a18828461268d565b91508190509392505050565b6000602082019050612a396000830184612590565b92915050565b6000608082019050612a546000830187612590565b612a616020830186612590565b612a6e60408301856129f1565b8181036060830152612a80818461261b565b905095945050505050565b60006020820190508181036000830152612aa5818461259f565b905092915050565b6000602082019050612ac2600083018461260c565b92915050565b60006020820190508181036000830152612ae28184612654565b905092915050565b60006020820190508181036000830152612b03816126be565b9050919050565b60006020820190508181036000830152612b23816126e1565b9050919050565b60006020820190508181036000830152612b4381612704565b9050919050565b60006020820190508181036000830152612b6381612727565b9050919050565b60006020820190508181036000830152612b838161274a565b9050919050565b60006020820190508181036000830152612ba38161276d565b9050919050565b60006020820190508181036000830152612bc381612790565b9050919050565b60006020820190508181036000830152612be3816127b3565b9050919050565b60006020820190508181036000830152612c03816127d6565b9050919050565b60006020820190508181036000830152612c23816127f9565b9050919050565b60006020820190508181036000830152612c438161281c565b9050919050565b60006020820190508181036000830152612c638161283f565b9050919050565b60006020820190508181036000830152612c8381612862565b9050919050565b60006020820190508181036000830152612ca381612885565b9050919050565b60006020820190508181036000830152612cc3816128a8565b9050919050565b60006020820190508181036000830152612ce3816128cb565b9050919050565b60006020820190508181036000830152612d03816128ee565b9050919050565b60006020820190508181036000830152612d2381612911565b9050919050565b60006020820190508181036000830152612d4381612934565b9050919050565b60006020820190508181036000830152612d6381612957565b9050919050565b6000602082019050612d7f60008301846129f1565b92915050565b6000612d8f612da0565b9050612d9b828261303d565b919050565b6000604051905090565b600067ffffffffffffffff821115612dc557612dc4613175565b5b612dce826131a4565b9050602081019050919050565b600067ffffffffffffffff821115612df657612df5613175565b5b612dff826131a4565b9050602081019050919050565b6000819050602082019050919050565b600081519050919050565b600081519050919050565b600081519050919050565b6000602082019050919050565b600082825260208201905092915050565b600082825260208201905092915050565b600082825260208201905092915050565b600081905092915050565b6000612e9382612fbf565b9150612e9e83612fbf565b9250827fffffffffffffffffffffffffffffffffffffffffffffffffffffffffffffffff03821115612ed357612ed26130e8565b5b828201905092915050565b6000612ee982612fbf565b9150612ef483612fbf565b925082612f0457612f03613117565b5b828204905092915050565b6000612f1a82612fbf565b9150612f2583612fbf565b925082821015612f3857612f376130e8565b5b828203905092915050565b6000612f4e82612f9f565b9050919050565b6000612f6082612f9f565b9050919050565b60008115159050919050565b60007fffffffff0000000000000000000000000000000000000000000000000000000082169050919050565b600073ffffffffffffffffffffffffffffffffffffffff82169050919050565b6000819050919050565b82818337600083830152505050565b60005b83811015612ff6578082015181840152602081019050612fdb565b83811115613005576000848401525b50505050565b6000600282049050600182168061302357607f821691505b6020821081141561303757613036613146565b5b50919050565b613046826131a4565b810181811067ffffffffffffffff8211171561306557613064613175565b5b80604052505050565b600061307982612fbf565b91507fffffffffffffffffffffffffffffffffffffffffffffffffffffffffffffffff8214156130ac576130ab6130e8565b5b600182019050919050565b60006130c282612fbf565b91506130cd83612fbf565b9250826130dd576130dc613117565b5b828206905092915050565b7f4e487b7100000000000000000000000000000000000000000000000000000000600052601160045260246000fd5b7f4e487b7100000000000000000000000000000000000000000000000000000000600052601260045260246000fd5b7f4e487b7100000000000000000000000000000000000000000000000000000000600052602260045260246000fd5b7f4e487b7100000000000000000000000000000000000000000000000000000000600052604160045260246000fd5b6000601f19601f8301169050919050565b7f4d757374206861766520656e6f75676820746f6b656e7320746f20626520616260008201527f6c6520746f206275792074686973204e46540000000000000000000000000000602082015250565b7f4552433732313a207472616e7366657220746f206e6f6e20455243373231526560008201527f63656976657220696d706c656d656e7465720000000000000000000000000000602082015250565b7f4552433732313a207472616e736665722066726f6d20696e636f72726563742060008201527f6f776e6572000000000000000000000000000000000000000000000000000000602082015250565b7f4552433732313a20746f6b656e20616c7265616479206d696e74656400000000600082015250565b7f4552433732313a207472616e7366657220746f20746865207a65726f2061646460008201527f7265737300000000000000000000000000000000000000000000000000000000602082015250565b7f4552433732313a20617070726f766520746f2063616c6c657200000000000000600082015250565b7f52657175697265206d61726b65742773206f776e657220746f206368616e676560008201527f206c697374696e67207072696365202100000000000000000000000000000000602082015250565b7f4552433732313a206f70657261746f7220717565727920666f72206e6f6e657860008201527f697374656e7420746f6b656e0000000000000000000000000000000000000000602082015250565b7f4552433732313a20617070726f76652063616c6c6572206973206e6f74206f7760008201527f6e6572206e6f7220617070726f76656420666f7220616c6c0000000000000000602082015250565b7f4552433732313a2062616c616e636520717565727920666f7220746865207a6560008201527f726f206164647265737300000000000000000000000000000000000000000000602082015250565b7f4552433732313a206f776e657220717565727920666f72206e6f6e657869737460008201527f656e7420746f6b656e0000000000000000000000000000000000000000000000602082015250565b7f45524337323155524953746f726167653a2055524920736574206f66206e6f6e60008201527f6578697374656e7420746f6b656e000000000000000000000000000000000000602082015250565b7f4552433732313a206d696e7420746f20746865207a65726f2061646472657373600082015250565b7f5072696365206d75737420626520686967686572207468616e20300000000000600082015250565b7f45524337323155524953746f726167653a2055524920717565727920666f722060008201527f6e6f6e6578697374656e7420746f6b656e000000000000000000000000000000602082015250565b7f4552433732313a20617070726f76656420717565727920666f72206e6f6e657860008201527f697374656e7420746f6b656e0000000000000000000000000000000000000000602082015250565b7f4552433732314d657461646174613a2055524920717565727920666f72206e6f60008201527f6e6578697374656e7420746f6b656e0000000000000000000000000000000000602082015250565b7f4552433732313a20617070726f76616c20746f2063757272656e74206f776e6560008201527f7200000000000000000000000000000000000000000000000000000000000000602082015250565b7f4552433732313a207472616e736665722063616c6c6572206973206e6f74206f60008201527f776e6572206e6f7220617070726f766564000000000000000000000000000000602082015250565b7f4d757374206861766520656e6f75676820746f6b656e20746f20706179206c6960008201527f7374696e67207072696365000000000000000000000000000000000000000000602082015250565b61375281612f43565b811461375d57600080fd5b50565b61376981612f67565b811461377457600080fd5b50565b61378081612f73565b811461378b57600080fd5b50565b61379781612fbf565b81146137a257600080fd5b5056fea26469706673582212203a12083daad8cfba47bbf4f9db889944312b116d3772ad842eba161c468e43e064736f6c63430008040033",
  "linkReferences": {},
  "deployedLinkReferences": {}
}