{
  "_format": "hh-sol-artifact-1",
  "contractName": "NFTMarketplace",
  "sourceName": "contracts/NFTMarketplace.sol",
  "abi": [
    {
      "inputs": [],
      "stateMutability": "nonpayable",
      "type": "constructor"
    },
    {
      "anonymous": false,
      "inputs": [
        {
          "indexed": true,
          "internalType": "address",
          "name": "owner",
          "type": "address"
        },
        {
          "indexed": true,
          "internalType": "address",
          "name": "approved",
          "type": "address"
        },
        {
          "indexed": true,
          "internalType": "uint256",
          "name": "tokenId",
          "type": "uint256"
        }
      ],
      "name": "Approval",
      "type": "event"
    },
    {
      "anonymous": false,
      "inputs": [
        {
          "indexed": true,
          "internalType": "address",
          "name": "owner",
          "type": "address"
        },
        {
          "indexed": true,
          "internalType": "address",
          "name": "operator",
          "type": "address"
        },
        {
          "indexed": false,
          "internalType": "bool",
          "name": "approved",
          "type": "bool"
        }
      ],
      "name": "ApprovalForAll",
      "type": "event"
    },
    {
      "anonymous": false,
      "inputs": [
        {
          "indexed": true,
          "internalType": "uint256",
          "name": "tokenId",
          "type": "uint256"
        },
        {
          "indexed": false,
          "internalType": "address",
          "name": "seller",
          "type": "address"
        },
        {
          "indexed": false,
          "internalType": "address",
          "name": "owner",
          "type": "address"
        },
        {
          "indexed": false,
          "internalType": "uint256",
          "name": "price",
          "type": "uint256"
        },
        {
          "indexed": false,
          "internalType": "bool",
          "name": "sold",
          "type": "bool"
        }
      ],
      "name": "MarketItemCreated",
      "type": "event"
    },
    {
      "anonymous": false,
      "inputs": [
        {
          "indexed": true,
          "internalType": "address",
          "name": "from",
          "type": "address"
        },
        {
          "indexed": true,
          "internalType": "address",
          "name": "to",
          "type": "address"
        },
        {
          "indexed": true,
          "internalType": "uint256",
          "name": "tokenId",
          "type": "uint256"
        }
      ],
      "name": "Transfer",
      "type": "event"
    },
    {
      "inputs": [
        {
          "internalType": "address",
          "name": "to",
          "type": "address"
        },
        {
          "internalType": "uint256",
          "name": "tokenId",
          "type": "uint256"
        }
      ],
      "name": "approve",
      "outputs": [],
      "stateMutability": "nonpayable",
      "type": "function"
    },
    {
      "inputs": [
        {
          "internalType": "address",
          "name": "owner",
          "type": "address"
        }
      ],
      "name": "balanceOf",
      "outputs": [
        {
          "internalType": "uint256",
          "name": "",
          "type": "uint256"
        }
      ],
      "stateMutability": "view",
      "type": "function"
    },
    {
      "inputs": [
        {
          "internalType": "uint256",
          "name": "tokenId",
          "type": "uint256"
        }
      ],
      "name": "buyMarketItem",
      "outputs": [],
      "stateMutability": "payable",
      "type": "function"
    },
    {
      "inputs": [
        {
          "internalType": "string",
          "name": "tokenURL",
          "type": "string"
        },
        {
          "internalType": "uint256",
          "name": "inputPrice",
          "type": "uint256"
        }
      ],
      "name": "createToken",
      "outputs": [
        {
          "internalType": "uint256",
          "name": "",
          "type": "uint256"
        }
      ],
      "stateMutability": "payable",
      "type": "function"
    },
    {
      "inputs": [],
      "name": "fetchCollectionItem",
      "outputs": [
        {
          "components": [
            {
              "internalType": "uint256",
              "name": "tokenId",
              "type": "uint256"
            },
            {
              "internalType": "address payable",
              "name": "seller",
              "type": "address"
            },
            {
              "internalType": "address payable",
              "name": "owner",
              "type": "address"
            },
            {
              "internalType": "uint256",
              "name": "price",
              "type": "uint256"
            },
            {
              "internalType": "bool",
              "name": "sold",
              "type": "bool"
            }
          ],
          "internalType": "struct NFTMarketplace.MarketItem[]",
          "name": "",
          "type": "tuple[]"
        }
      ],
      "stateMutability": "view",
      "type": "function"
    },
    {
      "inputs": [],
      "name": "fetchListingItem",
      "outputs": [
        {
          "components": [
            {
              "internalType": "uint256",
              "name": "tokenId",
              "type": "uint256"
            },
            {
              "internalType": "address payable",
              "name": "seller",
              "type": "address"
            },
            {
              "internalType": "address payable",
              "name": "owner",
              "type": "address"
            },
            {
              "internalType": "uint256",
              "name": "price",
              "type": "uint256"
            },
            {
              "internalType": "bool",
              "name": "sold",
              "type": "bool"
            }
          ],
          "internalType": "struct NFTMarketplace.MarketItem[]",
          "name": "",
          "type": "tuple[]"
        }
      ],
      "stateMutability": "view",
      "type": "function"
    },
    {
      "inputs": [],
      "name": "fetchMarketItem",
      "outputs": [
        {
          "components": [
            {
              "internalType": "uint256",
              "name": "tokenId",
              "type": "uint256"
            },
            {
              "internalType": "address payable",
              "name": "seller",
              "type": "address"
            },
            {
              "internalType": "address payable",
              "name": "owner",
              "type": "address"
            },
            {
              "internalType": "uint256",
              "name": "price",
              "type": "uint256"
            },
            {
              "internalType": "bool",
              "name": "sold",
              "type": "bool"
            }
          ],
          "internalType": "struct NFTMarketplace.MarketItem[]",
          "name": "",
          "type": "tuple[]"
        }
      ],
      "stateMutability": "view",
      "type": "function"
    },
    {
      "inputs": [
        {
          "internalType": "uint256",
          "name": "tokenId",
          "type": "uint256"
        }
      ],
      "name": "getApproved",
      "outputs": [
        {
          "internalType": "address",
          "name": "",
          "type": "address"
        }
      ],
      "stateMutability": "view",
      "type": "function"
    },
    {
      "inputs": [],
      "name": "getListingPrice",
      "outputs": [
        {
          "internalType": "uint256",
          "name": "",
          "type": "uint256"
        }
      ],
      "stateMutability": "view",
      "type": "function"
    },
    {
      "inputs": [
        {
          "internalType": "address",
          "name": "owner",
          "type": "address"
        },
        {
          "internalType": "address",
          "name": "operator",
          "type": "address"
        }
      ],
      "name": "isApprovedForAll",
      "outputs": [
        {
          "internalType": "bool",
          "name": "",
          "type": "bool"
        }
      ],
      "stateMutability": "view",
      "type": "function"
    },
    {
      "inputs": [],
      "name": "name",
      "outputs": [
        {
          "internalType": "string",
          "name": "",
          "type": "string"
        }
      ],
      "stateMutability": "view",
      "type": "function"
    },
    {
      "inputs": [
        {
          "internalType": "uint256",
          "name": "tokenId",
          "type": "uint256"
        }
      ],
      "name": "ownerOf",
      "outputs": [
        {
          "internalType": "address",
          "name": "",
          "type": "address"
        }
      ],
      "stateMutability": "view",
      "type": "function"
    },
    {
      "inputs": [
        {
          "internalType": "address",
          "name": "from",
          "type": "address"
        },
        {
          "internalType": "address",
          "name": "to",
          "type": "address"
        },
        {
          "internalType": "uint256",
          "name": "tokenId",
          "type": "uint256"
        }
      ],
      "name": "safeTransferFrom",
      "outputs": [],
      "stateMutability": "nonpayable",
      "type": "function"
    },
    {
      "inputs": [
        {
          "internalType": "address",
          "name": "from",
          "type": "address"
        },
        {
          "internalType": "address",
          "name": "to",
          "type": "address"
        },
        {
          "internalType": "uint256",
          "name": "tokenId",
          "type": "uint256"
        },
        {
          "internalType": "bytes",
          "name": "data",
          "type": "bytes"
        }
      ],
      "name": "safeTransferFrom",
      "outputs": [],
      "stateMutability": "nonpayable",
      "type": "function"
    },
    {
      "inputs": [
        {
          "internalType": "address",
          "name": "operator",
          "type": "address"
        },
        {
          "internalType": "bool",
          "name": "approved",
          "type": "bool"
        }
      ],
      "name": "setApprovalForAll",
      "outputs": [],
      "stateMutability": "nonpayable",
      "type": "function"
    },
    {
      "inputs": [
        {
          "internalType": "bytes4",
          "name": "interfaceId",
          "type": "bytes4"
        }
      ],
      "name": "supportsInterface",
      "outputs": [
        {
          "internalType": "bool",
          "name": "",
          "type": "bool"
        }
      ],
      "stateMutability": "view",
      "type": "function"
    },
    {
      "inputs": [],
      "name": "symbol",
      "outputs": [
        {
          "internalType": "string",
          "name": "",
          "type": "string"
        }
      ],
      "stateMutability": "view",
      "type": "function"
    },
    {
      "inputs": [
        {
          "internalType": "uint256",
          "name": "tokenId",
          "type": "uint256"
        }
      ],
      "name": "tokenURI",
      "outputs": [
        {
          "internalType": "string",
          "name": "",
          "type": "string"
        }
      ],
      "stateMutability": "view",
      "type": "function"
    },
    {
      "inputs": [
        {
          "internalType": "address",
          "name": "from",
          "type": "address"
        },
        {
          "internalType": "address",
          "name": "to",
          "type": "address"
        },
        {
          "internalType": "uint256",
          "name": "tokenId",
          "type": "uint256"
        }
      ],
      "name": "transferFrom",
      "outputs": [],
      "stateMutability": "nonpayable",
      "type": "function"
    },
    {
      "inputs": [
        {
          "internalType": "uint256",
          "name": "_listingPrice",
          "type": "uint256"
        }
      ],
      "name": "updateListingPrice",
      "outputs": [],
      "stateMutability": "payable",
      "type": "function"
    }
  ],
  "bytecode": "0x60806040526701717b72f0a400006009553480156200001d57600080fd5b506040518060400160405280600c81526020017f667255495420546f6b656e7300000000000000000000000000000000000000008152506040518060400160405280600381526020017f55495400000000000000000000000000000000000000000000000000000000008152508160009080519060200190620000a292919062000105565b508060019080519060200190620000bb92919062000105565b50505033600a60006101000a81548173ffffffffffffffffffffffffffffffffffffffff021916908373ffffffffffffffffffffffffffffffffffffffff1602179055506200021a565b8280546200011390620001b5565b90600052602060002090601f01602090048101928262000137576000855562000183565b82601f106200015257805160ff191683800117855562000183565b8280016001018555821562000183579182015b828111156200018257825182559160200191906001019062000165565b5b50905062000192919062000196565b5090565b5b80821115620001b157600081600090555060010162000197565b5090565b60006002820490506001821680620001ce57607f821691505b60208210811415620001e557620001e4620001eb565b5b50919050565b7f4e487b7100000000000000000000000000000000000000000000000000000000600052602260045260246000fd5b613f1a806200022a6000396000f3fe60806040526004361061011f5760003560e01c80636352211e116100a0578063a22cb46511610064578063a22cb465146103e1578063ae677aa31461040a578063b88d4fde14610426578063c87b56dd1461044f578063e985e9c51461048c5761011f565b80636352211e146102e157806370a082311461031e57806372b3b6201461035b5780638fafd0211461038b57806395d89b41146103b65761011f565b8063157f6ef5116100e7578063157f6ef51461021d57806323b872dd14610248578063351901c31461027157806342842e0e1461028d5780635bef6045146102b65761011f565b806301ffc9a71461012457806306fdde0314610161578063081812fc1461018c578063095ea7b3146101c957806312e85585146101f2575b600080fd5b34801561013057600080fd5b5061014b60048036038101906101469190612e93565b6104c9565b604051610158919061345f565b60405180910390f35b34801561016d57600080fd5b506101766105ab565b604051610183919061347a565b60405180910390f35b34801561019857600080fd5b506101b360048036038101906101ae9190612f39565b61063d565b6040516101c09190613391565b60405180910390f35b3480156101d557600080fd5b506101f060048036038101906101eb9190612e57565b610683565b005b3480156101fe57600080fd5b5061020761079b565b604051610214919061369c565b60405180910390f35b34801561022957600080fd5b506102326107a5565b60405161023f919061343d565b60405180910390f35b34801561025457600080fd5b5061026f600480360381019061026a9190612d51565b610add565b005b61028b60048036038101906102869190612f39565b610b3d565b005b34801561029957600080fd5b506102b460048036038101906102af9190612d51565b610d1f565b005b3480156102c257600080fd5b506102cb610d3f565b6040516102d8919061343d565b60405180910390f35b3480156102ed57600080fd5b5061030860048036038101906103039190612f39565b611077565b6040516103159190613391565b60405180910390f35b34801561032a57600080fd5b5061034560048036038101906103409190612cec565b6110fe565b604051610352919061369c565b60405180910390f35b61037560048036038101906103709190612ee5565b6111b6565b604051610382919061369c565b60405180910390f35b34801561039757600080fd5b506103a06111f8565b6040516103ad919061343d565b60405180910390f35b3480156103c257600080fd5b506103cb6114a3565b6040516103d8919061347a565b60405180910390f35b3480156103ed57600080fd5b5061040860048036038101906104039190612e1b565b611535565b005b610424600480360381019061041f9190612f39565b61154b565b005b34801561043257600080fd5b5061044d60048036038101906104489190612da0565b6115e5565b005b34801561045b57600080fd5b5061047660048036038101906104719190612f39565b611647565b604051610483919061347a565b60405180910390f35b34801561049857600080fd5b506104b360048036038101906104ae9190612d15565b61175a565b6040516104c0919061345f565b60405180910390f35b60007f80ac58cd000000000000000000000000000000000000000000000000000000007bffffffffffffffffffffffffffffffffffffffffffffffffffffffff1916827bffffffffffffffffffffffffffffffffffffffffffffffffffffffff1916148061059457507f5b5e139f000000000000000000000000000000000000000000000000000000007bffffffffffffffffffffffffffffffffffffffffffffffffffffffff1916827bffffffffffffffffffffffffffffffffffffffffffffffffffffffff1916145b806105a457506105a3826117ee565b5b9050919050565b6060600080546105ba9061390c565b80601f01602080910402602001604051908101604052809291908181526020018280546105e69061390c565b80156106335780601f1061060857610100808354040283529160200191610633565b820191906000526020600020905b81548152906001019060200180831161061657829003601f168201915b5050505050905090565b600061064882611858565b6004600083815260200190815260200160002060009054906101000a900473ffffffffffffffffffffffffffffffffffffffff169050919050565b600061068e82611077565b90508073ffffffffffffffffffffffffffffffffffffffff168373ffffffffffffffffffffffffffffffffffffffff1614156106ff576040517f08c379a00000000000000000000000000000000000000000000000000000000081526004016106f69061363c565b60405180910390fd5b8073ffffffffffffffffffffffffffffffffffffffff1661071e6118a3565b73ffffffffffffffffffffffffffffffffffffffff16148061074d575061074c816107476118a3565b61175a565b5b61078c576040517f08c379a00000000000000000000000000000000000000000000000000000000081526004016107839061365c565b60405180910390fd5b61079683836118ab565b505050565b6000600954905090565b606060006107b36007611964565b905060008060005b8381101561085b573373ffffffffffffffffffffffffffffffffffffffff16600b60006001846107eb91906137ba565b815260200190815260200160002060020160009054906101000a900473ffffffffffffffffffffffffffffffffffffffff1673ffffffffffffffffffffffffffffffffffffffff1614156108485781806108449061396f565b9250505b80806108539061396f565b9150506107bb565b5060008167ffffffffffffffff81111561089e577f4e487b7100000000000000000000000000000000000000000000000000000000600052604160045260246000fd5b6040519080825280602002602001820160405280156108d757816020015b6108c4612ab3565b8152602001906001900390816108bc5790505b50905060005b84811015610ad2573373ffffffffffffffffffffffffffffffffffffffff16600b600060018461090d91906137ba565b815260200190815260200160002060020160009054906101000a900473ffffffffffffffffffffffffffffffffffffffff1673ffffffffffffffffffffffffffffffffffffffff161415610abf57600060018261096a91906137ba565b90506000600b60008381526020019081526020016000206040518060a0016040529081600082015481526020016001820160009054906101000a900473ffffffffffffffffffffffffffffffffffffffff1673ffffffffffffffffffffffffffffffffffffffff1673ffffffffffffffffffffffffffffffffffffffff1681526020016002820160009054906101000a900473ffffffffffffffffffffffffffffffffffffffff1673ffffffffffffffffffffffffffffffffffffffff1673ffffffffffffffffffffffffffffffffffffffff168152602001600382015481526020016004820160009054906101000a900460ff161515151581525050905080848781518110610aa3577f4e487b7100000000000000000000000000000000000000000000000000000000600052603260045260246000fd5b60200260200101819052508580610ab99061396f565b96505050505b8080610aca9061396f565b9150506108dd565b508094505050505090565b610aee610ae86118a3565b82611972565b610b2d576040517f08c379a0000000000000000000000000000000000000000000000000000000008152600401610b249061349c565b60405180910390fd5b610b38838383611a07565b505050565b6000600b6000838152602001908152602001600020600301549050348114610b9a576040517f08c379a0000000000000000000000000000000000000000000000000000000008152600401610b91906134bc565b60405180910390fd5b33600b600084815260200190815260200160002060020160006101000a81548173ffffffffffffffffffffffffffffffffffffffff021916908373ffffffffffffffffffffffffffffffffffffffff1602179055506001600b600084815260200190815260200160002060040160006101000a81548160ff021916908315150217905550610c286008611d01565b610c33303384611a07565b600a60009054906101000a900473ffffffffffffffffffffffffffffffffffffffff1673ffffffffffffffffffffffffffffffffffffffff166108fc6009549081150290604051600060405180830381858888f19350505050158015610c9d573d6000803e3d6000fd5b50600b600083815260200190815260200160002060010160009054906101000a900473ffffffffffffffffffffffffffffffffffffffff1673ffffffffffffffffffffffffffffffffffffffff166108fc349081150290604051600060405180830381858888f19350505050158015610d1a573d6000803e3d6000fd5b505050565b610d3a838383604051806020016040528060008152506115e5565b505050565b60606000610d4d6007611964565b905060008060005b83811015610df5573373ffffffffffffffffffffffffffffffffffffffff16600b6000600184610d8591906137ba565b815260200190815260200160002060010160009054906101000a900473ffffffffffffffffffffffffffffffffffffffff1673ffffffffffffffffffffffffffffffffffffffff161415610de2578180610dde9061396f565b9250505b8080610ded9061396f565b915050610d55565b5060008167ffffffffffffffff811115610e38577f4e487b7100000000000000000000000000000000000000000000000000000000600052604160045260246000fd5b604051908082528060200260200182016040528015610e7157816020015b610e5e612ab3565b815260200190600190039081610e565790505b50905060005b8481101561106c573373ffffffffffffffffffffffffffffffffffffffff16600b6000600184610ea791906137ba565b815260200190815260200160002060010160009054906101000a900473ffffffffffffffffffffffffffffffffffffffff1673ffffffffffffffffffffffffffffffffffffffff161415611059576000600182610f0491906137ba565b90506000600b60008381526020019081526020016000206040518060a0016040529081600082015481526020016001820160009054906101000a900473ffffffffffffffffffffffffffffffffffffffff1673ffffffffffffffffffffffffffffffffffffffff1673ffffffffffffffffffffffffffffffffffffffff1681526020016002820160009054906101000a900473ffffffffffffffffffffffffffffffffffffffff1673ffffffffffffffffffffffffffffffffffffffff1673ffffffffffffffffffffffffffffffffffffffff168152602001600382015481526020016004820160009054906101000a900460ff16151515158152505090508084878151811061103d577f4e487b7100000000000000000000000000000000000000000000000000000000600052603260045260246000fd5b602002602001018190525085806110539061396f565b96505050505b80806110649061396f565b915050610e77565b508094505050505090565b60008061108383611d17565b9050600073ffffffffffffffffffffffffffffffffffffffff168173ffffffffffffffffffffffffffffffffffffffff1614156110f5576040517f08c379a00000000000000000000000000000000000000000000000000000000081526004016110ec9061361c565b60405180910390fd5b80915050919050565b60008073ffffffffffffffffffffffffffffffffffffffff168273ffffffffffffffffffffffffffffffffffffffff16141561116f576040517f08c379a00000000000000000000000000000000000000000000000000000000081526004016111669061359c565b60405180910390fd5b600360008373ffffffffffffffffffffffffffffffffffffffff1673ffffffffffffffffffffffffffffffffffffffff168152602001908152602001600020549050919050565b60006111c26007611d01565b60006111ce6007611964565b90506111da3382611d54565b6111e48185611f72565b6111ee8184611fe6565b8091505092915050565b606060006112066007611964565b905060006112146008611964565b8261121f9190613810565b90506000808267ffffffffffffffff811115611264577f4e487b7100000000000000000000000000000000000000000000000000000000600052604160045260246000fd5b60405190808252806020026020018201604052801561129d57816020015b61128a612ab3565b8152602001906001900390816112825790505b50905060005b84811015611498573073ffffffffffffffffffffffffffffffffffffffff16600b60006001846112d391906137ba565b815260200190815260200160002060020160009054906101000a900473ffffffffffffffffffffffffffffffffffffffff1673ffffffffffffffffffffffffffffffffffffffff16141561148557600060018261133091906137ba565b90506000600b60008381526020019081526020016000206040518060a0016040529081600082015481526020016001820160009054906101000a900473ffffffffffffffffffffffffffffffffffffffff1673ffffffffffffffffffffffffffffffffffffffff1673ffffffffffffffffffffffffffffffffffffffff1681526020016002820160009054906101000a900473ffffffffffffffffffffffffffffffffffffffff1673ffffffffffffffffffffffffffffffffffffffff1673ffffffffffffffffffffffffffffffffffffffff168152602001600382015481526020016004820160009054906101000a900460ff161515151581525050905080848681518110611469577f4e487b7100000000000000000000000000000000000000000000000000000000600052603260045260246000fd5b6020026020010181905250848061147f9061396f565b95505050505b80806114909061396f565b9150506112a3565b508094505050505090565b6060600180546114b29061390c565b80601f01602080910402602001604051908101604052809291908181526020018280546114de9061390c565b801561152b5780601f106115005761010080835404028352916020019161152b565b820191906000526020600020905b81548152906001019060200180831161150e57829003601f168201915b5050505050905090565b6115476115406118a3565b83836121e9565b5050565b3373ffffffffffffffffffffffffffffffffffffffff16600a60009054906101000a900473ffffffffffffffffffffffffffffffffffffffff1673ffffffffffffffffffffffffffffffffffffffff16146115db576040517f08c379a00000000000000000000000000000000000000000000000000000000081526004016115d29061357c565b60405180910390fd5b8060098190555050565b6115f66115f06118a3565b83611972565b611635576040517f08c379a000000000000000000000000000000000000000000000000000000000815260040161162c9061349c565b60405180910390fd5b61164184848484612356565b50505050565b606061165282611858565b60006006600084815260200190815260200160002080546116729061390c565b80601f016020809104026020016040519081016040528092919081815260200182805461169e9061390c565b80156116eb5780601f106116c0576101008083540402835291602001916116eb565b820191906000526020600020905b8154815290600101906020018083116116ce57829003601f168201915b5050505050905060006116fc6123b2565b9050600081511415611712578192505050611755565b60008251111561174757808260405160200161172f92919061336d565b60405160208183030381529060405292505050611755565b611750846123c9565b925050505b919050565b6000600560008473ffffffffffffffffffffffffffffffffffffffff1673ffffffffffffffffffffffffffffffffffffffff16815260200190815260200160002060008373ffffffffffffffffffffffffffffffffffffffff1673ffffffffffffffffffffffffffffffffffffffff16815260200190815260200160002060009054906101000a900460ff16905092915050565b60007f01ffc9a7000000000000000000000000000000000000000000000000000000007bffffffffffffffffffffffffffffffffffffffffffffffffffffffff1916827bffffffffffffffffffffffffffffffffffffffffffffffffffffffff1916149050919050565b61186181612431565b6118a0576040517f08c379a00000000000000000000000000000000000000000000000000000000081526004016118979061361c565b60405180910390fd5b50565b600033905090565b816004600083815260200190815260200160002060006101000a81548173ffffffffffffffffffffffffffffffffffffffff021916908373ffffffffffffffffffffffffffffffffffffffff160217905550808273ffffffffffffffffffffffffffffffffffffffff1661191e83611077565b73ffffffffffffffffffffffffffffffffffffffff167f8c5be1e5ebec7d5bd14f71427d1e84f3dd0314c0f7b2291e5b200ac8c7c3b92560405160405180910390a45050565b600081600001549050919050565b60008061197e83611077565b90508073ffffffffffffffffffffffffffffffffffffffff168473ffffffffffffffffffffffffffffffffffffffff1614806119c057506119bf818561175a565b5b806119fe57508373ffffffffffffffffffffffffffffffffffffffff166119e68461063d565b73ffffffffffffffffffffffffffffffffffffffff16145b91505092915050565b8273ffffffffffffffffffffffffffffffffffffffff16611a2782611077565b73ffffffffffffffffffffffffffffffffffffffff1614611a7d576040517f08c379a0000000000000000000000000000000000000000000000000000000008152600401611a74906134fc565b60405180910390fd5b600073ffffffffffffffffffffffffffffffffffffffff168273ffffffffffffffffffffffffffffffffffffffff161415611aed576040517f08c379a0000000000000000000000000000000000000000000000000000000008152600401611ae49061353c565b60405180910390fd5b611afa8383836001612472565b8273ffffffffffffffffffffffffffffffffffffffff16611b1a82611077565b73ffffffffffffffffffffffffffffffffffffffff1614611b70576040517f08c379a0000000000000000000000000000000000000000000000000000000008152600401611b67906134fc565b60405180910390fd5b6004600082815260200190815260200160002060006101000a81549073ffffffffffffffffffffffffffffffffffffffff02191690556001600360008573ffffffffffffffffffffffffffffffffffffffff1673ffffffffffffffffffffffffffffffffffffffff168152602001908152602001600020600082825403925050819055506001600360008473ffffffffffffffffffffffffffffffffffffffff1673ffffffffffffffffffffffffffffffffffffffff16815260200190815260200160002060008282540192505081905550816002600083815260200190815260200160002060006101000a81548173ffffffffffffffffffffffffffffffffffffffff021916908373ffffffffffffffffffffffffffffffffffffffff160217905550808273ffffffffffffffffffffffffffffffffffffffff168473ffffffffffffffffffffffffffffffffffffffff167fddf252ad1be2c89b69c2b068fc378daa952ba7f163c4a11628f55a4df523b3ef60405160405180910390a4611cfc8383836001612598565b505050565b6001816000016000828254019250508190555050565b60006002600083815260200190815260200160002060009054906101000a900473ffffffffffffffffffffffffffffffffffffffff169050919050565b600073ffffffffffffffffffffffffffffffffffffffff168273ffffffffffffffffffffffffffffffffffffffff161415611dc4576040517f08c379a0000000000000000000000000000000000000000000000000000000008152600401611dbb906135dc565b60405180910390fd5b611dcd81612431565b15611e0d576040517f08c379a0000000000000000000000000000000000000000000000000000000008152600401611e049061351c565b60405180910390fd5b611e1b600083836001612472565b611e2481612431565b15611e64576040517f08c379a0000000000000000000000000000000000000000000000000000000008152600401611e5b9061351c565b60405180910390fd5b6001600360008473ffffffffffffffffffffffffffffffffffffffff1673ffffffffffffffffffffffffffffffffffffffff16815260200190815260200160002060008282540192505081905550816002600083815260200190815260200160002060006101000a81548173ffffffffffffffffffffffffffffffffffffffff021916908373ffffffffffffffffffffffffffffffffffffffff160217905550808273ffffffffffffffffffffffffffffffffffffffff16600073ffffffffffffffffffffffffffffffffffffffff167fddf252ad1be2c89b69c2b068fc378daa952ba7f163c4a11628f55a4df523b3ef60405160405180910390a4611f6e600083836001612598565b5050565b611f7b82612431565b611fba576040517f08c379a0000000000000000000000000000000000000000000000000000000008152600401611fb1906135bc565b60405180910390fd5b80600660008481526020019081526020016000209080519060200190611fe1929190612b10565b505050565b60008111612029576040517f08c379a0000000000000000000000000000000000000000000000000000000008152600401612020906135fc565b60405180910390fd5b600954341461206d576040517f08c379a00000000000000000000000000000000000000000000000000000000081526004016120649061367c565b60405180910390fd5b6040518060a001604052808381526020013373ffffffffffffffffffffffffffffffffffffffff1681526020013073ffffffffffffffffffffffffffffffffffffffff16815260200182815260200160001515815250600b60008481526020019081526020016000206000820151816000015560208201518160010160006101000a81548173ffffffffffffffffffffffffffffffffffffffff021916908373ffffffffffffffffffffffffffffffffffffffff16021790555060408201518160020160006101000a81548173ffffffffffffffffffffffffffffffffffffffff021916908373ffffffffffffffffffffffffffffffffffffffff1602179055506060820151816003015560808201518160040160006101000a81548160ff0219169083151502179055509050506121a6333084611a07565b817fb640004f1d14576d0c209e240cad0410e0d8c0c33a09375861fbadae2588a98d33308460006040516121dd94939291906133ac565b60405180910390a25050565b8173ffffffffffffffffffffffffffffffffffffffff168373ffffffffffffffffffffffffffffffffffffffff161415612258576040517f08c379a000000000000000000000000000000000000000000000000000000000815260040161224f9061355c565b60405180910390fd5b80600560008573ffffffffffffffffffffffffffffffffffffffff1673ffffffffffffffffffffffffffffffffffffffff16815260200190815260200160002060008473ffffffffffffffffffffffffffffffffffffffff1673ffffffffffffffffffffffffffffffffffffffff16815260200190815260200160002060006101000a81548160ff0219169083151502179055508173ffffffffffffffffffffffffffffffffffffffff168373ffffffffffffffffffffffffffffffffffffffff167f17307eab39ab6107e8899845ad3d59bd9653f200f220920489ca2b5937696c3183604051612349919061345f565b60405180910390a3505050565b612361848484611a07565b61236d8484848461259e565b6123ac576040517f08c379a00000000000000000000000000000000000000000000000000000000081526004016123a3906134dc565b60405180910390fd5b50505050565b606060405180602001604052806000815250905090565b60606123d482611858565b60006123de6123b2565b905060008151116123fe5760405180602001604052806000815250612429565b8061240884612735565b60405160200161241992919061336d565b6040516020818303038152906040525b915050919050565b60008073ffffffffffffffffffffffffffffffffffffffff1661245383611d17565b73ffffffffffffffffffffffffffffffffffffffff1614159050919050565b600181111561259257600073ffffffffffffffffffffffffffffffffffffffff168473ffffffffffffffffffffffffffffffffffffffff16146125065780600360008673ffffffffffffffffffffffffffffffffffffffff1673ffffffffffffffffffffffffffffffffffffffff16815260200190815260200160002060008282546124fe9190613810565b925050819055505b600073ffffffffffffffffffffffffffffffffffffffff168373ffffffffffffffffffffffffffffffffffffffff16146125915780600360008573ffffffffffffffffffffffffffffffffffffffff1673ffffffffffffffffffffffffffffffffffffffff168152602001908152602001600020600082825461258991906137ba565b925050819055505b5b50505050565b50505050565b60006125bf8473ffffffffffffffffffffffffffffffffffffffff16612859565b15612728578373ffffffffffffffffffffffffffffffffffffffff1663150b7a026125e86118a3565b8786866040518563ffffffff1660e01b815260040161260a94939291906133f1565b602060405180830381600087803b15801561262457600080fd5b505af192505050801561265557506040513d601f19601f820116820180604052508101906126529190612ebc565b60015b6126d8573d8060008114612685576040519150601f19603f3d011682016040523d82523d6000602084013e61268a565b606091505b506000815114156126d0576040517f08c379a00000000000000000000000000000000000000000000000000000000081526004016126c7906134dc565b60405180910390fd5b805181602001fd5b63150b7a0260e01b7bffffffffffffffffffffffffffffffffffffffffffffffffffffffff1916817bffffffffffffffffffffffffffffffffffffffffffffffffffffffff19161491505061272d565b600190505b949350505050565b6060600060016127448461287c565b01905060008167ffffffffffffffff811115612789577f4e487b7100000000000000000000000000000000000000000000000000000000600052604160045260246000fd5b6040519080825280601f01601f1916602001820160405280156127bb5781602001600182028036833780820191505090505b509050600082602001820190505b60011561284e578080600190039150507f3031323334353637383961626364656600000000000000000000000000000000600a86061a8153600a8581612838577f4e487b7100000000000000000000000000000000000000000000000000000000600052601260045260246000fd5b04945060008514156128495761284e565b6127c9565b819350505050919050565b6000808273ffffffffffffffffffffffffffffffffffffffff163b119050919050565b600080600090507a184f03e93ff9f4daa797ed6e38ed64bf6a1f0100000000000000008310612900577a184f03e93ff9f4daa797ed6e38ed64bf6a1f01000000000000000083816128f6577f4e487b7100000000000000000000000000000000000000000000000000000000600052601260045260246000fd5b0492506040810190505b6d04ee2d6d415b85acef81000000008310612963576d04ee2d6d415b85acef81000000008381612959577f4e487b7100000000000000000000000000000000000000000000000000000000600052601260045260246000fd5b0492506020810190505b662386f26fc1000083106129b857662386f26fc1000083816129ae577f4e487b7100000000000000000000000000000000000000000000000000000000600052601260045260246000fd5b0492506010810190505b6305f5e1008310612a07576305f5e10083816129fd577f4e487b7100000000000000000000000000000000000000000000000000000000600052601260045260246000fd5b0492506008810190505b6127108310612a52576127108381612a48577f4e487b7100000000000000000000000000000000000000000000000000000000600052601260045260246000fd5b0492506004810190505b60648310612a9b5760648381612a91577f4e487b7100000000000000000000000000000000000000000000000000000000600052601260045260246000fd5b0492506002810190505b600a8310612aaa576001810190505b80915050919050565b6040518060a0016040528060008152602001600073ffffffffffffffffffffffffffffffffffffffff168152602001600073ffffffffffffffffffffffffffffffffffffffff168152602001600081526020016000151581525090565b828054612b1c9061390c565b90600052602060002090601f016020900481019282612b3e5760008555612b85565b82601f10612b5757805160ff1916838001178555612b85565b82800160010185558215612b85579182015b82811115612b84578251825591602001919060010190612b69565b5b509050612b929190612b96565b5090565b5b80821115612baf576000816000905550600101612b97565b5090565b6000612bc6612bc1846136dc565b6136b7565b905082815260208101848484011115612bde57600080fd5b612be98482856138ca565b509392505050565b6000612c04612bff8461370d565b6136b7565b905082815260208101848484011115612c1c57600080fd5b612c278482856138ca565b509392505050565b600081359050612c3e81613e88565b92915050565b600081359050612c5381613e9f565b92915050565b600081359050612c6881613eb6565b92915050565b600081519050612c7d81613eb6565b92915050565b600082601f830112612c9457600080fd5b8135612ca4848260208601612bb3565b91505092915050565b600082601f830112612cbe57600080fd5b8135612cce848260208601612bf1565b91505092915050565b600081359050612ce681613ecd565b92915050565b600060208284031215612cfe57600080fd5b6000612d0c84828501612c2f565b91505092915050565b60008060408385031215612d2857600080fd5b6000612d3685828601612c2f565b9250506020612d4785828601612c2f565b9150509250929050565b600080600060608486031215612d6657600080fd5b6000612d7486828701612c2f565b9350506020612d8586828701612c2f565b9250506040612d9686828701612cd7565b9150509250925092565b60008060008060808587031215612db657600080fd5b6000612dc487828801612c2f565b9450506020612dd587828801612c2f565b9350506040612de687828801612cd7565b925050606085013567ffffffffffffffff811115612e0357600080fd5b612e0f87828801612c83565b91505092959194509250565b60008060408385031215612e2e57600080fd5b6000612e3c85828601612c2f565b9250506020612e4d85828601612c44565b9150509250929050565b60008060408385031215612e6a57600080fd5b6000612e7885828601612c2f565b9250506020612e8985828601612cd7565b9150509250929050565b600060208284031215612ea557600080fd5b6000612eb384828501612c59565b91505092915050565b600060208284031215612ece57600080fd5b6000612edc84828501612c6e565b91505092915050565b60008060408385031215612ef857600080fd5b600083013567ffffffffffffffff811115612f1257600080fd5b612f1e85828601612cad565b9250506020612f2f85828601612cd7565b9150509250929050565b600060208284031215612f4b57600080fd5b6000612f5984828501612cd7565b91505092915050565b6000612f6e83836132e7565b60a08301905092915050565b612f8381613856565b82525050565b612f9281613844565b82525050565b6000612fa38261374e565b612fad818561377c565b9350612fb88361373e565b8060005b83811015612fe9578151612fd08882612f62565b9750612fdb8361376f565b925050600181019050612fbc565b5085935050505092915050565b612fff81613868565b82525050565b61300e81613868565b82525050565b600061301f82613759565b613029818561378d565b93506130398185602086016138d9565b61304281613a45565b840191505092915050565b600061305882613764565b613062818561379e565b93506130728185602086016138d9565b61307b81613a45565b840191505092915050565b600061309182613764565b61309b81856137af565b93506130ab8185602086016138d9565b80840191505092915050565b60006130c4602d8361379e565b91506130cf82613a56565b604082019050919050565b60006130e760328361379e565b91506130f282613aa5565b604082019050919050565b600061310a60328361379e565b915061311582613af4565b604082019050919050565b600061312d60258361379e565b915061313882613b43565b604082019050919050565b6000613150601c8361379e565b915061315b82613b92565b602082019050919050565b600061317360248361379e565b915061317e82613bbb565b604082019050919050565b600061319660198361379e565b91506131a182613c0a565b602082019050919050565b60006131b960308361379e565b91506131c482613c33565b604082019050919050565b60006131dc60298361379e565b91506131e782613c82565b604082019050919050565b60006131ff602e8361379e565b915061320a82613cd1565b604082019050919050565b600061322260208361379e565b915061322d82613d20565b602082019050919050565b6000613245601b8361379e565b915061325082613d49565b602082019050919050565b600061326860188361379e565b915061327382613d72565b602082019050919050565b600061328b60218361379e565b915061329682613d9b565b604082019050919050565b60006132ae603d8361379e565b91506132b982613dea565b604082019050919050565b60006132d1602b8361379e565b91506132dc82613e39565b604082019050919050565b60a0820160008201516132fd600085018261334f565b5060208201516133106020850182612f7a565b5060408201516133236040850182612f7a565b506060820151613336606085018261334f565b5060808201516133496080850182612ff6565b50505050565b613358816138c0565b82525050565b613367816138c0565b82525050565b60006133798285613086565b91506133858284613086565b91508190509392505050565b60006020820190506133a66000830184612f89565b92915050565b60006080820190506133c16000830187612f89565b6133ce6020830186612f89565b6133db604083018561335e565b6133e86060830184613005565b95945050505050565b60006080820190506134066000830187612f89565b6134136020830186612f89565b613420604083018561335e565b81810360608301526134328184613014565b905095945050505050565b600060208201905081810360008301526134578184612f98565b905092915050565b60006020820190506134746000830184613005565b92915050565b60006020820190508181036000830152613494818461304d565b905092915050565b600060208201905081810360008301526134b5816130b7565b9050919050565b600060208201905081810360008301526134d5816130da565b9050919050565b600060208201905081810360008301526134f5816130fd565b9050919050565b6000602082019050818103600083015261351581613120565b9050919050565b6000602082019050818103600083015261353581613143565b9050919050565b6000602082019050818103600083015261355581613166565b9050919050565b6000602082019050818103600083015261357581613189565b9050919050565b60006020820190508181036000830152613595816131ac565b9050919050565b600060208201905081810360008301526135b5816131cf565b9050919050565b600060208201905081810360008301526135d5816131f2565b9050919050565b600060208201905081810360008301526135f581613215565b9050919050565b6000602082019050818103600083015261361581613238565b9050919050565b600060208201905081810360008301526136358161325b565b9050919050565b600060208201905081810360008301526136558161327e565b9050919050565b60006020820190508181036000830152613675816132a1565b9050919050565b60006020820190508181036000830152613695816132c4565b9050919050565b60006020820190506136b1600083018461335e565b92915050565b60006136c16136d2565b90506136cd828261393e565b919050565b6000604051905090565b600067ffffffffffffffff8211156136f7576136f6613a16565b5b61370082613a45565b9050602081019050919050565b600067ffffffffffffffff82111561372857613727613a16565b5b61373182613a45565b9050602081019050919050565b6000819050602082019050919050565b600081519050919050565b600081519050919050565b600081519050919050565b6000602082019050919050565b600082825260208201905092915050565b600082825260208201905092915050565b600082825260208201905092915050565b600081905092915050565b60006137c5826138c0565b91506137d0836138c0565b9250827fffffffffffffffffffffffffffffffffffffffffffffffffffffffffffffffff03821115613805576138046139b8565b5b828201905092915050565b600061381b826138c0565b9150613826836138c0565b925082821015613839576138386139b8565b5b828203905092915050565b600061384f826138a0565b9050919050565b6000613861826138a0565b9050919050565b60008115159050919050565b60007fffffffff0000000000000000000000000000000000000000000000000000000082169050919050565b600073ffffffffffffffffffffffffffffffffffffffff82169050919050565b6000819050919050565b82818337600083830152505050565b60005b838110156138f75780820151818401526020810190506138dc565b83811115613906576000848401525b50505050565b6000600282049050600182168061392457607f821691505b60208210811415613938576139376139e7565b5b50919050565b61394782613a45565b810181811067ffffffffffffffff8211171561396657613965613a16565b5b80604052505050565b600061397a826138c0565b91507fffffffffffffffffffffffffffffffffffffffffffffffffffffffffffffffff8214156139ad576139ac6139b8565b5b600182019050919050565b7f4e487b7100000000000000000000000000000000000000000000000000000000600052601160045260246000fd5b7f4e487b7100000000000000000000000000000000000000000000000000000000600052602260045260246000fd5b7f4e487b7100000000000000000000000000000000000000000000000000000000600052604160045260246000fd5b6000601f19601f8301169050919050565b7f4552433732313a2063616c6c6572206973206e6f7420746f6b656e206f776e6560008201527f72206f7220617070726f76656400000000000000000000000000000000000000602082015250565b7f4d757374206861766520656e6f75676820746f6b656e7320746f20626520616260008201527f6c6520746f206275792074686973204e46540000000000000000000000000000602082015250565b7f4552433732313a207472616e7366657220746f206e6f6e20455243373231526560008201527f63656976657220696d706c656d656e7465720000000000000000000000000000602082015250565b7f4552433732313a207472616e736665722066726f6d20696e636f72726563742060008201527f6f776e6572000000000000000000000000000000000000000000000000000000602082015250565b7f4552433732313a20746f6b656e20616c7265616479206d696e74656400000000600082015250565b7f4552433732313a207472616e7366657220746f20746865207a65726f2061646460008201527f7265737300000000000000000000000000000000000000000000000000000000602082015250565b7f4552433732313a20617070726f766520746f2063616c6c657200000000000000600082015250565b7f52657175697265206d61726b65742773206f776e657220746f206368616e676560008201527f206c697374696e67207072696365202100000000000000000000000000000000602082015250565b7f4552433732313a2061646472657373207a65726f206973206e6f74206120766160008201527f6c6964206f776e65720000000000000000000000000000000000000000000000602082015250565b7f45524337323155524953746f726167653a2055524920736574206f66206e6f6e60008201527f6578697374656e7420746f6b656e000000000000000000000000000000000000602082015250565b7f4552433732313a206d696e7420746f20746865207a65726f2061646472657373600082015250565b7f5072696365206d75737420626520686967686572207468616e20300000000000600082015250565b7f4552433732313a20696e76616c696420746f6b656e2049440000000000000000600082015250565b7f4552433732313a20617070726f76616c20746f2063757272656e74206f776e6560008201527f7200000000000000000000000000000000000000000000000000000000000000602082015250565b7f4552433732313a20617070726f76652063616c6c6572206973206e6f7420746f60008201527f6b656e206f776e6572206f7220617070726f76656420666f7220616c6c000000602082015250565b7f4d757374206861766520656e6f75676820746f6b656e20746f20706179206c6960008201527f7374696e67207072696365000000000000000000000000000000000000000000602082015250565b613e9181613844565b8114613e9c57600080fd5b50565b613ea881613868565b8114613eb357600080fd5b50565b613ebf81613874565b8114613eca57600080fd5b50565b613ed6816138c0565b8114613ee157600080fd5b5056fea26469706673582212203f6c86cd4a0753715399349e46928cf03cbd494f7d6c7906558970fcd7d1195664736f6c63430008040033",
  "linkReferences": {},
  "deployedLinkReferences": {}
}