{
  "_format": "hh-sol-artifact-1",
  "contractName": "NFTMarketplace",
  "sourceName": "contracts/NFTMarketplace.sol",
  "abi": [
    {
      "inputs": [],
      "stateMutability": "nonpayable",
      "type": "constructor"
    },
    {
      "anonymous": false,
      "inputs": [
        {
          "indexed": true,
          "internalType": "address",
          "name": "owner",
          "type": "address"
        },
        {
          "indexed": true,
          "internalType": "address",
          "name": "approved",
          "type": "address"
        },
        {
          "indexed": true,
          "internalType": "uint256",
          "name": "tokenId",
          "type": "uint256"
        }
      ],
      "name": "Approval",
      "type": "event"
    },
    {
      "anonymous": false,
      "inputs": [
        {
          "indexed": true,
          "internalType": "address",
          "name": "owner",
          "type": "address"
        },
        {
          "indexed": true,
          "internalType": "address",
          "name": "operator",
          "type": "address"
        },
        {
          "indexed": false,
          "internalType": "bool",
          "name": "approved",
          "type": "bool"
        }
      ],
      "name": "ApprovalForAll",
      "type": "event"
    },
    {
      "anonymous": false,
      "inputs": [
        {
          "indexed": true,
          "internalType": "uint256",
          "name": "tokenId",
          "type": "uint256"
        },
        {
          "indexed": false,
          "internalType": "address",
          "name": "seller",
          "type": "address"
        },
        {
          "indexed": false,
          "internalType": "address",
          "name": "owner",
          "type": "address"
        },
        {
          "indexed": false,
          "internalType": "uint256",
          "name": "price",
          "type": "uint256"
        },
        {
          "indexed": false,
          "internalType": "bool",
          "name": "sold",
          "type": "bool"
        }
      ],
      "name": "MarketItemCreated",
      "type": "event"
    },
    {
      "anonymous": false,
      "inputs": [
        {
          "indexed": true,
          "internalType": "address",
          "name": "from",
          "type": "address"
        },
        {
          "indexed": true,
          "internalType": "address",
          "name": "to",
          "type": "address"
        },
        {
          "indexed": true,
          "internalType": "uint256",
          "name": "tokenId",
          "type": "uint256"
        }
      ],
      "name": "Transfer",
      "type": "event"
    },
    {
      "inputs": [
        {
          "internalType": "address",
          "name": "to",
          "type": "address"
        },
        {
          "internalType": "uint256",
          "name": "tokenId",
          "type": "uint256"
        }
      ],
      "name": "approve",
      "outputs": [],
      "stateMutability": "nonpayable",
      "type": "function"
    },
    {
      "inputs": [
        {
          "internalType": "address",
          "name": "owner",
          "type": "address"
        }
      ],
      "name": "balanceOf",
      "outputs": [
        {
          "internalType": "uint256",
          "name": "",
          "type": "uint256"
        }
      ],
      "stateMutability": "view",
      "type": "function"
    },
    {
      "inputs": [
        {
          "internalType": "uint256",
          "name": "tokenId",
          "type": "uint256"
        }
      ],
      "name": "buyMarketItem",
      "outputs": [],
      "stateMutability": "payable",
      "type": "function"
    },
    {
      "inputs": [
        {
          "internalType": "string",
          "name": "tokenURL",
          "type": "string"
        },
        {
          "internalType": "uint256",
          "name": "inputPrice",
          "type": "uint256"
        }
      ],
      "name": "createToken",
      "outputs": [
        {
          "internalType": "uint256",
          "name": "",
          "type": "uint256"
        }
      ],
      "stateMutability": "payable",
      "type": "function"
    },
    {
      "inputs": [],
      "name": "fetchCollectionItem",
      "outputs": [
        {
          "components": [
            {
              "internalType": "uint256",
              "name": "tokenId",
              "type": "uint256"
            },
            {
              "internalType": "address payable",
              "name": "seller",
              "type": "address"
            },
            {
              "internalType": "address payable",
              "name": "owner",
              "type": "address"
            },
            {
              "internalType": "uint256",
              "name": "price",
              "type": "uint256"
            },
            {
              "internalType": "bool",
              "name": "sold",
              "type": "bool"
            }
          ],
          "internalType": "struct NFTMarketplace.MarketItem[]",
          "name": "",
          "type": "tuple[]"
        }
      ],
      "stateMutability": "view",
      "type": "function"
    },
    {
      "inputs": [],
      "name": "fetchListingItem",
      "outputs": [
        {
          "components": [
            {
              "internalType": "uint256",
              "name": "tokenId",
              "type": "uint256"
            },
            {
              "internalType": "address payable",
              "name": "seller",
              "type": "address"
            },
            {
              "internalType": "address payable",
              "name": "owner",
              "type": "address"
            },
            {
              "internalType": "uint256",
              "name": "price",
              "type": "uint256"
            },
            {
              "internalType": "bool",
              "name": "sold",
              "type": "bool"
            }
          ],
          "internalType": "struct NFTMarketplace.MarketItem[]",
          "name": "",
          "type": "tuple[]"
        }
      ],
      "stateMutability": "view",
      "type": "function"
    },
    {
      "inputs": [],
      "name": "fetchMarketItem",
      "outputs": [
        {
          "components": [
            {
              "internalType": "uint256",
              "name": "tokenId",
              "type": "uint256"
            },
            {
              "internalType": "address payable",
              "name": "seller",
              "type": "address"
            },
            {
              "internalType": "address payable",
              "name": "owner",
              "type": "address"
            },
            {
              "internalType": "uint256",
              "name": "price",
              "type": "uint256"
            },
            {
              "internalType": "bool",
              "name": "sold",
              "type": "bool"
            }
          ],
          "internalType": "struct NFTMarketplace.MarketItem[]",
          "name": "",
          "type": "tuple[]"
        }
      ],
      "stateMutability": "view",
      "type": "function"
    },
    {
      "inputs": [
        {
          "internalType": "uint256",
          "name": "tokenId",
          "type": "uint256"
        }
      ],
      "name": "getApproved",
      "outputs": [
        {
          "internalType": "address",
          "name": "",
          "type": "address"
        }
      ],
      "stateMutability": "view",
      "type": "function"
    },
    {
      "inputs": [],
      "name": "getListingPrice",
      "outputs": [
        {
          "internalType": "uint256",
          "name": "",
          "type": "uint256"
        }
      ],
      "stateMutability": "view",
      "type": "function"
    },
    {
      "inputs": [
        {
          "internalType": "address",
          "name": "owner",
          "type": "address"
        },
        {
          "internalType": "address",
          "name": "operator",
          "type": "address"
        }
      ],
      "name": "isApprovedForAll",
      "outputs": [
        {
          "internalType": "bool",
          "name": "",
          "type": "bool"
        }
      ],
      "stateMutability": "view",
      "type": "function"
    },
    {
      "inputs": [],
      "name": "name",
      "outputs": [
        {
          "internalType": "string",
          "name": "",
          "type": "string"
        }
      ],
      "stateMutability": "view",
      "type": "function"
    },
    {
      "inputs": [
        {
          "internalType": "uint256",
          "name": "tokenId",
          "type": "uint256"
        }
      ],
      "name": "ownerOf",
      "outputs": [
        {
          "internalType": "address",
          "name": "",
          "type": "address"
        }
      ],
      "stateMutability": "view",
      "type": "function"
    },
    {
      "inputs": [
        {
          "internalType": "uint256",
          "name": "tokenId",
          "type": "uint256"
        },
        {
          "internalType": "uint256",
          "name": "price",
          "type": "uint256"
        }
      ],
      "name": "resellToken",
      "outputs": [],
      "stateMutability": "payable",
      "type": "function"
    },
    {
      "inputs": [
        {
          "internalType": "address",
          "name": "from",
          "type": "address"
        },
        {
          "internalType": "address",
          "name": "to",
          "type": "address"
        },
        {
          "internalType": "uint256",
          "name": "tokenId",
          "type": "uint256"
        }
      ],
      "name": "safeTransferFrom",
      "outputs": [],
      "stateMutability": "nonpayable",
      "type": "function"
    },
    {
      "inputs": [
        {
          "internalType": "address",
          "name": "from",
          "type": "address"
        },
        {
          "internalType": "address",
          "name": "to",
          "type": "address"
        },
        {
          "internalType": "uint256",
          "name": "tokenId",
          "type": "uint256"
        },
        {
          "internalType": "bytes",
          "name": "data",
          "type": "bytes"
        }
      ],
      "name": "safeTransferFrom",
      "outputs": [],
      "stateMutability": "nonpayable",
      "type": "function"
    },
    {
      "inputs": [
        {
          "internalType": "address",
          "name": "operator",
          "type": "address"
        },
        {
          "internalType": "bool",
          "name": "approved",
          "type": "bool"
        }
      ],
      "name": "setApprovalForAll",
      "outputs": [],
      "stateMutability": "nonpayable",
      "type": "function"
    },
    {
      "inputs": [
        {
          "internalType": "bytes4",
          "name": "interfaceId",
          "type": "bytes4"
        }
      ],
      "name": "supportsInterface",
      "outputs": [
        {
          "internalType": "bool",
          "name": "",
          "type": "bool"
        }
      ],
      "stateMutability": "view",
      "type": "function"
    },
    {
      "inputs": [],
      "name": "symbol",
      "outputs": [
        {
          "internalType": "string",
          "name": "",
          "type": "string"
        }
      ],
      "stateMutability": "view",
      "type": "function"
    },
    {
      "inputs": [
        {
          "internalType": "uint256",
          "name": "tokenId",
          "type": "uint256"
        }
      ],
      "name": "tokenURI",
      "outputs": [
        {
          "internalType": "string",
          "name": "",
          "type": "string"
        }
      ],
      "stateMutability": "view",
      "type": "function"
    },
    {
      "inputs": [
        {
          "internalType": "address",
          "name": "from",
          "type": "address"
        },
        {
          "internalType": "address",
          "name": "to",
          "type": "address"
        },
        {
          "internalType": "uint256",
          "name": "tokenId",
          "type": "uint256"
        }
      ],
      "name": "transferFrom",
      "outputs": [],
      "stateMutability": "nonpayable",
      "type": "function"
    },
    {
      "inputs": [
        {
          "internalType": "uint256",
          "name": "_listingPrice",
          "type": "uint256"
        }
      ],
      "name": "updateListingPrice",
      "outputs": [],
      "stateMutability": "payable",
      "type": "function"
    }
  ],
  "bytecode": "0x60806040526701717b72f0a400006009553480156200001d57600080fd5b506040518060400160405280600c81526020017f667255495420546f6b656e7300000000000000000000000000000000000000008152506040518060400160405280600381526020017f55495400000000000000000000000000000000000000000000000000000000008152508160009080519060200190620000a292919062000105565b508060019080519060200190620000bb92919062000105565b50505033600a60006101000a81548173ffffffffffffffffffffffffffffffffffffffff021916908373ffffffffffffffffffffffffffffffffffffffff1602179055506200021a565b8280546200011390620001b5565b90600052602060002090601f01602090048101928262000137576000855562000183565b82601f106200015257805160ff191683800117855562000183565b8280016001018555821562000183579182015b828111156200018257825182559160200191906001019062000165565b5b50905062000192919062000196565b5090565b5b80821115620001b157600081600090555060010162000197565b5090565b60006002820490506001821680620001ce57607f821691505b60208210811415620001e557620001e4620001eb565b5b50919050565b7f4e487b7100000000000000000000000000000000000000000000000000000000600052602260045260246000fd5b6142cc806200022a6000396000f3fe60806040526004361061012a5760003560e01c80636352211e116100ab578063a22cb4651161006f578063a22cb465146103ec578063ae677aa314610415578063b88d4fde14610431578063c87b56dd1461045a578063e219fc7514610497578063e985e9c5146104b35761012a565b80636352211e146102ec57806370a082311461032957806372b3b620146103665780638fafd0211461039657806395d89b41146103c15761012a565b8063157f6ef5116100f2578063157f6ef51461022857806323b872dd14610253578063351901c31461027c57806342842e0e146102985780635bef6045146102c15761012a565b806301ffc9a71461012f57806306fdde031461016c578063081812fc14610197578063095ea7b3146101d457806312e85585146101fd575b600080fd5b34801561013b57600080fd5b506101566004803603810190610151919061310b565b6104f0565b6040516101639190613759565b60405180910390f35b34801561017857600080fd5b506101816105d2565b60405161018e9190613774565b60405180910390f35b3480156101a357600080fd5b506101be60048036038101906101b991906131b1565b610664565b6040516101cb919061368b565b60405180910390f35b3480156101e057600080fd5b506101fb60048036038101906101f691906130cf565b6106aa565b005b34801561020957600080fd5b506102126107c2565b60405161021f91906139d6565b60405180910390f35b34801561023457600080fd5b5061023d6107cc565b60405161024a9190613737565b60405180910390f35b34801561025f57600080fd5b5061027a60048036038101906102759190612fc9565b610b04565b005b610296600480360381019061029191906131b1565b610b64565b005b3480156102a457600080fd5b506102bf60048036038101906102ba9190612fc9565b610d46565b005b3480156102cd57600080fd5b506102d6610d66565b6040516102e39190613737565b60405180910390f35b3480156102f857600080fd5b50610313600480360381019061030e91906131b1565b61109e565b604051610320919061368b565b60405180910390f35b34801561033557600080fd5b50610350600480360381019061034b9190612f64565b611125565b60405161035d91906139d6565b60405180910390f35b610380600480360381019061037b919061315d565b6111dd565b60405161038d91906139d6565b60405180910390f35b3480156103a257600080fd5b506103ab61121f565b6040516103b89190613737565b60405180910390f35b3480156103cd57600080fd5b506103d66114ca565b6040516103e39190613774565b60405180910390f35b3480156103f857600080fd5b50610413600480360381019061040e9190613093565b61155c565b005b61042f600480360381019061042a91906131b1565b611572565b005b34801561043d57600080fd5b5061045860048036038101906104539190613018565b61160c565b005b34801561046657600080fd5b50610481600480360381019061047c91906131b1565b61166e565b60405161048e9190613774565b60405180910390f35b6104b160048036038101906104ac91906131da565b611781565b005b3480156104bf57600080fd5b506104da60048036038101906104d59190612f8d565b611976565b6040516104e79190613759565b60405180910390f35b60007f80ac58cd000000000000000000000000000000000000000000000000000000007bffffffffffffffffffffffffffffffffffffffffffffffffffffffff1916827bffffffffffffffffffffffffffffffffffffffffffffffffffffffff191614806105bb57507f5b5e139f000000000000000000000000000000000000000000000000000000007bffffffffffffffffffffffffffffffffffffffffffffffffffffffff1916827bffffffffffffffffffffffffffffffffffffffffffffffffffffffff1916145b806105cb57506105ca82611a0a565b5b9050919050565b6060600080546105e190613c46565b80601f016020809104026020016040519081016040528092919081815260200182805461060d90613c46565b801561065a5780601f1061062f5761010080835404028352916020019161065a565b820191906000526020600020905b81548152906001019060200180831161063d57829003601f168201915b5050505050905090565b600061066f82611a74565b6004600083815260200190815260200160002060009054906101000a900473ffffffffffffffffffffffffffffffffffffffff169050919050565b60006106b58261109e565b90508073ffffffffffffffffffffffffffffffffffffffff168373ffffffffffffffffffffffffffffffffffffffff161415610726576040517f08c379a000000000000000000000000000000000000000000000000000000000815260040161071d90613956565b60405180910390fd5b8073ffffffffffffffffffffffffffffffffffffffff16610745611abf565b73ffffffffffffffffffffffffffffffffffffffff16148061077457506107738161076e611abf565b611976565b5b6107b3576040517f08c379a00000000000000000000000000000000000000000000000000000000081526004016107aa90613976565b60405180910390fd5b6107bd8383611ac7565b505050565b6000600954905090565b606060006107da6007611b80565b905060008060005b83811015610882573373ffffffffffffffffffffffffffffffffffffffff16600b60006001846108129190613af4565b815260200190815260200160002060020160009054906101000a900473ffffffffffffffffffffffffffffffffffffffff1673ffffffffffffffffffffffffffffffffffffffff16141561086f57818061086b90613ca9565b9250505b808061087a90613ca9565b9150506107e2565b5060008167ffffffffffffffff8111156108c5577f4e487b7100000000000000000000000000000000000000000000000000000000600052604160045260246000fd5b6040519080825280602002602001820160405280156108fe57816020015b6108eb612d2b565b8152602001906001900390816108e35790505b50905060005b84811015610af9573373ffffffffffffffffffffffffffffffffffffffff16600b60006001846109349190613af4565b815260200190815260200160002060020160009054906101000a900473ffffffffffffffffffffffffffffffffffffffff1673ffffffffffffffffffffffffffffffffffffffff161415610ae65760006001826109919190613af4565b90506000600b60008381526020019081526020016000206040518060a0016040529081600082015481526020016001820160009054906101000a900473ffffffffffffffffffffffffffffffffffffffff1673ffffffffffffffffffffffffffffffffffffffff1673ffffffffffffffffffffffffffffffffffffffff1681526020016002820160009054906101000a900473ffffffffffffffffffffffffffffffffffffffff1673ffffffffffffffffffffffffffffffffffffffff1673ffffffffffffffffffffffffffffffffffffffff168152602001600382015481526020016004820160009054906101000a900460ff161515151581525050905080848781518110610aca577f4e487b7100000000000000000000000000000000000000000000000000000000600052603260045260246000fd5b60200260200101819052508580610ae090613ca9565b96505050505b8080610af190613ca9565b915050610904565b508094505050505090565b610b15610b0f611abf565b82611b8e565b610b54576040517f08c379a0000000000000000000000000000000000000000000000000000000008152600401610b4b90613796565b60405180910390fd5b610b5f838383611c23565b505050565b6000600b6000838152602001908152602001600020600301549050348114610bc1576040517f08c379a0000000000000000000000000000000000000000000000000000000008152600401610bb8906137b6565b60405180910390fd5b33600b600084815260200190815260200160002060020160006101000a81548173ffffffffffffffffffffffffffffffffffffffff021916908373ffffffffffffffffffffffffffffffffffffffff1602179055506001600b600084815260200190815260200160002060040160006101000a81548160ff021916908315150217905550610c4f6008611f1d565b610c5a303384611c23565b600a60009054906101000a900473ffffffffffffffffffffffffffffffffffffffff1673ffffffffffffffffffffffffffffffffffffffff166108fc6009549081150290604051600060405180830381858888f19350505050158015610cc4573d6000803e3d6000fd5b50600b600083815260200190815260200160002060010160009054906101000a900473ffffffffffffffffffffffffffffffffffffffff1673ffffffffffffffffffffffffffffffffffffffff166108fc349081150290604051600060405180830381858888f19350505050158015610d41573d6000803e3d6000fd5b505050565b610d618383836040518060200160405280600081525061160c565b505050565b60606000610d746007611b80565b905060008060005b83811015610e1c573373ffffffffffffffffffffffffffffffffffffffff16600b6000600184610dac9190613af4565b815260200190815260200160002060010160009054906101000a900473ffffffffffffffffffffffffffffffffffffffff1673ffffffffffffffffffffffffffffffffffffffff161415610e09578180610e0590613ca9565b9250505b8080610e1490613ca9565b915050610d7c565b5060008167ffffffffffffffff811115610e5f577f4e487b7100000000000000000000000000000000000000000000000000000000600052604160045260246000fd5b604051908082528060200260200182016040528015610e9857816020015b610e85612d2b565b815260200190600190039081610e7d5790505b50905060005b84811015611093573373ffffffffffffffffffffffffffffffffffffffff16600b6000600184610ece9190613af4565b815260200190815260200160002060010160009054906101000a900473ffffffffffffffffffffffffffffffffffffffff1673ffffffffffffffffffffffffffffffffffffffff161415611080576000600182610f2b9190613af4565b90506000600b60008381526020019081526020016000206040518060a0016040529081600082015481526020016001820160009054906101000a900473ffffffffffffffffffffffffffffffffffffffff1673ffffffffffffffffffffffffffffffffffffffff1673ffffffffffffffffffffffffffffffffffffffff1681526020016002820160009054906101000a900473ffffffffffffffffffffffffffffffffffffffff1673ffffffffffffffffffffffffffffffffffffffff1673ffffffffffffffffffffffffffffffffffffffff168152602001600382015481526020016004820160009054906101000a900460ff161515151581525050905080848781518110611064577f4e487b7100000000000000000000000000000000000000000000000000000000600052603260045260246000fd5b6020026020010181905250858061107a90613ca9565b96505050505b808061108b90613ca9565b915050610e9e565b508094505050505090565b6000806110aa83611f33565b9050600073ffffffffffffffffffffffffffffffffffffffff168173ffffffffffffffffffffffffffffffffffffffff16141561111c576040517f08c379a000000000000000000000000000000000000000000000000000000000815260040161111390613936565b60405180910390fd5b80915050919050565b60008073ffffffffffffffffffffffffffffffffffffffff168273ffffffffffffffffffffffffffffffffffffffff161415611196576040517f08c379a000000000000000000000000000000000000000000000000000000000815260040161118d906138b6565b60405180910390fd5b600360008373ffffffffffffffffffffffffffffffffffffffff1673ffffffffffffffffffffffffffffffffffffffff168152602001908152602001600020549050919050565b60006111e96007611f1d565b60006111f56007611b80565b90506112013382611f70565b61120b818561218e565b6112158184612202565b8091505092915050565b6060600061122d6007611b80565b9050600061123b6008611b80565b826112469190613b4a565b90506000808267ffffffffffffffff81111561128b577f4e487b7100000000000000000000000000000000000000000000000000000000600052604160045260246000fd5b6040519080825280602002602001820160405280156112c457816020015b6112b1612d2b565b8152602001906001900390816112a95790505b50905060005b848110156114bf573073ffffffffffffffffffffffffffffffffffffffff16600b60006001846112fa9190613af4565b815260200190815260200160002060020160009054906101000a900473ffffffffffffffffffffffffffffffffffffffff1673ffffffffffffffffffffffffffffffffffffffff1614156114ac5760006001826113579190613af4565b90506000600b60008381526020019081526020016000206040518060a0016040529081600082015481526020016001820160009054906101000a900473ffffffffffffffffffffffffffffffffffffffff1673ffffffffffffffffffffffffffffffffffffffff1673ffffffffffffffffffffffffffffffffffffffff1681526020016002820160009054906101000a900473ffffffffffffffffffffffffffffffffffffffff1673ffffffffffffffffffffffffffffffffffffffff1673ffffffffffffffffffffffffffffffffffffffff168152602001600382015481526020016004820160009054906101000a900460ff161515151581525050905080848681518110611490577f4e487b7100000000000000000000000000000000000000000000000000000000600052603260045260246000fd5b602002602001018190525084806114a690613ca9565b95505050505b80806114b790613ca9565b9150506112ca565b508094505050505090565b6060600180546114d990613c46565b80601f016020809104026020016040519081016040528092919081815260200182805461150590613c46565b80156115525780601f1061152757610100808354040283529160200191611552565b820191906000526020600020905b81548152906001019060200180831161153557829003601f168201915b5050505050905090565b61156e611567611abf565b8383612405565b5050565b3373ffffffffffffffffffffffffffffffffffffffff16600a60009054906101000a900473ffffffffffffffffffffffffffffffffffffffff1673ffffffffffffffffffffffffffffffffffffffff1614611602576040517f08c379a00000000000000000000000000000000000000000000000000000000081526004016115f990613896565b60405180910390fd5b8060098190555050565b61161d611617611abf565b83611b8e565b61165c576040517f08c379a000000000000000000000000000000000000000000000000000000000815260040161165390613796565b60405180910390fd5b61166884848484612572565b50505050565b606061167982611a74565b600060066000848152602001908152602001600020805461169990613c46565b80601f01602080910402602001604051908101604052809291908181526020018280546116c590613c46565b80156117125780601f106116e757610100808354040283529160200191611712565b820191906000526020600020905b8154815290600101906020018083116116f557829003601f168201915b5050505050905060006117236125ce565b905060008151141561173957819250505061177c565b60008251111561176e578082604051602001611756929190613667565b6040516020818303038152906040529250505061177c565b611777846125e5565b925050505b919050565b3373ffffffffffffffffffffffffffffffffffffffff16600b600084815260200190815260200160002060020160009054906101000a900473ffffffffffffffffffffffffffffffffffffffff1673ffffffffffffffffffffffffffffffffffffffff1614611825576040517f08c379a000000000000000000000000000000000000000000000000000000000815260040161181c90613996565b60405180910390fd5b6009543414611869576040517f08c379a0000000000000000000000000000000000000000000000000000000008152600401611860906139b6565b60405180910390fd5b6000600b600084815260200190815260200160002060040160006101000a81548160ff02191690831515021790555080600b60008481526020019081526020016000206003018190555033600b600084815260200190815260200160002060010160006101000a81548173ffffffffffffffffffffffffffffffffffffffff021916908373ffffffffffffffffffffffffffffffffffffffff16021790555030600b600084815260200190815260200160002060020160006101000a81548173ffffffffffffffffffffffffffffffffffffffff021916908373ffffffffffffffffffffffffffffffffffffffff160217905550611967600861264d565b611972333084611c23565b5050565b6000600560008473ffffffffffffffffffffffffffffffffffffffff1673ffffffffffffffffffffffffffffffffffffffff16815260200190815260200160002060008373ffffffffffffffffffffffffffffffffffffffff1673ffffffffffffffffffffffffffffffffffffffff16815260200190815260200160002060009054906101000a900460ff16905092915050565b60007f01ffc9a7000000000000000000000000000000000000000000000000000000007bffffffffffffffffffffffffffffffffffffffffffffffffffffffff1916827bffffffffffffffffffffffffffffffffffffffffffffffffffffffff1916149050919050565b611a7d816126a9565b611abc576040517f08c379a0000000000000000000000000000000000000000000000000000000008152600401611ab390613936565b60405180910390fd5b50565b600033905090565b816004600083815260200190815260200160002060006101000a81548173ffffffffffffffffffffffffffffffffffffffff021916908373ffffffffffffffffffffffffffffffffffffffff160217905550808273ffffffffffffffffffffffffffffffffffffffff16611b3a8361109e565b73ffffffffffffffffffffffffffffffffffffffff167f8c5be1e5ebec7d5bd14f71427d1e84f3dd0314c0f7b2291e5b200ac8c7c3b92560405160405180910390a45050565b600081600001549050919050565b600080611b9a8361109e565b90508073ffffffffffffffffffffffffffffffffffffffff168473ffffffffffffffffffffffffffffffffffffffff161480611bdc5750611bdb8185611976565b5b80611c1a57508373ffffffffffffffffffffffffffffffffffffffff16611c0284610664565b73ffffffffffffffffffffffffffffffffffffffff16145b91505092915050565b8273ffffffffffffffffffffffffffffffffffffffff16611c438261109e565b73ffffffffffffffffffffffffffffffffffffffff1614611c99576040517f08c379a0000000000000000000000000000000000000000000000000000000008152600401611c9090613816565b60405180910390fd5b600073ffffffffffffffffffffffffffffffffffffffff168273ffffffffffffffffffffffffffffffffffffffff161415611d09576040517f08c379a0000000000000000000000000000000000000000000000000000000008152600401611d0090613856565b60405180910390fd5b611d1683838360016126ea565b8273ffffffffffffffffffffffffffffffffffffffff16611d368261109e565b73ffffffffffffffffffffffffffffffffffffffff1614611d8c576040517f08c379a0000000000000000000000000000000000000000000000000000000008152600401611d8390613816565b60405180910390fd5b6004600082815260200190815260200160002060006101000a81549073ffffffffffffffffffffffffffffffffffffffff02191690556001600360008573ffffffffffffffffffffffffffffffffffffffff1673ffffffffffffffffffffffffffffffffffffffff168152602001908152602001600020600082825403925050819055506001600360008473ffffffffffffffffffffffffffffffffffffffff1673ffffffffffffffffffffffffffffffffffffffff16815260200190815260200160002060008282540192505081905550816002600083815260200190815260200160002060006101000a81548173ffffffffffffffffffffffffffffffffffffffff021916908373ffffffffffffffffffffffffffffffffffffffff160217905550808273ffffffffffffffffffffffffffffffffffffffff168473ffffffffffffffffffffffffffffffffffffffff167fddf252ad1be2c89b69c2b068fc378daa952ba7f163c4a11628f55a4df523b3ef60405160405180910390a4611f188383836001612810565b505050565b6001816000016000828254019250508190555050565b60006002600083815260200190815260200160002060009054906101000a900473ffffffffffffffffffffffffffffffffffffffff169050919050565b600073ffffffffffffffffffffffffffffffffffffffff168273ffffffffffffffffffffffffffffffffffffffff161415611fe0576040517f08c379a0000000000000000000000000000000000000000000000000000000008152600401611fd7906138f6565b60405180910390fd5b611fe9816126a9565b15612029576040517f08c379a000000000000000000000000000000000000000000000000000000000815260040161202090613836565b60405180910390fd5b6120376000838360016126ea565b612040816126a9565b15612080576040517f08c379a000000000000000000000000000000000000000000000000000000000815260040161207790613836565b60405180910390fd5b6001600360008473ffffffffffffffffffffffffffffffffffffffff1673ffffffffffffffffffffffffffffffffffffffff16815260200190815260200160002060008282540192505081905550816002600083815260200190815260200160002060006101000a81548173ffffffffffffffffffffffffffffffffffffffff021916908373ffffffffffffffffffffffffffffffffffffffff160217905550808273ffffffffffffffffffffffffffffffffffffffff16600073ffffffffffffffffffffffffffffffffffffffff167fddf252ad1be2c89b69c2b068fc378daa952ba7f163c4a11628f55a4df523b3ef60405160405180910390a461218a600083836001612810565b5050565b612197826126a9565b6121d6576040517f08c379a00000000000000000000000000000000000000000000000000000000081526004016121cd906138d6565b60405180910390fd5b806006600084815260200190815260200160002090805190602001906121fd929190612d88565b505050565b60008111612245576040517f08c379a000000000000000000000000000000000000000000000000000000000815260040161223c90613916565b60405180910390fd5b6009543414612289576040517f08c379a0000000000000000000000000000000000000000000000000000000008152600401612280906139b6565b60405180910390fd5b6040518060a001604052808381526020013373ffffffffffffffffffffffffffffffffffffffff1681526020013073ffffffffffffffffffffffffffffffffffffffff16815260200182815260200160001515815250600b60008481526020019081526020016000206000820151816000015560208201518160010160006101000a81548173ffffffffffffffffffffffffffffffffffffffff021916908373ffffffffffffffffffffffffffffffffffffffff16021790555060408201518160020160006101000a81548173ffffffffffffffffffffffffffffffffffffffff021916908373ffffffffffffffffffffffffffffffffffffffff1602179055506060820151816003015560808201518160040160006101000a81548160ff0219169083151502179055509050506123c2333084611c23565b817fb640004f1d14576d0c209e240cad0410e0d8c0c33a09375861fbadae2588a98d33308460006040516123f994939291906136a6565b60405180910390a25050565b8173ffffffffffffffffffffffffffffffffffffffff168373ffffffffffffffffffffffffffffffffffffffff161415612474576040517f08c379a000000000000000000000000000000000000000000000000000000000815260040161246b90613876565b60405180910390fd5b80600560008573ffffffffffffffffffffffffffffffffffffffff1673ffffffffffffffffffffffffffffffffffffffff16815260200190815260200160002060008473ffffffffffffffffffffffffffffffffffffffff1673ffffffffffffffffffffffffffffffffffffffff16815260200190815260200160002060006101000a81548160ff0219169083151502179055508173ffffffffffffffffffffffffffffffffffffffff168373ffffffffffffffffffffffffffffffffffffffff167f17307eab39ab6107e8899845ad3d59bd9653f200f220920489ca2b5937696c31836040516125659190613759565b60405180910390a3505050565b61257d848484611c23565b61258984848484612816565b6125c8576040517f08c379a00000000000000000000000000000000000000000000000000000000081526004016125bf906137f6565b60405180910390fd5b50505050565b606060405180602001604052806000815250905090565b60606125f082611a74565b60006125fa6125ce565b9050600081511161261a5760405180602001604052806000815250612645565b80612624846129ad565b604051602001612635929190613667565b6040516020818303038152906040525b915050919050565b60008160000154905060008111612699576040517f08c379a0000000000000000000000000000000000000000000000000000000008152600401612690906137d6565b60405180910390fd5b6001810382600001819055505050565b60008073ffffffffffffffffffffffffffffffffffffffff166126cb83611f33565b73ffffffffffffffffffffffffffffffffffffffff1614159050919050565b600181111561280a57600073ffffffffffffffffffffffffffffffffffffffff168473ffffffffffffffffffffffffffffffffffffffff161461277e5780600360008673ffffffffffffffffffffffffffffffffffffffff1673ffffffffffffffffffffffffffffffffffffffff16815260200190815260200160002060008282546127769190613b4a565b925050819055505b600073ffffffffffffffffffffffffffffffffffffffff168373ffffffffffffffffffffffffffffffffffffffff16146128095780600360008573ffffffffffffffffffffffffffffffffffffffff1673ffffffffffffffffffffffffffffffffffffffff16815260200190815260200160002060008282546128019190613af4565b925050819055505b5b50505050565b50505050565b60006128378473ffffffffffffffffffffffffffffffffffffffff16612ad1565b156129a0578373ffffffffffffffffffffffffffffffffffffffff1663150b7a02612860611abf565b8786866040518563ffffffff1660e01b815260040161288294939291906136eb565b602060405180830381600087803b15801561289c57600080fd5b505af19250505080156128cd57506040513d601f19601f820116820180604052508101906128ca9190613134565b60015b612950573d80600081146128fd576040519150601f19603f3d011682016040523d82523d6000602084013e612902565b606091505b50600081511415612948576040517f08c379a000000000000000000000000000000000000000000000000000000000815260040161293f906137f6565b60405180910390fd5b805181602001fd5b63150b7a0260e01b7bffffffffffffffffffffffffffffffffffffffffffffffffffffffff1916817bffffffffffffffffffffffffffffffffffffffffffffffffffffffff1916149150506129a5565b600190505b949350505050565b6060600060016129bc84612af4565b01905060008167ffffffffffffffff811115612a01577f4e487b7100000000000000000000000000000000000000000000000000000000600052604160045260246000fd5b6040519080825280601f01601f191660200182016040528015612a335781602001600182028036833780820191505090505b509050600082602001820190505b600115612ac6578080600190039150507f3031323334353637383961626364656600000000000000000000000000000000600a86061a8153600a8581612ab0577f4e487b7100000000000000000000000000000000000000000000000000000000600052601260045260246000fd5b0494506000851415612ac157612ac6565b612a41565b819350505050919050565b6000808273ffffffffffffffffffffffffffffffffffffffff163b119050919050565b600080600090507a184f03e93ff9f4daa797ed6e38ed64bf6a1f0100000000000000008310612b78577a184f03e93ff9f4daa797ed6e38ed64bf6a1f0100000000000000008381612b6e577f4e487b7100000000000000000000000000000000000000000000000000000000600052601260045260246000fd5b0492506040810190505b6d04ee2d6d415b85acef81000000008310612bdb576d04ee2d6d415b85acef81000000008381612bd1577f4e487b7100000000000000000000000000000000000000000000000000000000600052601260045260246000fd5b0492506020810190505b662386f26fc100008310612c3057662386f26fc100008381612c26577f4e487b7100000000000000000000000000000000000000000000000000000000600052601260045260246000fd5b0492506010810190505b6305f5e1008310612c7f576305f5e1008381612c75577f4e487b7100000000000000000000000000000000000000000000000000000000600052601260045260246000fd5b0492506008810190505b6127108310612cca576127108381612cc0577f4e487b7100000000000000000000000000000000000000000000000000000000600052601260045260246000fd5b0492506004810190505b60648310612d135760648381612d09577f4e487b7100000000000000000000000000000000000000000000000000000000600052601260045260246000fd5b0492506002810190505b600a8310612d22576001810190505b80915050919050565b6040518060a0016040528060008152602001600073ffffffffffffffffffffffffffffffffffffffff168152602001600073ffffffffffffffffffffffffffffffffffffffff168152602001600081526020016000151581525090565b828054612d9490613c46565b90600052602060002090601f016020900481019282612db65760008555612dfd565b82601f10612dcf57805160ff1916838001178555612dfd565b82800160010185558215612dfd579182015b82811115612dfc578251825591602001919060010190612de1565b5b509050612e0a9190612e0e565b5090565b5b80821115612e27576000816000905550600101612e0f565b5090565b6000612e3e612e3984613a16565b6139f1565b905082815260208101848484011115612e5657600080fd5b612e61848285613c04565b509392505050565b6000612e7c612e7784613a47565b6139f1565b905082815260208101848484011115612e9457600080fd5b612e9f848285613c04565b509392505050565b600081359050612eb68161423a565b92915050565b600081359050612ecb81614251565b92915050565b600081359050612ee081614268565b92915050565b600081519050612ef581614268565b92915050565b600082601f830112612f0c57600080fd5b8135612f1c848260208601612e2b565b91505092915050565b600082601f830112612f3657600080fd5b8135612f46848260208601612e69565b91505092915050565b600081359050612f5e8161427f565b92915050565b600060208284031215612f7657600080fd5b6000612f8484828501612ea7565b91505092915050565b60008060408385031215612fa057600080fd5b6000612fae85828601612ea7565b9250506020612fbf85828601612ea7565b9150509250929050565b600080600060608486031215612fde57600080fd5b6000612fec86828701612ea7565b9350506020612ffd86828701612ea7565b925050604061300e86828701612f4f565b9150509250925092565b6000806000806080858703121561302e57600080fd5b600061303c87828801612ea7565b945050602061304d87828801612ea7565b935050604061305e87828801612f4f565b925050606085013567ffffffffffffffff81111561307b57600080fd5b61308787828801612efb565b91505092959194509250565b600080604083850312156130a657600080fd5b60006130b485828601612ea7565b92505060206130c585828601612ebc565b9150509250929050565b600080604083850312156130e257600080fd5b60006130f085828601612ea7565b925050602061310185828601612f4f565b9150509250929050565b60006020828403121561311d57600080fd5b600061312b84828501612ed1565b91505092915050565b60006020828403121561314657600080fd5b600061315484828501612ee6565b91505092915050565b6000806040838503121561317057600080fd5b600083013567ffffffffffffffff81111561318a57600080fd5b61319685828601612f25565b92505060206131a785828601612f4f565b9150509250929050565b6000602082840312156131c357600080fd5b60006131d184828501612f4f565b91505092915050565b600080604083850312156131ed57600080fd5b60006131fb85828601612f4f565b925050602061320c85828601612f4f565b9150509250929050565b600061322283836135e1565b60a08301905092915050565b61323781613b90565b82525050565b61324681613b7e565b82525050565b600061325782613a88565b6132618185613ab6565b935061326c83613a78565b8060005b8381101561329d5781516132848882613216565b975061328f83613aa9565b925050600181019050613270565b5085935050505092915050565b6132b381613ba2565b82525050565b6132c281613ba2565b82525050565b60006132d382613a93565b6132dd8185613ac7565b93506132ed818560208601613c13565b6132f681613d7f565b840191505092915050565b600061330c82613a9e565b6133168185613ad8565b9350613326818560208601613c13565b61332f81613d7f565b840191505092915050565b600061334582613a9e565b61334f8185613ae9565b935061335f818560208601613c13565b80840191505092915050565b6000613378602d83613ad8565b915061338382613d90565b604082019050919050565b600061339b603283613ad8565b91506133a682613ddf565b604082019050919050565b60006133be601b83613ad8565b91506133c982613e2e565b602082019050919050565b60006133e1603283613ad8565b91506133ec82613e57565b604082019050919050565b6000613404602583613ad8565b915061340f82613ea6565b604082019050919050565b6000613427601c83613ad8565b915061343282613ef5565b602082019050919050565b600061344a602483613ad8565b915061345582613f1e565b604082019050919050565b600061346d601983613ad8565b915061347882613f6d565b602082019050919050565b6000613490603083613ad8565b915061349b82613f96565b604082019050919050565b60006134b3602983613ad8565b91506134be82613fe5565b604082019050919050565b60006134d6602e83613ad8565b91506134e182614034565b604082019050919050565b60006134f9602083613ad8565b915061350482614083565b602082019050919050565b600061351c601b83613ad8565b9150613527826140ac565b602082019050919050565b600061353f601883613ad8565b915061354a826140d5565b602082019050919050565b6000613562602183613ad8565b915061356d826140fe565b604082019050919050565b6000613585603d83613ad8565b91506135908261414d565b604082019050919050565b60006135a8602283613ad8565b91506135b38261419c565b604082019050919050565b60006135cb602b83613ad8565b91506135d6826141eb565b604082019050919050565b60a0820160008201516135f76000850182613649565b50602082015161360a602085018261322e565b50604082015161361d604085018261322e565b5060608201516136306060850182613649565b50608082015161364360808501826132aa565b50505050565b61365281613bfa565b82525050565b61366181613bfa565b82525050565b6000613673828561333a565b915061367f828461333a565b91508190509392505050565b60006020820190506136a0600083018461323d565b92915050565b60006080820190506136bb600083018761323d565b6136c8602083018661323d565b6136d56040830185613658565b6136e260608301846132b9565b95945050505050565b6000608082019050613700600083018761323d565b61370d602083018661323d565b61371a6040830185613658565b818103606083015261372c81846132c8565b905095945050505050565b60006020820190508181036000830152613751818461324c565b905092915050565b600060208201905061376e60008301846132b9565b92915050565b6000602082019050818103600083015261378e8184613301565b905092915050565b600060208201905081810360008301526137af8161336b565b9050919050565b600060208201905081810360008301526137cf8161338e565b9050919050565b600060208201905081810360008301526137ef816133b1565b9050919050565b6000602082019050818103600083015261380f816133d4565b9050919050565b6000602082019050818103600083015261382f816133f7565b9050919050565b6000602082019050818103600083015261384f8161341a565b9050919050565b6000602082019050818103600083015261386f8161343d565b9050919050565b6000602082019050818103600083015261388f81613460565b9050919050565b600060208201905081810360008301526138af81613483565b9050919050565b600060208201905081810360008301526138cf816134a6565b9050919050565b600060208201905081810360008301526138ef816134c9565b9050919050565b6000602082019050818103600083015261390f816134ec565b9050919050565b6000602082019050818103600083015261392f8161350f565b9050919050565b6000602082019050818103600083015261394f81613532565b9050919050565b6000602082019050818103600083015261396f81613555565b9050919050565b6000602082019050818103600083015261398f81613578565b9050919050565b600060208201905081810360008301526139af8161359b565b9050919050565b600060208201905081810360008301526139cf816135be565b9050919050565b60006020820190506139eb6000830184613658565b92915050565b60006139fb613a0c565b9050613a078282613c78565b919050565b6000604051905090565b600067ffffffffffffffff821115613a3157613a30613d50565b5b613a3a82613d7f565b9050602081019050919050565b600067ffffffffffffffff821115613a6257613a61613d50565b5b613a6b82613d7f565b9050602081019050919050565b6000819050602082019050919050565b600081519050919050565b600081519050919050565b600081519050919050565b6000602082019050919050565b600082825260208201905092915050565b600082825260208201905092915050565b600082825260208201905092915050565b600081905092915050565b6000613aff82613bfa565b9150613b0a83613bfa565b9250827fffffffffffffffffffffffffffffffffffffffffffffffffffffffffffffffff03821115613b3f57613b3e613cf2565b5b828201905092915050565b6000613b5582613bfa565b9150613b6083613bfa565b925082821015613b7357613b72613cf2565b5b828203905092915050565b6000613b8982613bda565b9050919050565b6000613b9b82613bda565b9050919050565b60008115159050919050565b60007fffffffff0000000000000000000000000000000000000000000000000000000082169050919050565b600073ffffffffffffffffffffffffffffffffffffffff82169050919050565b6000819050919050565b82818337600083830152505050565b60005b83811015613c31578082015181840152602081019050613c16565b83811115613c40576000848401525b50505050565b60006002820490506001821680613c5e57607f821691505b60208210811415613c7257613c71613d21565b5b50919050565b613c8182613d7f565b810181811067ffffffffffffffff82111715613ca057613c9f613d50565b5b80604052505050565b6000613cb482613bfa565b91507fffffffffffffffffffffffffffffffffffffffffffffffffffffffffffffffff821415613ce757613ce6613cf2565b5b600182019050919050565b7f4e487b7100000000000000000000000000000000000000000000000000000000600052601160045260246000fd5b7f4e487b7100000000000000000000000000000000000000000000000000000000600052602260045260246000fd5b7f4e487b7100000000000000000000000000000000000000000000000000000000600052604160045260246000fd5b6000601f19601f8301169050919050565b7f4552433732313a2063616c6c6572206973206e6f7420746f6b656e206f776e6560008201527f72206f7220617070726f76656400000000000000000000000000000000000000602082015250565b7f4d757374206861766520656e6f75676820746f6b656e7320746f20626520616260008201527f6c6520746f206275792074686973204e46540000000000000000000000000000602082015250565b7f436f756e7465723a2064656372656d656e74206f766572666c6f770000000000600082015250565b7f4552433732313a207472616e7366657220746f206e6f6e20455243373231526560008201527f63656976657220696d706c656d656e7465720000000000000000000000000000602082015250565b7f4552433732313a207472616e736665722066726f6d20696e636f72726563742060008201527f6f776e6572000000000000000000000000000000000000000000000000000000602082015250565b7f4552433732313a20746f6b656e20616c7265616479206d696e74656400000000600082015250565b7f4552433732313a207472616e7366657220746f20746865207a65726f2061646460008201527f7265737300000000000000000000000000000000000000000000000000000000602082015250565b7f4552433732313a20617070726f766520746f2063616c6c657200000000000000600082015250565b7f52657175697265206d61726b65742773206f776e657220746f206368616e676560008201527f206c697374696e67207072696365202100000000000000000000000000000000602082015250565b7f4552433732313a2061646472657373207a65726f206973206e6f74206120766160008201527f6c6964206f776e65720000000000000000000000000000000000000000000000602082015250565b7f45524337323155524953746f726167653a2055524920736574206f66206e6f6e60008201527f6578697374656e7420746f6b656e000000000000000000000000000000000000602082015250565b7f4552433732313a206d696e7420746f20746865207a65726f2061646472657373600082015250565b7f5072696365206d75737420626520686967686572207468616e20300000000000600082015250565b7f4552433732313a20696e76616c696420746f6b656e2049440000000000000000600082015250565b7f4552433732313a20617070726f76616c20746f2063757272656e74206f776e6560008201527f7200000000000000000000000000000000000000000000000000000000000000602082015250565b7f4552433732313a20617070726f76652063616c6c6572206973206e6f7420746f60008201527f6b656e206f776e6572206f7220617070726f76656420666f7220616c6c000000602082015250565b7f4f6e6c79206f776e65722063616e20706572666f726d2074686973206163746960008201527f6f6e000000000000000000000000000000000000000000000000000000000000602082015250565b7f4d757374206861766520656e6f75676820746f6b656e20746f20706179206c6960008201527f7374696e67207072696365000000000000000000000000000000000000000000602082015250565b61424381613b7e565b811461424e57600080fd5b50565b61425a81613ba2565b811461426557600080fd5b50565b61427181613bae565b811461427c57600080fd5b50565b61428881613bfa565b811461429357600080fd5b5056fea2646970667358221220f66038bc3d20463380e11139795e96432afec3634af829cbf9d961aecdd3953164736f6c63430008040033",
  "linkReferences": {},
  "deployedLinkReferences": {}
}