{
  "_format": "hh-sol-artifact-1",
  "contractName": "NFTMarketplace",
  "sourceName": "contracts/NFTMarketplace.sol",
  "abi": [
    {
      "inputs": [],
      "stateMutability": "nonpayable",
      "type": "constructor"
    },
    {
      "anonymous": false,
      "inputs": [
        {
          "indexed": true,
          "internalType": "address",
          "name": "owner",
          "type": "address"
        },
        {
          "indexed": true,
          "internalType": "address",
          "name": "approved",
          "type": "address"
        },
        {
          "indexed": true,
          "internalType": "uint256",
          "name": "tokenId",
          "type": "uint256"
        }
      ],
      "name": "Approval",
      "type": "event"
    },
    {
      "anonymous": false,
      "inputs": [
        {
          "indexed": true,
          "internalType": "address",
          "name": "owner",
          "type": "address"
        },
        {
          "indexed": true,
          "internalType": "address",
          "name": "operator",
          "type": "address"
        },
        {
          "indexed": false,
          "internalType": "bool",
          "name": "approved",
          "type": "bool"
        }
      ],
      "name": "ApprovalForAll",
      "type": "event"
    },
    {
      "anonymous": false,
      "inputs": [
        {
          "indexed": true,
          "internalType": "uint256",
          "name": "tokenId",
          "type": "uint256"
        },
        {
          "indexed": false,
          "internalType": "address",
          "name": "seller",
          "type": "address"
        },
        {
          "indexed": false,
          "internalType": "address",
          "name": "owner",
          "type": "address"
        },
        {
          "indexed": false,
          "internalType": "uint256",
          "name": "price",
          "type": "uint256"
        },
        {
          "indexed": false,
          "internalType": "bool",
          "name": "sold",
          "type": "bool"
        }
      ],
      "name": "MarketItemCreated",
      "type": "event"
    },
    {
      "anonymous": false,
      "inputs": [
        {
          "indexed": true,
          "internalType": "address",
          "name": "from",
          "type": "address"
        },
        {
          "indexed": true,
          "internalType": "address",
          "name": "to",
          "type": "address"
        },
        {
          "indexed": true,
          "internalType": "uint256",
          "name": "tokenId",
          "type": "uint256"
        }
      ],
      "name": "Transfer",
      "type": "event"
    },
    {
      "inputs": [
        {
          "internalType": "address",
          "name": "to",
          "type": "address"
        },
        {
          "internalType": "uint256",
          "name": "tokenId",
          "type": "uint256"
        }
      ],
      "name": "approve",
      "outputs": [],
      "stateMutability": "nonpayable",
      "type": "function"
    },
    {
      "inputs": [
        {
          "internalType": "address",
          "name": "owner",
          "type": "address"
        }
      ],
      "name": "balanceOf",
      "outputs": [
        {
          "internalType": "uint256",
          "name": "",
          "type": "uint256"
        }
      ],
      "stateMutability": "view",
      "type": "function"
    },
    {
      "inputs": [
        {
          "internalType": "uint256",
          "name": "tokenId",
          "type": "uint256"
        }
      ],
      "name": "buyMarketItem",
      "outputs": [],
      "stateMutability": "payable",
      "type": "function"
    },
    {
      "inputs": [
        {
          "internalType": "string",
          "name": "tokenURL",
          "type": "string"
        },
        {
          "internalType": "uint256",
          "name": "inputPrice",
          "type": "uint256"
        }
      ],
      "name": "createToken",
      "outputs": [
        {
          "internalType": "uint256",
          "name": "",
          "type": "uint256"
        }
      ],
      "stateMutability": "payable",
      "type": "function"
    },
    {
      "inputs": [],
      "name": "fetchCollectionItem",
      "outputs": [
        {
          "components": [
            {
              "internalType": "uint256",
              "name": "tokenId",
              "type": "uint256"
            },
            {
              "internalType": "address payable",
              "name": "seller",
              "type": "address"
            },
            {
              "internalType": "address payable",
              "name": "owner",
              "type": "address"
            },
            {
              "internalType": "uint256",
              "name": "price",
              "type": "uint256"
            },
            {
              "internalType": "bool",
              "name": "sold",
              "type": "bool"
            }
          ],
          "internalType": "struct NFTMarketplace.MarketItem[]",
          "name": "",
          "type": "tuple[]"
        }
      ],
      "stateMutability": "view",
      "type": "function"
    },
    {
      "inputs": [],
      "name": "fetchListingItem",
      "outputs": [
        {
          "components": [
            {
              "internalType": "uint256",
              "name": "tokenId",
              "type": "uint256"
            },
            {
              "internalType": "address payable",
              "name": "seller",
              "type": "address"
            },
            {
              "internalType": "address payable",
              "name": "owner",
              "type": "address"
            },
            {
              "internalType": "uint256",
              "name": "price",
              "type": "uint256"
            },
            {
              "internalType": "bool",
              "name": "sold",
              "type": "bool"
            }
          ],
          "internalType": "struct NFTMarketplace.MarketItem[]",
          "name": "",
          "type": "tuple[]"
        }
      ],
      "stateMutability": "view",
      "type": "function"
    },
    {
      "inputs": [],
      "name": "fetchMarketItem",
      "outputs": [
        {
          "components": [
            {
              "internalType": "uint256",
              "name": "tokenId",
              "type": "uint256"
            },
            {
              "internalType": "address payable",
              "name": "seller",
              "type": "address"
            },
            {
              "internalType": "address payable",
              "name": "owner",
              "type": "address"
            },
            {
              "internalType": "uint256",
              "name": "price",
              "type": "uint256"
            },
            {
              "internalType": "bool",
              "name": "sold",
              "type": "bool"
            }
          ],
          "internalType": "struct NFTMarketplace.MarketItem[]",
          "name": "",
          "type": "tuple[]"
        }
      ],
      "stateMutability": "view",
      "type": "function"
    },
    {
      "inputs": [
        {
          "internalType": "uint256",
          "name": "tokenId",
          "type": "uint256"
        }
      ],
      "name": "getApproved",
      "outputs": [
        {
          "internalType": "address",
          "name": "",
          "type": "address"
        }
      ],
      "stateMutability": "view",
      "type": "function"
    },
    {
      "inputs": [],
      "name": "getListingPrice",
      "outputs": [
        {
          "internalType": "uint256",
          "name": "",
          "type": "uint256"
        }
      ],
      "stateMutability": "view",
      "type": "function"
    },
    {
      "inputs": [
        {
          "internalType": "address",
          "name": "owner",
          "type": "address"
        },
        {
          "internalType": "address",
          "name": "operator",
          "type": "address"
        }
      ],
      "name": "isApprovedForAll",
      "outputs": [
        {
          "internalType": "bool",
          "name": "",
          "type": "bool"
        }
      ],
      "stateMutability": "view",
      "type": "function"
    },
    {
      "inputs": [],
      "name": "name",
      "outputs": [
        {
          "internalType": "string",
          "name": "",
          "type": "string"
        }
      ],
      "stateMutability": "view",
      "type": "function"
    },
    {
      "inputs": [
        {
          "internalType": "uint256",
          "name": "tokenId",
          "type": "uint256"
        }
      ],
      "name": "ownerOf",
      "outputs": [
        {
          "internalType": "address",
          "name": "",
          "type": "address"
        }
      ],
      "stateMutability": "view",
      "type": "function"
    },
    {
      "inputs": [
        {
          "internalType": "uint256",
          "name": "tokenId",
          "type": "uint256"
        },
        {
          "internalType": "uint256",
          "name": "price",
          "type": "uint256"
        }
      ],
      "name": "resellToken",
      "outputs": [],
      "stateMutability": "payable",
      "type": "function"
    },
    {
      "inputs": [
        {
          "internalType": "address",
          "name": "from",
          "type": "address"
        },
        {
          "internalType": "address",
          "name": "to",
          "type": "address"
        },
        {
          "internalType": "uint256",
          "name": "tokenId",
          "type": "uint256"
        }
      ],
      "name": "safeTransferFrom",
      "outputs": [],
      "stateMutability": "nonpayable",
      "type": "function"
    },
    {
      "inputs": [
        {
          "internalType": "address",
          "name": "from",
          "type": "address"
        },
        {
          "internalType": "address",
          "name": "to",
          "type": "address"
        },
        {
          "internalType": "uint256",
          "name": "tokenId",
          "type": "uint256"
        },
        {
          "internalType": "bytes",
          "name": "data",
          "type": "bytes"
        }
      ],
      "name": "safeTransferFrom",
      "outputs": [],
      "stateMutability": "nonpayable",
      "type": "function"
    },
    {
      "inputs": [
        {
          "internalType": "address",
          "name": "operator",
          "type": "address"
        },
        {
          "internalType": "bool",
          "name": "approved",
          "type": "bool"
        }
      ],
      "name": "setApprovalForAll",
      "outputs": [],
      "stateMutability": "nonpayable",
      "type": "function"
    },
    {
      "inputs": [
        {
          "internalType": "bytes4",
          "name": "interfaceId",
          "type": "bytes4"
        }
      ],
      "name": "supportsInterface",
      "outputs": [
        {
          "internalType": "bool",
          "name": "",
          "type": "bool"
        }
      ],
      "stateMutability": "view",
      "type": "function"
    },
    {
      "inputs": [],
      "name": "symbol",
      "outputs": [
        {
          "internalType": "string",
          "name": "",
          "type": "string"
        }
      ],
      "stateMutability": "view",
      "type": "function"
    },
    {
      "inputs": [
        {
          "internalType": "uint256",
          "name": "tokenId",
          "type": "uint256"
        }
      ],
      "name": "tokenURI",
      "outputs": [
        {
          "internalType": "string",
          "name": "",
          "type": "string"
        }
      ],
      "stateMutability": "view",
      "type": "function"
    },
    {
      "inputs": [
        {
          "internalType": "address",
          "name": "from",
          "type": "address"
        },
        {
          "internalType": "address",
          "name": "to",
          "type": "address"
        },
        {
          "internalType": "uint256",
          "name": "tokenId",
          "type": "uint256"
        }
      ],
      "name": "transferFrom",
      "outputs": [],
      "stateMutability": "nonpayable",
      "type": "function"
    },
    {
      "inputs": [
        {
          "internalType": "uint256",
          "name": "_listingPrice",
          "type": "uint256"
        }
      ],
      "name": "updateListingPrice",
      "outputs": [],
      "stateMutability": "payable",
      "type": "function"
    }
  ],
  "bytecode": "0x60806040526701717b72f0a400006009553480156200001d57600080fd5b506040518060400160405280600c81526020017f667255495420546f6b656e7300000000000000000000000000000000000000008152506040518060400160405280600381526020017f55495400000000000000000000000000000000000000000000000000000000008152508160009080519060200190620000a292919062000105565b508060019080519060200190620000bb92919062000105565b50505033600a60006101000a81548173ffffffffffffffffffffffffffffffffffffffff021916908373ffffffffffffffffffffffffffffffffffffffff1602179055506200021a565b8280546200011390620001b5565b90600052602060002090601f01602090048101928262000137576000855562000183565b82601f106200015257805160ff191683800117855562000183565b8280016001018555821562000183579182015b828111156200018257825182559160200191906001019062000165565b5b50905062000192919062000196565b5090565b5b80821115620001b157600081600090555060010162000197565b5090565b60006002820490506001821680620001ce57607f821691505b60208210811415620001e557620001e4620001eb565b5b50919050565b7f4e487b7100000000000000000000000000000000000000000000000000000000600052602260045260246000fd5b61423d806200022a6000396000f3fe60806040526004361061012a5760003560e01c80636352211e116100ab578063a22cb4651161006f578063a22cb465146103ec578063ae677aa314610415578063b88d4fde14610431578063c87b56dd1461045a578063e219fc7514610497578063e985e9c5146104b35761012a565b80636352211e146102ec57806370a082311461032957806372b3b620146103665780638fafd0211461039657806395d89b41146103c15761012a565b8063157f6ef5116100f2578063157f6ef51461022857806323b872dd14610253578063351901c31461027c57806342842e0e146102985780635bef6045146102c15761012a565b806301ffc9a71461012f57806306fdde031461016c578063081812fc14610197578063095ea7b3146101d457806312e85585146101fd575b600080fd5b34801561013b57600080fd5b50610156600480360381019061015191906130c1565b6104f0565b60405161016391906136ca565b60405180910390f35b34801561017857600080fd5b506101816105d2565b60405161018e91906136e5565b60405180910390f35b3480156101a357600080fd5b506101be60048036038101906101b99190613167565b610664565b6040516101cb9190613641565b60405180910390f35b3480156101e057600080fd5b506101fb60048036038101906101f69190613085565b6106aa565b005b34801561020957600080fd5b506102126107c2565b60405161021f9190613947565b60405180910390f35b34801561023457600080fd5b5061023d6107cc565b60405161024a91906136a8565b60405180910390f35b34801561025f57600080fd5b5061027a60048036038101906102759190612f7f565b610b04565b005b61029660048036038101906102919190613167565b610b64565b005b3480156102a457600080fd5b506102bf60048036038101906102ba9190612f7f565b610d46565b005b3480156102cd57600080fd5b506102d6610d66565b6040516102e391906136a8565b60405180910390f35b3480156102f857600080fd5b50610313600480360381019061030e9190613167565b61109e565b6040516103209190613641565b60405180910390f35b34801561033557600080fd5b50610350600480360381019061034b9190612f1a565b611125565b60405161035d9190613947565b60405180910390f35b610380600480360381019061037b9190613113565b6111dd565b60405161038d9190613947565b60405180910390f35b3480156103a257600080fd5b506103ab61121f565b6040516103b891906136a8565b60405180910390f35b3480156103cd57600080fd5b506103d66114ca565b6040516103e391906136e5565b60405180910390f35b3480156103f857600080fd5b50610413600480360381019061040e9190613049565b61155c565b005b61042f600480360381019061042a9190613167565b611572565b005b34801561043d57600080fd5b5061045860048036038101906104539190612fce565b61160c565b005b34801561046657600080fd5b50610481600480360381019061047c9190613167565b61166e565b60405161048e91906136e5565b60405180910390f35b6104b160048036038101906104ac9190613190565b611781565b005b3480156104bf57600080fd5b506104da60048036038101906104d59190612f43565b611976565b6040516104e791906136ca565b60405180910390f35b60007f80ac58cd000000000000000000000000000000000000000000000000000000007bffffffffffffffffffffffffffffffffffffffffffffffffffffffff1916827bffffffffffffffffffffffffffffffffffffffffffffffffffffffff191614806105bb57507f5b5e139f000000000000000000000000000000000000000000000000000000007bffffffffffffffffffffffffffffffffffffffffffffffffffffffff1916827bffffffffffffffffffffffffffffffffffffffffffffffffffffffff1916145b806105cb57506105ca82611a0a565b5b9050919050565b6060600080546105e190613bb7565b80601f016020809104026020016040519081016040528092919081815260200182805461060d90613bb7565b801561065a5780601f1061062f5761010080835404028352916020019161065a565b820191906000526020600020905b81548152906001019060200180831161063d57829003601f168201915b5050505050905090565b600061066f82611a74565b6004600083815260200190815260200160002060009054906101000a900473ffffffffffffffffffffffffffffffffffffffff169050919050565b60006106b58261109e565b90508073ffffffffffffffffffffffffffffffffffffffff168373ffffffffffffffffffffffffffffffffffffffff161415610726576040517f08c379a000000000000000000000000000000000000000000000000000000000815260040161071d906138c7565b60405180910390fd5b8073ffffffffffffffffffffffffffffffffffffffff16610745611abf565b73ffffffffffffffffffffffffffffffffffffffff16148061077457506107738161076e611abf565b611976565b5b6107b3576040517f08c379a00000000000000000000000000000000000000000000000000000000081526004016107aa906138e7565b60405180910390fd5b6107bd8383611ac7565b505050565b6000600954905090565b606060006107da6007611b80565b905060008060005b83811015610882573373ffffffffffffffffffffffffffffffffffffffff16600b60006001846108129190613a65565b815260200190815260200160002060020160009054906101000a900473ffffffffffffffffffffffffffffffffffffffff1673ffffffffffffffffffffffffffffffffffffffff16141561086f57818061086b90613c1a565b9250505b808061087a90613c1a565b9150506107e2565b5060008167ffffffffffffffff8111156108c5577f4e487b7100000000000000000000000000000000000000000000000000000000600052604160045260246000fd5b6040519080825280602002602001820160405280156108fe57816020015b6108eb612ce1565b8152602001906001900390816108e35790505b50905060005b84811015610af9573373ffffffffffffffffffffffffffffffffffffffff16600b60006001846109349190613a65565b815260200190815260200160002060020160009054906101000a900473ffffffffffffffffffffffffffffffffffffffff1673ffffffffffffffffffffffffffffffffffffffff161415610ae65760006001826109919190613a65565b90506000600b60008381526020019081526020016000206040518060a0016040529081600082015481526020016001820160009054906101000a900473ffffffffffffffffffffffffffffffffffffffff1673ffffffffffffffffffffffffffffffffffffffff1673ffffffffffffffffffffffffffffffffffffffff1681526020016002820160009054906101000a900473ffffffffffffffffffffffffffffffffffffffff1673ffffffffffffffffffffffffffffffffffffffff1673ffffffffffffffffffffffffffffffffffffffff168152602001600382015481526020016004820160009054906101000a900460ff161515151581525050905080848781518110610aca577f4e487b7100000000000000000000000000000000000000000000000000000000600052603260045260246000fd5b60200260200101819052508580610ae090613c1a565b96505050505b8080610af190613c1a565b915050610904565b508094505050505090565b610b15610b0f611abf565b82611b8e565b610b54576040517f08c379a0000000000000000000000000000000000000000000000000000000008152600401610b4b90613707565b60405180910390fd5b610b5f838383611c23565b505050565b6000600b6000838152602001908152602001600020600301549050348114610bc1576040517f08c379a0000000000000000000000000000000000000000000000000000000008152600401610bb890613727565b60405180910390fd5b33600b600084815260200190815260200160002060020160006101000a81548173ffffffffffffffffffffffffffffffffffffffff021916908373ffffffffffffffffffffffffffffffffffffffff1602179055506001600b600084815260200190815260200160002060040160006101000a81548160ff021916908315150217905550610c4f6008611f1d565b610c5a303384611c23565b600a60009054906101000a900473ffffffffffffffffffffffffffffffffffffffff1673ffffffffffffffffffffffffffffffffffffffff166108fc6009549081150290604051600060405180830381858888f19350505050158015610cc4573d6000803e3d6000fd5b50600b600083815260200190815260200160002060010160009054906101000a900473ffffffffffffffffffffffffffffffffffffffff1673ffffffffffffffffffffffffffffffffffffffff166108fc349081150290604051600060405180830381858888f19350505050158015610d41573d6000803e3d6000fd5b505050565b610d618383836040518060200160405280600081525061160c565b505050565b60606000610d746007611b80565b905060008060005b83811015610e1c573373ffffffffffffffffffffffffffffffffffffffff16600b6000600184610dac9190613a65565b815260200190815260200160002060010160009054906101000a900473ffffffffffffffffffffffffffffffffffffffff1673ffffffffffffffffffffffffffffffffffffffff161415610e09578180610e0590613c1a565b9250505b8080610e1490613c1a565b915050610d7c565b5060008167ffffffffffffffff811115610e5f577f4e487b7100000000000000000000000000000000000000000000000000000000600052604160045260246000fd5b604051908082528060200260200182016040528015610e9857816020015b610e85612ce1565b815260200190600190039081610e7d5790505b50905060005b84811015611093573373ffffffffffffffffffffffffffffffffffffffff16600b6000600184610ece9190613a65565b815260200190815260200160002060010160009054906101000a900473ffffffffffffffffffffffffffffffffffffffff1673ffffffffffffffffffffffffffffffffffffffff161415611080576000600182610f2b9190613a65565b90506000600b60008381526020019081526020016000206040518060a0016040529081600082015481526020016001820160009054906101000a900473ffffffffffffffffffffffffffffffffffffffff1673ffffffffffffffffffffffffffffffffffffffff1673ffffffffffffffffffffffffffffffffffffffff1681526020016002820160009054906101000a900473ffffffffffffffffffffffffffffffffffffffff1673ffffffffffffffffffffffffffffffffffffffff1673ffffffffffffffffffffffffffffffffffffffff168152602001600382015481526020016004820160009054906101000a900460ff161515151581525050905080848781518110611064577f4e487b7100000000000000000000000000000000000000000000000000000000600052603260045260246000fd5b6020026020010181905250858061107a90613c1a565b96505050505b808061108b90613c1a565b915050610e9e565b508094505050505090565b6000806110aa83611f33565b9050600073ffffffffffffffffffffffffffffffffffffffff168173ffffffffffffffffffffffffffffffffffffffff16141561111c576040517f08c379a0000000000000000000000000000000000000000000000000000000008152600401611113906138a7565b60405180910390fd5b80915050919050565b60008073ffffffffffffffffffffffffffffffffffffffff168273ffffffffffffffffffffffffffffffffffffffff161415611196576040517f08c379a000000000000000000000000000000000000000000000000000000000815260040161118d90613827565b60405180910390fd5b600360008373ffffffffffffffffffffffffffffffffffffffff1673ffffffffffffffffffffffffffffffffffffffff168152602001908152602001600020549050919050565b60006111e96007611f1d565b60006111f56007611b80565b90506112013382611f70565b61120b818561218e565b6112158184612202565b8091505092915050565b6060600061122d6007611b80565b9050600061123b6008611b80565b826112469190613abb565b90506000808267ffffffffffffffff81111561128b577f4e487b7100000000000000000000000000000000000000000000000000000000600052604160045260246000fd5b6040519080825280602002602001820160405280156112c457816020015b6112b1612ce1565b8152602001906001900390816112a95790505b50905060005b848110156114bf573073ffffffffffffffffffffffffffffffffffffffff16600b60006001846112fa9190613a65565b815260200190815260200160002060020160009054906101000a900473ffffffffffffffffffffffffffffffffffffffff1673ffffffffffffffffffffffffffffffffffffffff1614156114ac5760006001826113579190613a65565b90506000600b60008381526020019081526020016000206040518060a0016040529081600082015481526020016001820160009054906101000a900473ffffffffffffffffffffffffffffffffffffffff1673ffffffffffffffffffffffffffffffffffffffff1673ffffffffffffffffffffffffffffffffffffffff1681526020016002820160009054906101000a900473ffffffffffffffffffffffffffffffffffffffff1673ffffffffffffffffffffffffffffffffffffffff1673ffffffffffffffffffffffffffffffffffffffff168152602001600382015481526020016004820160009054906101000a900460ff161515151581525050905080848681518110611490577f4e487b7100000000000000000000000000000000000000000000000000000000600052603260045260246000fd5b602002602001018190525084806114a690613c1a565b95505050505b80806114b790613c1a565b9150506112ca565b508094505050505090565b6060600180546114d990613bb7565b80601f016020809104026020016040519081016040528092919081815260200182805461150590613bb7565b80156115525780601f1061152757610100808354040283529160200191611552565b820191906000526020600020905b81548152906001019060200180831161153557829003601f168201915b5050505050905090565b61156e611567611abf565b83836123bb565b5050565b3373ffffffffffffffffffffffffffffffffffffffff16600a60009054906101000a900473ffffffffffffffffffffffffffffffffffffffff1673ffffffffffffffffffffffffffffffffffffffff1614611602576040517f08c379a00000000000000000000000000000000000000000000000000000000081526004016115f990613807565b60405180910390fd5b8060098190555050565b61161d611617611abf565b83611b8e565b61165c576040517f08c379a000000000000000000000000000000000000000000000000000000000815260040161165390613707565b60405180910390fd5b61166884848484612528565b50505050565b606061167982611a74565b600060066000848152602001908152602001600020805461169990613bb7565b80601f01602080910402602001604051908101604052809291908181526020018280546116c590613bb7565b80156117125780601f106116e757610100808354040283529160200191611712565b820191906000526020600020905b8154815290600101906020018083116116f557829003601f168201915b505050505090506000611723612584565b905060008151141561173957819250505061177c565b60008251111561176e57808260405160200161175692919061361d565b6040516020818303038152906040529250505061177c565b6117778461259b565b925050505b919050565b3373ffffffffffffffffffffffffffffffffffffffff16600b600084815260200190815260200160002060020160009054906101000a900473ffffffffffffffffffffffffffffffffffffffff1673ffffffffffffffffffffffffffffffffffffffff1614611825576040517f08c379a000000000000000000000000000000000000000000000000000000000815260040161181c90613907565b60405180910390fd5b6009543414611869576040517f08c379a000000000000000000000000000000000000000000000000000000000815260040161186090613927565b60405180910390fd5b6000600b600084815260200190815260200160002060040160006101000a81548160ff02191690831515021790555080600b60008481526020019081526020016000206003018190555033600b600084815260200190815260200160002060010160006101000a81548173ffffffffffffffffffffffffffffffffffffffff021916908373ffffffffffffffffffffffffffffffffffffffff16021790555030600b600084815260200190815260200160002060020160006101000a81548173ffffffffffffffffffffffffffffffffffffffff021916908373ffffffffffffffffffffffffffffffffffffffff1602179055506119676008612603565b611972333084611c23565b5050565b6000600560008473ffffffffffffffffffffffffffffffffffffffff1673ffffffffffffffffffffffffffffffffffffffff16815260200190815260200160002060008373ffffffffffffffffffffffffffffffffffffffff1673ffffffffffffffffffffffffffffffffffffffff16815260200190815260200160002060009054906101000a900460ff16905092915050565b60007f01ffc9a7000000000000000000000000000000000000000000000000000000007bffffffffffffffffffffffffffffffffffffffffffffffffffffffff1916827bffffffffffffffffffffffffffffffffffffffffffffffffffffffff1916149050919050565b611a7d8161265f565b611abc576040517f08c379a0000000000000000000000000000000000000000000000000000000008152600401611ab3906138a7565b60405180910390fd5b50565b600033905090565b816004600083815260200190815260200160002060006101000a81548173ffffffffffffffffffffffffffffffffffffffff021916908373ffffffffffffffffffffffffffffffffffffffff160217905550808273ffffffffffffffffffffffffffffffffffffffff16611b3a8361109e565b73ffffffffffffffffffffffffffffffffffffffff167f8c5be1e5ebec7d5bd14f71427d1e84f3dd0314c0f7b2291e5b200ac8c7c3b92560405160405180910390a45050565b600081600001549050919050565b600080611b9a8361109e565b90508073ffffffffffffffffffffffffffffffffffffffff168473ffffffffffffffffffffffffffffffffffffffff161480611bdc5750611bdb8185611976565b5b80611c1a57508373ffffffffffffffffffffffffffffffffffffffff16611c0284610664565b73ffffffffffffffffffffffffffffffffffffffff16145b91505092915050565b8273ffffffffffffffffffffffffffffffffffffffff16611c438261109e565b73ffffffffffffffffffffffffffffffffffffffff1614611c99576040517f08c379a0000000000000000000000000000000000000000000000000000000008152600401611c9090613787565b60405180910390fd5b600073ffffffffffffffffffffffffffffffffffffffff168273ffffffffffffffffffffffffffffffffffffffff161415611d09576040517f08c379a0000000000000000000000000000000000000000000000000000000008152600401611d00906137c7565b60405180910390fd5b611d1683838360016126a0565b8273ffffffffffffffffffffffffffffffffffffffff16611d368261109e565b73ffffffffffffffffffffffffffffffffffffffff1614611d8c576040517f08c379a0000000000000000000000000000000000000000000000000000000008152600401611d8390613787565b60405180910390fd5b6004600082815260200190815260200160002060006101000a81549073ffffffffffffffffffffffffffffffffffffffff02191690556001600360008573ffffffffffffffffffffffffffffffffffffffff1673ffffffffffffffffffffffffffffffffffffffff168152602001908152602001600020600082825403925050819055506001600360008473ffffffffffffffffffffffffffffffffffffffff1673ffffffffffffffffffffffffffffffffffffffff16815260200190815260200160002060008282540192505081905550816002600083815260200190815260200160002060006101000a81548173ffffffffffffffffffffffffffffffffffffffff021916908373ffffffffffffffffffffffffffffffffffffffff160217905550808273ffffffffffffffffffffffffffffffffffffffff168473ffffffffffffffffffffffffffffffffffffffff167fddf252ad1be2c89b69c2b068fc378daa952ba7f163c4a11628f55a4df523b3ef60405160405180910390a4611f1883838360016127c6565b505050565b6001816000016000828254019250508190555050565b60006002600083815260200190815260200160002060009054906101000a900473ffffffffffffffffffffffffffffffffffffffff169050919050565b600073ffffffffffffffffffffffffffffffffffffffff168273ffffffffffffffffffffffffffffffffffffffff161415611fe0576040517f08c379a0000000000000000000000000000000000000000000000000000000008152600401611fd790613867565b60405180910390fd5b611fe98161265f565b15612029576040517f08c379a0000000000000000000000000000000000000000000000000000000008152600401612020906137a7565b60405180910390fd5b6120376000838360016126a0565b6120408161265f565b15612080576040517f08c379a0000000000000000000000000000000000000000000000000000000008152600401612077906137a7565b60405180910390fd5b6001600360008473ffffffffffffffffffffffffffffffffffffffff1673ffffffffffffffffffffffffffffffffffffffff16815260200190815260200160002060008282540192505081905550816002600083815260200190815260200160002060006101000a81548173ffffffffffffffffffffffffffffffffffffffff021916908373ffffffffffffffffffffffffffffffffffffffff160217905550808273ffffffffffffffffffffffffffffffffffffffff16600073ffffffffffffffffffffffffffffffffffffffff167fddf252ad1be2c89b69c2b068fc378daa952ba7f163c4a11628f55a4df523b3ef60405160405180910390a461218a6000838360016127c6565b5050565b6121978261265f565b6121d6576040517f08c379a00000000000000000000000000000000000000000000000000000000081526004016121cd90613847565b60405180910390fd5b806006600084815260200190815260200160002090805190602001906121fd929190612d3e565b505050565b60008111612245576040517f08c379a000000000000000000000000000000000000000000000000000000000815260040161223c90613887565b60405180910390fd5b6009543414612289576040517f08c379a000000000000000000000000000000000000000000000000000000000815260040161228090613927565b60405180910390fd5b6040518060a001604052808381526020013373ffffffffffffffffffffffffffffffffffffffff1681526020013073ffffffffffffffffffffffffffffffffffffffff16815260200182815260200160001515815250600b60008481526020019081526020016000206000820151816000015560208201518160010160006101000a81548173ffffffffffffffffffffffffffffffffffffffff021916908373ffffffffffffffffffffffffffffffffffffffff16021790555060408201518160020160006101000a81548173ffffffffffffffffffffffffffffffffffffffff021916908373ffffffffffffffffffffffffffffffffffffffff1602179055506060820151816003015560808201518160040160006101000a81548160ff0219169083151502179055509050505050565b8173ffffffffffffffffffffffffffffffffffffffff168373ffffffffffffffffffffffffffffffffffffffff16141561242a576040517f08c379a0000000000000000000000000000000000000000000000000000000008152600401612421906137e7565b60405180910390fd5b80600560008573ffffffffffffffffffffffffffffffffffffffff1673ffffffffffffffffffffffffffffffffffffffff16815260200190815260200160002060008473ffffffffffffffffffffffffffffffffffffffff1673ffffffffffffffffffffffffffffffffffffffff16815260200190815260200160002060006101000a81548160ff0219169083151502179055508173ffffffffffffffffffffffffffffffffffffffff168373ffffffffffffffffffffffffffffffffffffffff167f17307eab39ab6107e8899845ad3d59bd9653f200f220920489ca2b5937696c318360405161251b91906136ca565b60405180910390a3505050565b612533848484611c23565b61253f848484846127cc565b61257e576040517f08c379a000000000000000000000000000000000000000000000000000000000815260040161257590613767565b60405180910390fd5b50505050565b606060405180602001604052806000815250905090565b60606125a682611a74565b60006125b0612584565b905060008151116125d057604051806020016040528060008152506125fb565b806125da84612963565b6040516020016125eb92919061361d565b6040516020818303038152906040525b915050919050565b6000816000015490506000811161264f576040517f08c379a000000000000000000000000000000000000000000000000000000000815260040161264690613747565b60405180910390fd5b6001810382600001819055505050565b60008073ffffffffffffffffffffffffffffffffffffffff1661268183611f33565b73ffffffffffffffffffffffffffffffffffffffff1614159050919050565b60018111156127c057600073ffffffffffffffffffffffffffffffffffffffff168473ffffffffffffffffffffffffffffffffffffffff16146127345780600360008673ffffffffffffffffffffffffffffffffffffffff1673ffffffffffffffffffffffffffffffffffffffff168152602001908152602001600020600082825461272c9190613abb565b925050819055505b600073ffffffffffffffffffffffffffffffffffffffff168373ffffffffffffffffffffffffffffffffffffffff16146127bf5780600360008573ffffffffffffffffffffffffffffffffffffffff1673ffffffffffffffffffffffffffffffffffffffff16815260200190815260200160002060008282546127b79190613a65565b925050819055505b5b50505050565b50505050565b60006127ed8473ffffffffffffffffffffffffffffffffffffffff16612a87565b15612956578373ffffffffffffffffffffffffffffffffffffffff1663150b7a02612816611abf565b8786866040518563ffffffff1660e01b8152600401612838949392919061365c565b602060405180830381600087803b15801561285257600080fd5b505af192505050801561288357506040513d601f19601f8201168201806040525081019061288091906130ea565b60015b612906573d80600081146128b3576040519150601f19603f3d011682016040523d82523d6000602084013e6128b8565b606091505b506000815114156128fe576040517f08c379a00000000000000000000000000000000000000000000000000000000081526004016128f590613767565b60405180910390fd5b805181602001fd5b63150b7a0260e01b7bffffffffffffffffffffffffffffffffffffffffffffffffffffffff1916817bffffffffffffffffffffffffffffffffffffffffffffffffffffffff19161491505061295b565b600190505b949350505050565b60606000600161297284612aaa565b01905060008167ffffffffffffffff8111156129b7577f4e487b7100000000000000000000000000000000000000000000000000000000600052604160045260246000fd5b6040519080825280601f01601f1916602001820160405280156129e95781602001600182028036833780820191505090505b509050600082602001820190505b600115612a7c578080600190039150507f3031323334353637383961626364656600000000000000000000000000000000600a86061a8153600a8581612a66577f4e487b7100000000000000000000000000000000000000000000000000000000600052601260045260246000fd5b0494506000851415612a7757612a7c565b6129f7565b819350505050919050565b6000808273ffffffffffffffffffffffffffffffffffffffff163b119050919050565b600080600090507a184f03e93ff9f4daa797ed6e38ed64bf6a1f0100000000000000008310612b2e577a184f03e93ff9f4daa797ed6e38ed64bf6a1f0100000000000000008381612b24577f4e487b7100000000000000000000000000000000000000000000000000000000600052601260045260246000fd5b0492506040810190505b6d04ee2d6d415b85acef81000000008310612b91576d04ee2d6d415b85acef81000000008381612b87577f4e487b7100000000000000000000000000000000000000000000000000000000600052601260045260246000fd5b0492506020810190505b662386f26fc100008310612be657662386f26fc100008381612bdc577f4e487b7100000000000000000000000000000000000000000000000000000000600052601260045260246000fd5b0492506010810190505b6305f5e1008310612c35576305f5e1008381612c2b577f4e487b7100000000000000000000000000000000000000000000000000000000600052601260045260246000fd5b0492506008810190505b6127108310612c80576127108381612c76577f4e487b7100000000000000000000000000000000000000000000000000000000600052601260045260246000fd5b0492506004810190505b60648310612cc95760648381612cbf577f4e487b7100000000000000000000000000000000000000000000000000000000600052601260045260246000fd5b0492506002810190505b600a8310612cd8576001810190505b80915050919050565b6040518060a0016040528060008152602001600073ffffffffffffffffffffffffffffffffffffffff168152602001600073ffffffffffffffffffffffffffffffffffffffff168152602001600081526020016000151581525090565b828054612d4a90613bb7565b90600052602060002090601f016020900481019282612d6c5760008555612db3565b82601f10612d8557805160ff1916838001178555612db3565b82800160010185558215612db3579182015b82811115612db2578251825591602001919060010190612d97565b5b509050612dc09190612dc4565b5090565b5b80821115612ddd576000816000905550600101612dc5565b5090565b6000612df4612def84613987565b613962565b905082815260208101848484011115612e0c57600080fd5b612e17848285613b75565b509392505050565b6000612e32612e2d846139b8565b613962565b905082815260208101848484011115612e4a57600080fd5b612e55848285613b75565b509392505050565b600081359050612e6c816141ab565b92915050565b600081359050612e81816141c2565b92915050565b600081359050612e96816141d9565b92915050565b600081519050612eab816141d9565b92915050565b600082601f830112612ec257600080fd5b8135612ed2848260208601612de1565b91505092915050565b600082601f830112612eec57600080fd5b8135612efc848260208601612e1f565b91505092915050565b600081359050612f14816141f0565b92915050565b600060208284031215612f2c57600080fd5b6000612f3a84828501612e5d565b91505092915050565b60008060408385031215612f5657600080fd5b6000612f6485828601612e5d565b9250506020612f7585828601612e5d565b9150509250929050565b600080600060608486031215612f9457600080fd5b6000612fa286828701612e5d565b9350506020612fb386828701612e5d565b9250506040612fc486828701612f05565b9150509250925092565b60008060008060808587031215612fe457600080fd5b6000612ff287828801612e5d565b945050602061300387828801612e5d565b935050604061301487828801612f05565b925050606085013567ffffffffffffffff81111561303157600080fd5b61303d87828801612eb1565b91505092959194509250565b6000806040838503121561305c57600080fd5b600061306a85828601612e5d565b925050602061307b85828601612e72565b9150509250929050565b6000806040838503121561309857600080fd5b60006130a685828601612e5d565b92505060206130b785828601612f05565b9150509250929050565b6000602082840312156130d357600080fd5b60006130e184828501612e87565b91505092915050565b6000602082840312156130fc57600080fd5b600061310a84828501612e9c565b91505092915050565b6000806040838503121561312657600080fd5b600083013567ffffffffffffffff81111561314057600080fd5b61314c85828601612edb565b925050602061315d85828601612f05565b9150509250929050565b60006020828403121561317957600080fd5b600061318784828501612f05565b91505092915050565b600080604083850312156131a357600080fd5b60006131b185828601612f05565b92505060206131c285828601612f05565b9150509250929050565b60006131d88383613597565b60a08301905092915050565b6131ed81613b01565b82525050565b6131fc81613aef565b82525050565b600061320d826139f9565b6132178185613a27565b9350613222836139e9565b8060005b8381101561325357815161323a88826131cc565b975061324583613a1a565b925050600181019050613226565b5085935050505092915050565b61326981613b13565b82525050565b61327881613b13565b82525050565b600061328982613a04565b6132938185613a38565b93506132a3818560208601613b84565b6132ac81613cf0565b840191505092915050565b60006132c282613a0f565b6132cc8185613a49565b93506132dc818560208601613b84565b6132e581613cf0565b840191505092915050565b60006132fb82613a0f565b6133058185613a5a565b9350613315818560208601613b84565b80840191505092915050565b600061332e602d83613a49565b915061333982613d01565b604082019050919050565b6000613351603283613a49565b915061335c82613d50565b604082019050919050565b6000613374601b83613a49565b915061337f82613d9f565b602082019050919050565b6000613397603283613a49565b91506133a282613dc8565b604082019050919050565b60006133ba602583613a49565b91506133c582613e17565b604082019050919050565b60006133dd601c83613a49565b91506133e882613e66565b602082019050919050565b6000613400602483613a49565b915061340b82613e8f565b604082019050919050565b6000613423601983613a49565b915061342e82613ede565b602082019050919050565b6000613446603083613a49565b915061345182613f07565b604082019050919050565b6000613469602983613a49565b915061347482613f56565b604082019050919050565b600061348c602e83613a49565b915061349782613fa5565b604082019050919050565b60006134af602083613a49565b91506134ba82613ff4565b602082019050919050565b60006134d2601b83613a49565b91506134dd8261401d565b602082019050919050565b60006134f5601883613a49565b915061350082614046565b602082019050919050565b6000613518602183613a49565b91506135238261406f565b604082019050919050565b600061353b603d83613a49565b9150613546826140be565b604082019050919050565b600061355e602283613a49565b91506135698261410d565b604082019050919050565b6000613581602b83613a49565b915061358c8261415c565b604082019050919050565b60a0820160008201516135ad60008501826135ff565b5060208201516135c060208501826131e4565b5060408201516135d360408501826131e4565b5060608201516135e660608501826135ff565b5060808201516135f96080850182613260565b50505050565b61360881613b6b565b82525050565b61361781613b6b565b82525050565b600061362982856132f0565b915061363582846132f0565b91508190509392505050565b600060208201905061365660008301846131f3565b92915050565b600060808201905061367160008301876131f3565b61367e60208301866131f3565b61368b604083018561360e565b818103606083015261369d818461327e565b905095945050505050565b600060208201905081810360008301526136c28184613202565b905092915050565b60006020820190506136df600083018461326f565b92915050565b600060208201905081810360008301526136ff81846132b7565b905092915050565b6000602082019050818103600083015261372081613321565b9050919050565b6000602082019050818103600083015261374081613344565b9050919050565b6000602082019050818103600083015261376081613367565b9050919050565b600060208201905081810360008301526137808161338a565b9050919050565b600060208201905081810360008301526137a0816133ad565b9050919050565b600060208201905081810360008301526137c0816133d0565b9050919050565b600060208201905081810360008301526137e0816133f3565b9050919050565b6000602082019050818103600083015261380081613416565b9050919050565b6000602082019050818103600083015261382081613439565b9050919050565b600060208201905081810360008301526138408161345c565b9050919050565b600060208201905081810360008301526138608161347f565b9050919050565b60006020820190508181036000830152613880816134a2565b9050919050565b600060208201905081810360008301526138a0816134c5565b9050919050565b600060208201905081810360008301526138c0816134e8565b9050919050565b600060208201905081810360008301526138e08161350b565b9050919050565b600060208201905081810360008301526139008161352e565b9050919050565b6000602082019050818103600083015261392081613551565b9050919050565b6000602082019050818103600083015261394081613574565b9050919050565b600060208201905061395c600083018461360e565b92915050565b600061396c61397d565b90506139788282613be9565b919050565b6000604051905090565b600067ffffffffffffffff8211156139a2576139a1613cc1565b5b6139ab82613cf0565b9050602081019050919050565b600067ffffffffffffffff8211156139d3576139d2613cc1565b5b6139dc82613cf0565b9050602081019050919050565b6000819050602082019050919050565b600081519050919050565b600081519050919050565b600081519050919050565b6000602082019050919050565b600082825260208201905092915050565b600082825260208201905092915050565b600082825260208201905092915050565b600081905092915050565b6000613a7082613b6b565b9150613a7b83613b6b565b9250827fffffffffffffffffffffffffffffffffffffffffffffffffffffffffffffffff03821115613ab057613aaf613c63565b5b828201905092915050565b6000613ac682613b6b565b9150613ad183613b6b565b925082821015613ae457613ae3613c63565b5b828203905092915050565b6000613afa82613b4b565b9050919050565b6000613b0c82613b4b565b9050919050565b60008115159050919050565b60007fffffffff0000000000000000000000000000000000000000000000000000000082169050919050565b600073ffffffffffffffffffffffffffffffffffffffff82169050919050565b6000819050919050565b82818337600083830152505050565b60005b83811015613ba2578082015181840152602081019050613b87565b83811115613bb1576000848401525b50505050565b60006002820490506001821680613bcf57607f821691505b60208210811415613be357613be2613c92565b5b50919050565b613bf282613cf0565b810181811067ffffffffffffffff82111715613c1157613c10613cc1565b5b80604052505050565b6000613c2582613b6b565b91507fffffffffffffffffffffffffffffffffffffffffffffffffffffffffffffffff821415613c5857613c57613c63565b5b600182019050919050565b7f4e487b7100000000000000000000000000000000000000000000000000000000600052601160045260246000fd5b7f4e487b7100000000000000000000000000000000000000000000000000000000600052602260045260246000fd5b7f4e487b7100000000000000000000000000000000000000000000000000000000600052604160045260246000fd5b6000601f19601f8301169050919050565b7f4552433732313a2063616c6c6572206973206e6f7420746f6b656e206f776e6560008201527f72206f7220617070726f76656400000000000000000000000000000000000000602082015250565b7f4d757374206861766520656e6f75676820746f6b656e7320746f20626520616260008201527f6c6520746f206275792074686973204e46540000000000000000000000000000602082015250565b7f436f756e7465723a2064656372656d656e74206f766572666c6f770000000000600082015250565b7f4552433732313a207472616e7366657220746f206e6f6e20455243373231526560008201527f63656976657220696d706c656d656e7465720000000000000000000000000000602082015250565b7f4552433732313a207472616e736665722066726f6d20696e636f72726563742060008201527f6f776e6572000000000000000000000000000000000000000000000000000000602082015250565b7f4552433732313a20746f6b656e20616c7265616479206d696e74656400000000600082015250565b7f4552433732313a207472616e7366657220746f20746865207a65726f2061646460008201527f7265737300000000000000000000000000000000000000000000000000000000602082015250565b7f4552433732313a20617070726f766520746f2063616c6c657200000000000000600082015250565b7f52657175697265206d61726b65742773206f776e657220746f206368616e676560008201527f206c697374696e67207072696365202100000000000000000000000000000000602082015250565b7f4552433732313a2061646472657373207a65726f206973206e6f74206120766160008201527f6c6964206f776e65720000000000000000000000000000000000000000000000602082015250565b7f45524337323155524953746f726167653a2055524920736574206f66206e6f6e60008201527f6578697374656e7420746f6b656e000000000000000000000000000000000000602082015250565b7f4552433732313a206d696e7420746f20746865207a65726f2061646472657373600082015250565b7f5072696365206d75737420626520686967686572207468616e20300000000000600082015250565b7f4552433732313a20696e76616c696420746f6b656e2049440000000000000000600082015250565b7f4552433732313a20617070726f76616c20746f2063757272656e74206f776e6560008201527f7200000000000000000000000000000000000000000000000000000000000000602082015250565b7f4552433732313a20617070726f76652063616c6c6572206973206e6f7420746f60008201527f6b656e206f776e6572206f7220617070726f76656420666f7220616c6c000000602082015250565b7f4f6e6c79206f776e65722063616e20706572666f726d2074686973206163746960008201527f6f6e000000000000000000000000000000000000000000000000000000000000602082015250565b7f4d757374206861766520656e6f75676820746f6b656e20746f20706179206c6960008201527f7374696e67207072696365000000000000000000000000000000000000000000602082015250565b6141b481613aef565b81146141bf57600080fd5b50565b6141cb81613b13565b81146141d657600080fd5b50565b6141e281613b1f565b81146141ed57600080fd5b50565b6141f981613b6b565b811461420457600080fd5b5056fea26469706673582212201ce4bbfb5c1b6a2d782e5e8c37c641b37b2824c7c6a37ad3e1e70d7c72191d7564736f6c63430008040033",
  "linkReferences": {},
  "deployedLinkReferences": {}
}