{
  "_format": "hh-sol-artifact-1",
  "contractName": "NFTMarketplace",
  "sourceName": "contracts/NFTMarketplace.sol",
  "abi": [
    {
      "inputs": [],
      "stateMutability": "nonpayable",
      "type": "constructor"
    },
    {
      "anonymous": false,
      "inputs": [
        {
          "indexed": true,
          "internalType": "address",
          "name": "owner",
          "type": "address"
        },
        {
          "indexed": true,
          "internalType": "address",
          "name": "approved",
          "type": "address"
        },
        {
          "indexed": true,
          "internalType": "uint256",
          "name": "tokenId",
          "type": "uint256"
        }
      ],
      "name": "Approval",
      "type": "event"
    },
    {
      "anonymous": false,
      "inputs": [
        {
          "indexed": true,
          "internalType": "address",
          "name": "owner",
          "type": "address"
        },
        {
          "indexed": true,
          "internalType": "address",
          "name": "operator",
          "type": "address"
        },
        {
          "indexed": false,
          "internalType": "bool",
          "name": "approved",
          "type": "bool"
        }
      ],
      "name": "ApprovalForAll",
      "type": "event"
    },
    {
      "anonymous": false,
      "inputs": [
        {
          "indexed": true,
          "internalType": "uint256",
          "name": "tokenId",
          "type": "uint256"
        },
        {
          "indexed": false,
          "internalType": "address",
          "name": "seller",
          "type": "address"
        },
        {
          "indexed": false,
          "internalType": "address",
          "name": "owner",
          "type": "address"
        },
        {
          "indexed": false,
          "internalType": "uint256",
          "name": "price",
          "type": "uint256"
        },
        {
          "indexed": false,
          "internalType": "bool",
          "name": "sold",
          "type": "bool"
        }
      ],
      "name": "MarketItemCreated",
      "type": "event"
    },
    {
      "anonymous": false,
      "inputs": [
        {
          "indexed": true,
          "internalType": "address",
          "name": "from",
          "type": "address"
        },
        {
          "indexed": true,
          "internalType": "address",
          "name": "to",
          "type": "address"
        },
        {
          "indexed": true,
          "internalType": "uint256",
          "name": "tokenId",
          "type": "uint256"
        }
      ],
      "name": "Transfer",
      "type": "event"
    },
    {
      "inputs": [
        {
          "internalType": "address",
          "name": "to",
          "type": "address"
        },
        {
          "internalType": "uint256",
          "name": "tokenId",
          "type": "uint256"
        }
      ],
      "name": "approve",
      "outputs": [],
      "stateMutability": "nonpayable",
      "type": "function"
    },
    {
      "inputs": [
        {
          "internalType": "address",
          "name": "owner",
          "type": "address"
        }
      ],
      "name": "balanceOf",
      "outputs": [
        {
          "internalType": "uint256",
          "name": "",
          "type": "uint256"
        }
      ],
      "stateMutability": "view",
      "type": "function"
    },
    {
      "inputs": [
        {
          "internalType": "uint256",
          "name": "tokenId",
          "type": "uint256"
        }
      ],
      "name": "buyMarketItem",
      "outputs": [],
      "stateMutability": "payable",
      "type": "function"
    },
    {
      "inputs": [
        {
          "internalType": "string",
          "name": "tokenURL",
          "type": "string"
        },
        {
          "internalType": "uint256",
          "name": "inputPrice",
          "type": "uint256"
        }
      ],
      "name": "createToken",
      "outputs": [
        {
          "internalType": "uint256",
          "name": "",
          "type": "uint256"
        }
      ],
      "stateMutability": "payable",
      "type": "function"
    },
    {
      "inputs": [],
      "name": "fetchCollectionItem",
      "outputs": [
        {
          "components": [
            {
              "internalType": "uint256",
              "name": "tokenId",
              "type": "uint256"
            },
            {
              "internalType": "address payable",
              "name": "seller",
              "type": "address"
            },
            {
              "internalType": "address payable",
              "name": "owner",
              "type": "address"
            },
            {
              "internalType": "uint256",
              "name": "price",
              "type": "uint256"
            },
            {
              "internalType": "bool",
              "name": "sold",
              "type": "bool"
            }
          ],
          "internalType": "struct NFTMarketplace.MarketItem[]",
          "name": "",
          "type": "tuple[]"
        }
      ],
      "stateMutability": "view",
      "type": "function"
    },
    {
      "inputs": [],
      "name": "fetchListingItem",
      "outputs": [
        {
          "components": [
            {
              "internalType": "uint256",
              "name": "tokenId",
              "type": "uint256"
            },
            {
              "internalType": "address payable",
              "name": "seller",
              "type": "address"
            },
            {
              "internalType": "address payable",
              "name": "owner",
              "type": "address"
            },
            {
              "internalType": "uint256",
              "name": "price",
              "type": "uint256"
            },
            {
              "internalType": "bool",
              "name": "sold",
              "type": "bool"
            }
          ],
          "internalType": "struct NFTMarketplace.MarketItem[]",
          "name": "",
          "type": "tuple[]"
        }
      ],
      "stateMutability": "view",
      "type": "function"
    },
    {
      "inputs": [],
      "name": "fetchMarketItem",
      "outputs": [
        {
          "components": [
            {
              "internalType": "uint256",
              "name": "tokenId",
              "type": "uint256"
            },
            {
              "internalType": "address payable",
              "name": "seller",
              "type": "address"
            },
            {
              "internalType": "address payable",
              "name": "owner",
              "type": "address"
            },
            {
              "internalType": "uint256",
              "name": "price",
              "type": "uint256"
            },
            {
              "internalType": "bool",
              "name": "sold",
              "type": "bool"
            }
          ],
          "internalType": "struct NFTMarketplace.MarketItem[]",
          "name": "",
          "type": "tuple[]"
        }
      ],
      "stateMutability": "view",
      "type": "function"
    },
    {
      "inputs": [
        {
          "internalType": "uint256",
          "name": "tokenId",
          "type": "uint256"
        }
      ],
      "name": "getApproved",
      "outputs": [
        {
          "internalType": "address",
          "name": "",
          "type": "address"
        }
      ],
      "stateMutability": "view",
      "type": "function"
    },
    {
      "inputs": [],
      "name": "getListingPrice",
      "outputs": [
        {
          "internalType": "uint256",
          "name": "",
          "type": "uint256"
        }
      ],
      "stateMutability": "view",
      "type": "function"
    },
    {
      "inputs": [
        {
          "internalType": "address",
          "name": "owner",
          "type": "address"
        },
        {
          "internalType": "address",
          "name": "operator",
          "type": "address"
        }
      ],
      "name": "isApprovedForAll",
      "outputs": [
        {
          "internalType": "bool",
          "name": "",
          "type": "bool"
        }
      ],
      "stateMutability": "view",
      "type": "function"
    },
    {
      "inputs": [],
      "name": "name",
      "outputs": [
        {
          "internalType": "string",
          "name": "",
          "type": "string"
        }
      ],
      "stateMutability": "view",
      "type": "function"
    },
    {
      "inputs": [
        {
          "internalType": "uint256",
          "name": "tokenId",
          "type": "uint256"
        }
      ],
      "name": "ownerOf",
      "outputs": [
        {
          "internalType": "address",
          "name": "",
          "type": "address"
        }
      ],
      "stateMutability": "view",
      "type": "function"
    },
    {
      "inputs": [
        {
          "internalType": "uint256",
          "name": "tokenId",
          "type": "uint256"
        },
        {
          "internalType": "uint256",
          "name": "price",
          "type": "uint256"
        }
      ],
      "name": "resellItem",
      "outputs": [],
      "stateMutability": "payable",
      "type": "function"
    },
    {
      "inputs": [
        {
          "internalType": "address",
          "name": "from",
          "type": "address"
        },
        {
          "internalType": "address",
          "name": "to",
          "type": "address"
        },
        {
          "internalType": "uint256",
          "name": "tokenId",
          "type": "uint256"
        }
      ],
      "name": "safeTransferFrom",
      "outputs": [],
      "stateMutability": "nonpayable",
      "type": "function"
    },
    {
      "inputs": [
        {
          "internalType": "address",
          "name": "from",
          "type": "address"
        },
        {
          "internalType": "address",
          "name": "to",
          "type": "address"
        },
        {
          "internalType": "uint256",
          "name": "tokenId",
          "type": "uint256"
        },
        {
          "internalType": "bytes",
          "name": "data",
          "type": "bytes"
        }
      ],
      "name": "safeTransferFrom",
      "outputs": [],
      "stateMutability": "nonpayable",
      "type": "function"
    },
    {
      "inputs": [
        {
          "internalType": "address",
          "name": "operator",
          "type": "address"
        },
        {
          "internalType": "bool",
          "name": "approved",
          "type": "bool"
        }
      ],
      "name": "setApprovalForAll",
      "outputs": [],
      "stateMutability": "nonpayable",
      "type": "function"
    },
    {
      "inputs": [
        {
          "internalType": "bytes4",
          "name": "interfaceId",
          "type": "bytes4"
        }
      ],
      "name": "supportsInterface",
      "outputs": [
        {
          "internalType": "bool",
          "name": "",
          "type": "bool"
        }
      ],
      "stateMutability": "view",
      "type": "function"
    },
    {
      "inputs": [],
      "name": "symbol",
      "outputs": [
        {
          "internalType": "string",
          "name": "",
          "type": "string"
        }
      ],
      "stateMutability": "view",
      "type": "function"
    },
    {
      "inputs": [
        {
          "internalType": "uint256",
          "name": "tokenId",
          "type": "uint256"
        }
      ],
      "name": "tokenURI",
      "outputs": [
        {
          "internalType": "string",
          "name": "",
          "type": "string"
        }
      ],
      "stateMutability": "view",
      "type": "function"
    },
    {
      "inputs": [
        {
          "internalType": "address",
          "name": "from",
          "type": "address"
        },
        {
          "internalType": "address",
          "name": "to",
          "type": "address"
        },
        {
          "internalType": "uint256",
          "name": "tokenId",
          "type": "uint256"
        }
      ],
      "name": "transferFrom",
      "outputs": [],
      "stateMutability": "nonpayable",
      "type": "function"
    },
    {
      "inputs": [
        {
          "internalType": "uint256",
          "name": "_listingPrice",
          "type": "uint256"
        }
      ],
      "name": "updateListingPrice",
      "outputs": [],
      "stateMutability": "payable",
      "type": "function"
    }
  ],
  "bytecode": "0x60806040526701717b72f0a400006009553480156200001d57600080fd5b506040518060400160405280600c81526020017f667255495420546f6b656e7300000000000000000000000000000000000000008152506040518060400160405280600381526020017f55495400000000000000000000000000000000000000000000000000000000008152508160009080519060200190620000a292919062000105565b508060019080519060200190620000bb92919062000105565b50505033600a60006101000a81548173ffffffffffffffffffffffffffffffffffffffff021916908373ffffffffffffffffffffffffffffffffffffffff1602179055506200021a565b8280546200011390620001b5565b90600052602060002090601f01602090048101928262000137576000855562000183565b82601f106200015257805160ff191683800117855562000183565b8280016001018555821562000183579182015b828111156200018257825182559160200191906001019062000165565b5b50905062000192919062000196565b5090565b5b80821115620001b157600081600090555060010162000197565b5090565b60006002820490506001821680620001ce57607f821691505b60208210811415620001e557620001e4620001eb565b5b50919050565b7f4e487b7100000000000000000000000000000000000000000000000000000000600052602260045260246000fd5b6142e9806200022a6000396000f3fe60806040526004361061012a5760003560e01c80636352211e116100ab578063a22cb4651161006f578063a22cb465146103ec578063ae677aa314610415578063b88d4fde14610431578063c87b56dd1461045a578063e985e9c514610497578063f9eccb3b146104d45761012a565b80636352211e146102ec57806370a082311461032957806372b3b620146103665780638fafd0211461039657806395d89b41146103c15761012a565b8063157f6ef5116100f2578063157f6ef51461022857806323b872dd14610253578063351901c31461027c57806342842e0e146102985780635bef6045146102c15761012a565b806301ffc9a71461012f57806306fdde031461016c578063081812fc14610197578063095ea7b3146101d457806312e85585146101fd575b600080fd5b34801561013b57600080fd5b506101566004803603810190610151919061314e565b6104f0565b604051610163919061379c565b60405180910390f35b34801561017857600080fd5b506101816105d2565b60405161018e91906137b7565b60405180910390f35b3480156101a357600080fd5b506101be60048036038101906101b991906131f4565b610664565b6040516101cb91906136ce565b60405180910390f35b3480156101e057600080fd5b506101fb60048036038101906101f69190613112565b6106aa565b005b34801561020957600080fd5b506102126107c2565b60405161021f9190613a19565b60405180910390f35b34801561023457600080fd5b5061023d6107cc565b60405161024a919061377a565b60405180910390f35b34801561025f57600080fd5b5061027a6004803603810190610275919061300c565b610b04565b005b610296600480360381019061029191906131f4565b610b64565b005b3480156102a457600080fd5b506102bf60048036038101906102ba919061300c565b610d46565b005b3480156102cd57600080fd5b506102d6610d66565b6040516102e3919061377a565b60405180910390f35b3480156102f857600080fd5b50610313600480360381019061030e91906131f4565b61109e565b60405161032091906136ce565b60405180910390f35b34801561033557600080fd5b50610350600480360381019061034b9190612fa7565b611125565b60405161035d9190613a19565b60405180910390f35b610380600480360381019061037b91906131a0565b6111dd565b60405161038d9190613a19565b60405180910390f35b3480156103a257600080fd5b506103ab61121f565b6040516103b8919061377a565b60405180910390f35b3480156103cd57600080fd5b506103d66114ca565b6040516103e391906137b7565b60405180910390f35b3480156103f857600080fd5b50610413600480360381019061040e91906130d6565b61155c565b005b61042f600480360381019061042a91906131f4565b611572565b005b34801561043d57600080fd5b506104586004803603810190610453919061305b565b61160c565b005b34801561046657600080fd5b50610481600480360381019061047c91906131f4565b61166e565b60405161048e91906137b7565b60405180910390f35b3480156104a357600080fd5b506104be60048036038101906104b99190612fd0565b611781565b6040516104cb919061379c565b60405180910390f35b6104ee60048036038101906104e9919061321d565b611815565b005b60007f80ac58cd000000000000000000000000000000000000000000000000000000007bffffffffffffffffffffffffffffffffffffffffffffffffffffffff1916827bffffffffffffffffffffffffffffffffffffffffffffffffffffffff191614806105bb57507f5b5e139f000000000000000000000000000000000000000000000000000000007bffffffffffffffffffffffffffffffffffffffffffffffffffffffff1916827bffffffffffffffffffffffffffffffffffffffffffffffffffffffff1916145b806105cb57506105ca82611a4d565b5b9050919050565b6060600080546105e190613c89565b80601f016020809104026020016040519081016040528092919081815260200182805461060d90613c89565b801561065a5780601f1061062f5761010080835404028352916020019161065a565b820191906000526020600020905b81548152906001019060200180831161063d57829003601f168201915b5050505050905090565b600061066f82611ab7565b6004600083815260200190815260200160002060009054906101000a900473ffffffffffffffffffffffffffffffffffffffff169050919050565b60006106b58261109e565b90508073ffffffffffffffffffffffffffffffffffffffff168373ffffffffffffffffffffffffffffffffffffffff161415610726576040517f08c379a000000000000000000000000000000000000000000000000000000000815260040161071d90613999565b60405180910390fd5b8073ffffffffffffffffffffffffffffffffffffffff16610745611b02565b73ffffffffffffffffffffffffffffffffffffffff16148061077457506107738161076e611b02565b611781565b5b6107b3576040517f08c379a00000000000000000000000000000000000000000000000000000000081526004016107aa906139b9565b60405180910390fd5b6107bd8383611b0a565b505050565b6000600954905090565b606060006107da6007611bc3565b905060008060005b83811015610882573373ffffffffffffffffffffffffffffffffffffffff16600b60006001846108129190613b37565b815260200190815260200160002060020160009054906101000a900473ffffffffffffffffffffffffffffffffffffffff1673ffffffffffffffffffffffffffffffffffffffff16141561086f57818061086b90613cec565b9250505b808061087a90613cec565b9150506107e2565b5060008167ffffffffffffffff8111156108c5577f4e487b7100000000000000000000000000000000000000000000000000000000600052604160045260246000fd5b6040519080825280602002602001820160405280156108fe57816020015b6108eb612d6e565b8152602001906001900390816108e35790505b50905060005b84811015610af9573373ffffffffffffffffffffffffffffffffffffffff16600b60006001846109349190613b37565b815260200190815260200160002060020160009054906101000a900473ffffffffffffffffffffffffffffffffffffffff1673ffffffffffffffffffffffffffffffffffffffff161415610ae65760006001826109919190613b37565b90506000600b60008381526020019081526020016000206040518060a0016040529081600082015481526020016001820160009054906101000a900473ffffffffffffffffffffffffffffffffffffffff1673ffffffffffffffffffffffffffffffffffffffff1673ffffffffffffffffffffffffffffffffffffffff1681526020016002820160009054906101000a900473ffffffffffffffffffffffffffffffffffffffff1673ffffffffffffffffffffffffffffffffffffffff1673ffffffffffffffffffffffffffffffffffffffff168152602001600382015481526020016004820160009054906101000a900460ff161515151581525050905080848781518110610aca577f4e487b7100000000000000000000000000000000000000000000000000000000600052603260045260246000fd5b60200260200101819052508580610ae090613cec565b96505050505b8080610af190613cec565b915050610904565b508094505050505090565b610b15610b0f611b02565b82611bd1565b610b54576040517f08c379a0000000000000000000000000000000000000000000000000000000008152600401610b4b906137d9565b60405180910390fd5b610b5f838383611c66565b505050565b6000600b6000838152602001908152602001600020600301549050348114610bc1576040517f08c379a0000000000000000000000000000000000000000000000000000000008152600401610bb8906137f9565b60405180910390fd5b33600b600084815260200190815260200160002060020160006101000a81548173ffffffffffffffffffffffffffffffffffffffff021916908373ffffffffffffffffffffffffffffffffffffffff1602179055506001600b600084815260200190815260200160002060040160006101000a81548160ff021916908315150217905550610c4f6008611f60565b610c5a303384611c66565b600a60009054906101000a900473ffffffffffffffffffffffffffffffffffffffff1673ffffffffffffffffffffffffffffffffffffffff166108fc6009549081150290604051600060405180830381858888f19350505050158015610cc4573d6000803e3d6000fd5b50600b600083815260200190815260200160002060010160009054906101000a900473ffffffffffffffffffffffffffffffffffffffff1673ffffffffffffffffffffffffffffffffffffffff166108fc349081150290604051600060405180830381858888f19350505050158015610d41573d6000803e3d6000fd5b505050565b610d618383836040518060200160405280600081525061160c565b505050565b60606000610d746007611bc3565b905060008060005b83811015610e1c573373ffffffffffffffffffffffffffffffffffffffff16600b6000600184610dac9190613b37565b815260200190815260200160002060010160009054906101000a900473ffffffffffffffffffffffffffffffffffffffff1673ffffffffffffffffffffffffffffffffffffffff161415610e09578180610e0590613cec565b9250505b8080610e1490613cec565b915050610d7c565b5060008167ffffffffffffffff811115610e5f577f4e487b7100000000000000000000000000000000000000000000000000000000600052604160045260246000fd5b604051908082528060200260200182016040528015610e9857816020015b610e85612d6e565b815260200190600190039081610e7d5790505b50905060005b84811015611093573373ffffffffffffffffffffffffffffffffffffffff16600b6000600184610ece9190613b37565b815260200190815260200160002060010160009054906101000a900473ffffffffffffffffffffffffffffffffffffffff1673ffffffffffffffffffffffffffffffffffffffff161415611080576000600182610f2b9190613b37565b90506000600b60008381526020019081526020016000206040518060a0016040529081600082015481526020016001820160009054906101000a900473ffffffffffffffffffffffffffffffffffffffff1673ffffffffffffffffffffffffffffffffffffffff1673ffffffffffffffffffffffffffffffffffffffff1681526020016002820160009054906101000a900473ffffffffffffffffffffffffffffffffffffffff1673ffffffffffffffffffffffffffffffffffffffff1673ffffffffffffffffffffffffffffffffffffffff168152602001600382015481526020016004820160009054906101000a900460ff161515151581525050905080848781518110611064577f4e487b7100000000000000000000000000000000000000000000000000000000600052603260045260246000fd5b6020026020010181905250858061107a90613cec565b96505050505b808061108b90613cec565b915050610e9e565b508094505050505090565b6000806110aa83611f76565b9050600073ffffffffffffffffffffffffffffffffffffffff168173ffffffffffffffffffffffffffffffffffffffff16141561111c576040517f08c379a000000000000000000000000000000000000000000000000000000000815260040161111390613979565b60405180910390fd5b80915050919050565b60008073ffffffffffffffffffffffffffffffffffffffff168273ffffffffffffffffffffffffffffffffffffffff161415611196576040517f08c379a000000000000000000000000000000000000000000000000000000000815260040161118d906138f9565b60405180910390fd5b600360008373ffffffffffffffffffffffffffffffffffffffff1673ffffffffffffffffffffffffffffffffffffffff168152602001908152602001600020549050919050565b60006111e96007611f60565b60006111f56007611bc3565b90506112013382611fb3565b61120b81856121d1565b6112158184612245565b8091505092915050565b6060600061122d6007611bc3565b9050600061123b6008611bc3565b826112469190613b8d565b90506000808267ffffffffffffffff81111561128b577f4e487b7100000000000000000000000000000000000000000000000000000000600052604160045260246000fd5b6040519080825280602002602001820160405280156112c457816020015b6112b1612d6e565b8152602001906001900390816112a95790505b50905060005b848110156114bf573073ffffffffffffffffffffffffffffffffffffffff16600b60006001846112fa9190613b37565b815260200190815260200160002060020160009054906101000a900473ffffffffffffffffffffffffffffffffffffffff1673ffffffffffffffffffffffffffffffffffffffff1614156114ac5760006001826113579190613b37565b90506000600b60008381526020019081526020016000206040518060a0016040529081600082015481526020016001820160009054906101000a900473ffffffffffffffffffffffffffffffffffffffff1673ffffffffffffffffffffffffffffffffffffffff1673ffffffffffffffffffffffffffffffffffffffff1681526020016002820160009054906101000a900473ffffffffffffffffffffffffffffffffffffffff1673ffffffffffffffffffffffffffffffffffffffff1673ffffffffffffffffffffffffffffffffffffffff168152602001600382015481526020016004820160009054906101000a900460ff161515151581525050905080848681518110611490577f4e487b7100000000000000000000000000000000000000000000000000000000600052603260045260246000fd5b602002602001018190525084806114a690613cec565b95505050505b80806114b790613cec565b9150506112ca565b508094505050505090565b6060600180546114d990613c89565b80601f016020809104026020016040519081016040528092919081815260200182805461150590613c89565b80156115525780601f1061152757610100808354040283529160200191611552565b820191906000526020600020905b81548152906001019060200180831161153557829003601f168201915b5050505050905090565b61156e611567611b02565b8383612448565b5050565b3373ffffffffffffffffffffffffffffffffffffffff16600a60009054906101000a900473ffffffffffffffffffffffffffffffffffffffff1673ffffffffffffffffffffffffffffffffffffffff1614611602576040517f08c379a00000000000000000000000000000000000000000000000000000000081526004016115f9906138d9565b60405180910390fd5b8060098190555050565b61161d611617611b02565b83611bd1565b61165c576040517f08c379a0000000000000000000000000000000000000000000000000000000008152600401611653906137d9565b60405180910390fd5b611668848484846125b5565b50505050565b606061167982611ab7565b600060066000848152602001908152602001600020805461169990613c89565b80601f01602080910402602001604051908101604052809291908181526020018280546116c590613c89565b80156117125780601f106116e757610100808354040283529160200191611712565b820191906000526020600020905b8154815290600101906020018083116116f557829003601f168201915b505050505090506000611723612611565b905060008151141561173957819250505061177c565b60008251111561176e5780826040516020016117569291906136aa565b6040516020818303038152906040529250505061177c565b61177784612628565b925050505b919050565b6000600560008473ffffffffffffffffffffffffffffffffffffffff1673ffffffffffffffffffffffffffffffffffffffff16815260200190815260200160002060008373ffffffffffffffffffffffffffffffffffffffff1673ffffffffffffffffffffffffffffffffffffffff16815260200190815260200160002060009054906101000a900460ff16905092915050565b60008111611858576040517f08c379a000000000000000000000000000000000000000000000000000000000815260040161184f90613959565b60405180910390fd5b600954341461189c576040517f08c379a0000000000000000000000000000000000000000000000000000000008152600401611893906139f9565b60405180910390fd5b600b600083815260200190815260200160002060020160009054906101000a900473ffffffffffffffffffffffffffffffffffffffff1673ffffffffffffffffffffffffffffffffffffffff163373ffffffffffffffffffffffffffffffffffffffff1614611940576040517f08c379a0000000000000000000000000000000000000000000000000000000008152600401611937906139d9565b60405180910390fd5b30600b600084815260200190815260200160002060020160006101000a81548173ffffffffffffffffffffffffffffffffffffffff021916908373ffffffffffffffffffffffffffffffffffffffff16021790555033600b600084815260200190815260200160002060010160006101000a81548173ffffffffffffffffffffffffffffffffffffffff021916908373ffffffffffffffffffffffffffffffffffffffff16021790555080600b6000848152602001908152602001600020600301819055506000600b600084815260200190815260200160002060040160006101000a81548160ff021916908315150217905550611a3e6008612690565b611a49333084611c66565b5050565b60007f01ffc9a7000000000000000000000000000000000000000000000000000000007bffffffffffffffffffffffffffffffffffffffffffffffffffffffff1916827bffffffffffffffffffffffffffffffffffffffffffffffffffffffff1916149050919050565b611ac0816126ec565b611aff576040517f08c379a0000000000000000000000000000000000000000000000000000000008152600401611af690613979565b60405180910390fd5b50565b600033905090565b816004600083815260200190815260200160002060006101000a81548173ffffffffffffffffffffffffffffffffffffffff021916908373ffffffffffffffffffffffffffffffffffffffff160217905550808273ffffffffffffffffffffffffffffffffffffffff16611b7d8361109e565b73ffffffffffffffffffffffffffffffffffffffff167f8c5be1e5ebec7d5bd14f71427d1e84f3dd0314c0f7b2291e5b200ac8c7c3b92560405160405180910390a45050565b600081600001549050919050565b600080611bdd8361109e565b90508073ffffffffffffffffffffffffffffffffffffffff168473ffffffffffffffffffffffffffffffffffffffff161480611c1f5750611c1e8185611781565b5b80611c5d57508373ffffffffffffffffffffffffffffffffffffffff16611c4584610664565b73ffffffffffffffffffffffffffffffffffffffff16145b91505092915050565b8273ffffffffffffffffffffffffffffffffffffffff16611c868261109e565b73ffffffffffffffffffffffffffffffffffffffff1614611cdc576040517f08c379a0000000000000000000000000000000000000000000000000000000008152600401611cd390613859565b60405180910390fd5b600073ffffffffffffffffffffffffffffffffffffffff168273ffffffffffffffffffffffffffffffffffffffff161415611d4c576040517f08c379a0000000000000000000000000000000000000000000000000000000008152600401611d4390613899565b60405180910390fd5b611d59838383600161272d565b8273ffffffffffffffffffffffffffffffffffffffff16611d798261109e565b73ffffffffffffffffffffffffffffffffffffffff1614611dcf576040517f08c379a0000000000000000000000000000000000000000000000000000000008152600401611dc690613859565b60405180910390fd5b6004600082815260200190815260200160002060006101000a81549073ffffffffffffffffffffffffffffffffffffffff02191690556001600360008573ffffffffffffffffffffffffffffffffffffffff1673ffffffffffffffffffffffffffffffffffffffff168152602001908152602001600020600082825403925050819055506001600360008473ffffffffffffffffffffffffffffffffffffffff1673ffffffffffffffffffffffffffffffffffffffff16815260200190815260200160002060008282540192505081905550816002600083815260200190815260200160002060006101000a81548173ffffffffffffffffffffffffffffffffffffffff021916908373ffffffffffffffffffffffffffffffffffffffff160217905550808273ffffffffffffffffffffffffffffffffffffffff168473ffffffffffffffffffffffffffffffffffffffff167fddf252ad1be2c89b69c2b068fc378daa952ba7f163c4a11628f55a4df523b3ef60405160405180910390a4611f5b8383836001612853565b505050565b6001816000016000828254019250508190555050565b60006002600083815260200190815260200160002060009054906101000a900473ffffffffffffffffffffffffffffffffffffffff169050919050565b600073ffffffffffffffffffffffffffffffffffffffff168273ffffffffffffffffffffffffffffffffffffffff161415612023576040517f08c379a000000000000000000000000000000000000000000000000000000000815260040161201a90613939565b60405180910390fd5b61202c816126ec565b1561206c576040517f08c379a000000000000000000000000000000000000000000000000000000000815260040161206390613879565b60405180910390fd5b61207a60008383600161272d565b612083816126ec565b156120c3576040517f08c379a00000000000000000000000000000000000000000000000000000000081526004016120ba90613879565b60405180910390fd5b6001600360008473ffffffffffffffffffffffffffffffffffffffff1673ffffffffffffffffffffffffffffffffffffffff16815260200190815260200160002060008282540192505081905550816002600083815260200190815260200160002060006101000a81548173ffffffffffffffffffffffffffffffffffffffff021916908373ffffffffffffffffffffffffffffffffffffffff160217905550808273ffffffffffffffffffffffffffffffffffffffff16600073ffffffffffffffffffffffffffffffffffffffff167fddf252ad1be2c89b69c2b068fc378daa952ba7f163c4a11628f55a4df523b3ef60405160405180910390a46121cd600083836001612853565b5050565b6121da826126ec565b612219576040517f08c379a000000000000000000000000000000000000000000000000000000000815260040161221090613919565b60405180910390fd5b80600660008481526020019081526020016000209080519060200190612240929190612dcb565b505050565b60008111612288576040517f08c379a000000000000000000000000000000000000000000000000000000000815260040161227f90613959565b60405180910390fd5b60095434146122cc576040517f08c379a00000000000000000000000000000000000000000000000000000000081526004016122c3906139f9565b60405180910390fd5b6040518060a001604052808381526020013373ffffffffffffffffffffffffffffffffffffffff1681526020013073ffffffffffffffffffffffffffffffffffffffff16815260200182815260200160001515815250600b60008481526020019081526020016000206000820151816000015560208201518160010160006101000a81548173ffffffffffffffffffffffffffffffffffffffff021916908373ffffffffffffffffffffffffffffffffffffffff16021790555060408201518160020160006101000a81548173ffffffffffffffffffffffffffffffffffffffff021916908373ffffffffffffffffffffffffffffffffffffffff1602179055506060820151816003015560808201518160040160006101000a81548160ff021916908315150217905550905050612405333084611c66565b817fb640004f1d14576d0c209e240cad0410e0d8c0c33a09375861fbadae2588a98d333084600060405161243c94939291906136e9565b60405180910390a25050565b8173ffffffffffffffffffffffffffffffffffffffff168373ffffffffffffffffffffffffffffffffffffffff1614156124b7576040517f08c379a00000000000000000000000000000000000000000000000000000000081526004016124ae906138b9565b60405180910390fd5b80600560008573ffffffffffffffffffffffffffffffffffffffff1673ffffffffffffffffffffffffffffffffffffffff16815260200190815260200160002060008473ffffffffffffffffffffffffffffffffffffffff1673ffffffffffffffffffffffffffffffffffffffff16815260200190815260200160002060006101000a81548160ff0219169083151502179055508173ffffffffffffffffffffffffffffffffffffffff168373ffffffffffffffffffffffffffffffffffffffff167f17307eab39ab6107e8899845ad3d59bd9653f200f220920489ca2b5937696c31836040516125a8919061379c565b60405180910390a3505050565b6125c0848484611c66565b6125cc84848484612859565b61260b576040517f08c379a000000000000000000000000000000000000000000000000000000000815260040161260290613839565b60405180910390fd5b50505050565b606060405180602001604052806000815250905090565b606061263382611ab7565b600061263d612611565b9050600081511161265d5760405180602001604052806000815250612688565b80612667846129f0565b6040516020016126789291906136aa565b6040516020818303038152906040525b915050919050565b600081600001549050600081116126dc576040517f08c379a00000000000000000000000000000000000000000000000000000000081526004016126d390613819565b60405180910390fd5b6001810382600001819055505050565b60008073ffffffffffffffffffffffffffffffffffffffff1661270e83611f76565b73ffffffffffffffffffffffffffffffffffffffff1614159050919050565b600181111561284d57600073ffffffffffffffffffffffffffffffffffffffff168473ffffffffffffffffffffffffffffffffffffffff16146127c15780600360008673ffffffffffffffffffffffffffffffffffffffff1673ffffffffffffffffffffffffffffffffffffffff16815260200190815260200160002060008282546127b99190613b8d565b925050819055505b600073ffffffffffffffffffffffffffffffffffffffff168373ffffffffffffffffffffffffffffffffffffffff161461284c5780600360008573ffffffffffffffffffffffffffffffffffffffff1673ffffffffffffffffffffffffffffffffffffffff16815260200190815260200160002060008282546128449190613b37565b925050819055505b5b50505050565b50505050565b600061287a8473ffffffffffffffffffffffffffffffffffffffff16612b14565b156129e3578373ffffffffffffffffffffffffffffffffffffffff1663150b7a026128a3611b02565b8786866040518563ffffffff1660e01b81526004016128c5949392919061372e565b602060405180830381600087803b1580156128df57600080fd5b505af192505050801561291057506040513d601f19601f8201168201806040525081019061290d9190613177565b60015b612993573d8060008114612940576040519150601f19603f3d011682016040523d82523d6000602084013e612945565b606091505b5060008151141561298b576040517f08c379a000000000000000000000000000000000000000000000000000000000815260040161298290613839565b60405180910390fd5b805181602001fd5b63150b7a0260e01b7bffffffffffffffffffffffffffffffffffffffffffffffffffffffff1916817bffffffffffffffffffffffffffffffffffffffffffffffffffffffff1916149150506129e8565b600190505b949350505050565b6060600060016129ff84612b37565b01905060008167ffffffffffffffff811115612a44577f4e487b7100000000000000000000000000000000000000000000000000000000600052604160045260246000fd5b6040519080825280601f01601f191660200182016040528015612a765781602001600182028036833780820191505090505b509050600082602001820190505b600115612b09578080600190039150507f3031323334353637383961626364656600000000000000000000000000000000600a86061a8153600a8581612af3577f4e487b7100000000000000000000000000000000000000000000000000000000600052601260045260246000fd5b0494506000851415612b0457612b09565b612a84565b819350505050919050565b6000808273ffffffffffffffffffffffffffffffffffffffff163b119050919050565b600080600090507a184f03e93ff9f4daa797ed6e38ed64bf6a1f0100000000000000008310612bbb577a184f03e93ff9f4daa797ed6e38ed64bf6a1f0100000000000000008381612bb1577f4e487b7100000000000000000000000000000000000000000000000000000000600052601260045260246000fd5b0492506040810190505b6d04ee2d6d415b85acef81000000008310612c1e576d04ee2d6d415b85acef81000000008381612c14577f4e487b7100000000000000000000000000000000000000000000000000000000600052601260045260246000fd5b0492506020810190505b662386f26fc100008310612c7357662386f26fc100008381612c69577f4e487b7100000000000000000000000000000000000000000000000000000000600052601260045260246000fd5b0492506010810190505b6305f5e1008310612cc2576305f5e1008381612cb8577f4e487b7100000000000000000000000000000000000000000000000000000000600052601260045260246000fd5b0492506008810190505b6127108310612d0d576127108381612d03577f4e487b7100000000000000000000000000000000000000000000000000000000600052601260045260246000fd5b0492506004810190505b60648310612d565760648381612d4c577f4e487b7100000000000000000000000000000000000000000000000000000000600052601260045260246000fd5b0492506002810190505b600a8310612d65576001810190505b80915050919050565b6040518060a0016040528060008152602001600073ffffffffffffffffffffffffffffffffffffffff168152602001600073ffffffffffffffffffffffffffffffffffffffff168152602001600081526020016000151581525090565b828054612dd790613c89565b90600052602060002090601f016020900481019282612df95760008555612e40565b82601f10612e1257805160ff1916838001178555612e40565b82800160010185558215612e40579182015b82811115612e3f578251825591602001919060010190612e24565b5b509050612e4d9190612e51565b5090565b5b80821115612e6a576000816000905550600101612e52565b5090565b6000612e81612e7c84613a59565b613a34565b905082815260208101848484011115612e9957600080fd5b612ea4848285613c47565b509392505050565b6000612ebf612eba84613a8a565b613a34565b905082815260208101848484011115612ed757600080fd5b612ee2848285613c47565b509392505050565b600081359050612ef981614257565b92915050565b600081359050612f0e8161426e565b92915050565b600081359050612f2381614285565b92915050565b600081519050612f3881614285565b92915050565b600082601f830112612f4f57600080fd5b8135612f5f848260208601612e6e565b91505092915050565b600082601f830112612f7957600080fd5b8135612f89848260208601612eac565b91505092915050565b600081359050612fa18161429c565b92915050565b600060208284031215612fb957600080fd5b6000612fc784828501612eea565b91505092915050565b60008060408385031215612fe357600080fd5b6000612ff185828601612eea565b925050602061300285828601612eea565b9150509250929050565b60008060006060848603121561302157600080fd5b600061302f86828701612eea565b935050602061304086828701612eea565b925050604061305186828701612f92565b9150509250925092565b6000806000806080858703121561307157600080fd5b600061307f87828801612eea565b945050602061309087828801612eea565b93505060406130a187828801612f92565b925050606085013567ffffffffffffffff8111156130be57600080fd5b6130ca87828801612f3e565b91505092959194509250565b600080604083850312156130e957600080fd5b60006130f785828601612eea565b925050602061310885828601612eff565b9150509250929050565b6000806040838503121561312557600080fd5b600061313385828601612eea565b925050602061314485828601612f92565b9150509250929050565b60006020828403121561316057600080fd5b600061316e84828501612f14565b91505092915050565b60006020828403121561318957600080fd5b600061319784828501612f29565b91505092915050565b600080604083850312156131b357600080fd5b600083013567ffffffffffffffff8111156131cd57600080fd5b6131d985828601612f68565b92505060206131ea85828601612f92565b9150509250929050565b60006020828403121561320657600080fd5b600061321484828501612f92565b91505092915050565b6000806040838503121561323057600080fd5b600061323e85828601612f92565b925050602061324f85828601612f92565b9150509250929050565b60006132658383613624565b60a08301905092915050565b61327a81613bd3565b82525050565b61328981613bc1565b82525050565b600061329a82613acb565b6132a48185613af9565b93506132af83613abb565b8060005b838110156132e05781516132c78882613259565b97506132d283613aec565b9250506001810190506132b3565b5085935050505092915050565b6132f681613be5565b82525050565b61330581613be5565b82525050565b600061331682613ad6565b6133208185613b0a565b9350613330818560208601613c56565b61333981613dc2565b840191505092915050565b600061334f82613ae1565b6133598185613b1b565b9350613369818560208601613c56565b61337281613dc2565b840191505092915050565b600061338882613ae1565b6133928185613b2c565b93506133a2818560208601613c56565b80840191505092915050565b60006133bb602d83613b1b565b91506133c682613dd3565b604082019050919050565b60006133de603283613b1b565b91506133e982613e22565b604082019050919050565b6000613401601b83613b1b565b915061340c82613e71565b602082019050919050565b6000613424603283613b1b565b915061342f82613e9a565b604082019050919050565b6000613447602583613b1b565b915061345282613ee9565b604082019050919050565b600061346a601c83613b1b565b915061347582613f38565b602082019050919050565b600061348d602483613b1b565b915061349882613f61565b604082019050919050565b60006134b0601983613b1b565b91506134bb82613fb0565b602082019050919050565b60006134d3603083613b1b565b91506134de82613fd9565b604082019050919050565b60006134f6602983613b1b565b915061350182614028565b604082019050919050565b6000613519602e83613b1b565b915061352482614077565b604082019050919050565b600061353c602083613b1b565b9150613547826140c6565b602082019050919050565b600061355f601b83613b1b565b915061356a826140ef565b602082019050919050565b6000613582601883613b1b565b915061358d82614118565b602082019050919050565b60006135a5602183613b1b565b91506135b082614141565b604082019050919050565b60006135c8603d83613b1b565b91506135d382614190565b604082019050919050565b60006135eb601d83613b1b565b91506135f6826141df565b602082019050919050565b600061360e602b83613b1b565b915061361982614208565b604082019050919050565b60a08201600082015161363a600085018261368c565b50602082015161364d6020850182613271565b5060408201516136606040850182613271565b506060820151613673606085018261368c565b50608082015161368660808501826132ed565b50505050565b61369581613c3d565b82525050565b6136a481613c3d565b82525050565b60006136b6828561337d565b91506136c2828461337d565b91508190509392505050565b60006020820190506136e36000830184613280565b92915050565b60006080820190506136fe6000830187613280565b61370b6020830186613280565b613718604083018561369b565b61372560608301846132fc565b95945050505050565b60006080820190506137436000830187613280565b6137506020830186613280565b61375d604083018561369b565b818103606083015261376f818461330b565b905095945050505050565b60006020820190508181036000830152613794818461328f565b905092915050565b60006020820190506137b160008301846132fc565b92915050565b600060208201905081810360008301526137d18184613344565b905092915050565b600060208201905081810360008301526137f2816133ae565b9050919050565b60006020820190508181036000830152613812816133d1565b9050919050565b60006020820190508181036000830152613832816133f4565b9050919050565b6000602082019050818103600083015261385281613417565b9050919050565b600060208201905081810360008301526138728161343a565b9050919050565b600060208201905081810360008301526138928161345d565b9050919050565b600060208201905081810360008301526138b281613480565b9050919050565b600060208201905081810360008301526138d2816134a3565b9050919050565b600060208201905081810360008301526138f2816134c6565b9050919050565b60006020820190508181036000830152613912816134e9565b9050919050565b600060208201905081810360008301526139328161350c565b9050919050565b600060208201905081810360008301526139528161352f565b9050919050565b6000602082019050818103600083015261397281613552565b9050919050565b6000602082019050818103600083015261399281613575565b9050919050565b600060208201905081810360008301526139b281613598565b9050919050565b600060208201905081810360008301526139d2816135bb565b9050919050565b600060208201905081810360008301526139f2816135de565b9050919050565b60006020820190508181036000830152613a1281613601565b9050919050565b6000602082019050613a2e600083018461369b565b92915050565b6000613a3e613a4f565b9050613a4a8282613cbb565b919050565b6000604051905090565b600067ffffffffffffffff821115613a7457613a73613d93565b5b613a7d82613dc2565b9050602081019050919050565b600067ffffffffffffffff821115613aa557613aa4613d93565b5b613aae82613dc2565b9050602081019050919050565b6000819050602082019050919050565b600081519050919050565b600081519050919050565b600081519050919050565b6000602082019050919050565b600082825260208201905092915050565b600082825260208201905092915050565b600082825260208201905092915050565b600081905092915050565b6000613b4282613c3d565b9150613b4d83613c3d565b9250827fffffffffffffffffffffffffffffffffffffffffffffffffffffffffffffffff03821115613b8257613b81613d35565b5b828201905092915050565b6000613b9882613c3d565b9150613ba383613c3d565b925082821015613bb657613bb5613d35565b5b828203905092915050565b6000613bcc82613c1d565b9050919050565b6000613bde82613c1d565b9050919050565b60008115159050919050565b60007fffffffff0000000000000000000000000000000000000000000000000000000082169050919050565b600073ffffffffffffffffffffffffffffffffffffffff82169050919050565b6000819050919050565b82818337600083830152505050565b60005b83811015613c74578082015181840152602081019050613c59565b83811115613c83576000848401525b50505050565b60006002820490506001821680613ca157607f821691505b60208210811415613cb557613cb4613d64565b5b50919050565b613cc482613dc2565b810181811067ffffffffffffffff82111715613ce357613ce2613d93565b5b80604052505050565b6000613cf782613c3d565b91507fffffffffffffffffffffffffffffffffffffffffffffffffffffffffffffffff821415613d2a57613d29613d35565b5b600182019050919050565b7f4e487b7100000000000000000000000000000000000000000000000000000000600052601160045260246000fd5b7f4e487b7100000000000000000000000000000000000000000000000000000000600052602260045260246000fd5b7f4e487b7100000000000000000000000000000000000000000000000000000000600052604160045260246000fd5b6000601f19601f8301169050919050565b7f4552433732313a2063616c6c6572206973206e6f7420746f6b656e206f776e6560008201527f72206f7220617070726f76656400000000000000000000000000000000000000602082015250565b7f4d757374206861766520656e6f75676820746f6b656e7320746f20626520616260008201527f6c6520746f206275792074686973204e46540000000000000000000000000000602082015250565b7f436f756e7465723a2064656372656d656e74206f766572666c6f770000000000600082015250565b7f4552433732313a207472616e7366657220746f206e6f6e20455243373231526560008201527f63656976657220696d706c656d656e7465720000000000000000000000000000602082015250565b7f4552433732313a207472616e736665722066726f6d20696e636f72726563742060008201527f6f776e6572000000000000000000000000000000000000000000000000000000602082015250565b7f4552433732313a20746f6b656e20616c7265616479206d696e74656400000000600082015250565b7f4552433732313a207472616e7366657220746f20746865207a65726f2061646460008201527f7265737300000000000000000000000000000000000000000000000000000000602082015250565b7f4552433732313a20617070726f766520746f2063616c6c657200000000000000600082015250565b7f52657175697265206d61726b65742773206f776e657220746f206368616e676560008201527f206c697374696e67207072696365202100000000000000000000000000000000602082015250565b7f4552433732313a2061646472657373207a65726f206973206e6f74206120766160008201527f6c6964206f776e65720000000000000000000000000000000000000000000000602082015250565b7f45524337323155524953746f726167653a2055524920736574206f66206e6f6e60008201527f6578697374656e7420746f6b656e000000000000000000000000000000000000602082015250565b7f4552433732313a206d696e7420746f20746865207a65726f2061646472657373600082015250565b7f5072696365206d75737420626520686967686572207468616e20300000000000600082015250565b7f4552433732313a20696e76616c696420746f6b656e2049440000000000000000600082015250565b7f4552433732313a20617070726f76616c20746f2063757272656e74206f776e6560008201527f7200000000000000000000000000000000000000000000000000000000000000602082015250565b7f4552433732313a20617070726f76652063616c6c6572206973206e6f7420746f60008201527f6b656e206f776e6572206f7220617070726f76656420666f7220616c6c000000602082015250565b7f4f6e6c79206f776e65722063616e20646f207468697320616374696f6e000000600082015250565b7f4d757374206861766520656e6f75676820746f6b656e20746f20706179206c6960008201527f7374696e67207072696365000000000000000000000000000000000000000000602082015250565b61426081613bc1565b811461426b57600080fd5b50565b61427781613be5565b811461428257600080fd5b50565b61428e81613bf1565b811461429957600080fd5b50565b6142a581613c3d565b81146142b057600080fd5b5056fea2646970667358221220cdc4000c3a668a113408c1f03df7da411b606f46f7fa9cc3497759ec1034069564736f6c63430008040033",
  "linkReferences": {},
  "deployedLinkReferences": {}
}